{
  "contractName": "Factory",
  "abi": [
    {
      "inputs": [
        {
          "internalType": "uint256",
          "name": "",
          "type": "uint256"
        }
      ],
      "name": "deployedTickets",
      "outputs": [
        {
          "internalType": "contract Tickets",
          "name": "",
          "type": "address"
        }
      ],
      "stateMutability": "view",
      "type": "function"
    },
    {
      "inputs": [],
      "name": "titleId",
      "outputs": [
        {
          "internalType": "uint256",
          "name": "",
          "type": "uint256"
        }
      ],
      "stateMutability": "view",
      "type": "function"
    },
    {
      "inputs": [
        {
          "internalType": "uint256",
          "name": "studentID",
          "type": "uint256"
        },
        {
          "internalType": "string",
          "name": "description",
          "type": "string"
        },
        {
          "internalType": "uint256",
          "name": "goal",
          "type": "uint256"
        }
      ],
      "name": "createProposal",
      "outputs": [],
      "stateMutability": "nonpayable",
      "type": "function"
    },
    {
      "inputs": [],
      "name": "viewTickets",
      "outputs": [
        {
          "internalType": "contract Tickets[]",
          "name": "",
          "type": "address[]"
        }
      ],
      "stateMutability": "view",
      "type": "function"
    },
    {
      "inputs": [],
      "name": "viewId",
      "outputs": [
        {
          "internalType": "uint256",
          "name": "",
          "type": "uint256"
        }
      ],
      "stateMutability": "view",
      "type": "function"
    }
  ],
  "bytecode": "0x608060405234801561001057600080fd5b50610b27806100206000396000f3fe608060405234801561001057600080fd5b50600436106100575760003560e01c8063539c2c891461005c57806370b90e7d14610073578063a891bfa914610088578063bc954df01461009d578063d83e7bfa146100a6575b600080fd5b6001545b6040519081526020015b60405180910390f35b61007b6100d1565b60405161006a9190610348565b61009b610096366004610218565b610133565b005b61006060015481565b6100b96100b4366004610200565b6101c9565b6040516001600160a01b03909116815260200161006a565b6060600080548060200260200160405190810160405280929190818152602001828054801561012957602002820191906000526020600020905b81546001600160a01b0316815260019091019060200180831161010b575b5050505050905090565b8260018190555060003384848460405161014c906101f3565b61015994939291906102d6565b604051809103906000f080158015610175573d6000803e3d6000fd5b50600080546001810182559080527f290decd9548b62a8d60345a988386fc84ba6bc95484008f6362f93160ef3e5630180546001600160a01b0319166001600160a01b039290921691909117905550505050565b600081815481106101d957600080fd5b6000918252602090912001546001600160a01b0316905081565b610746806103ac83390190565b600060208284031215610211578081fd5b5035919050565b60008060006060848603121561022c578182fd5b83359250602084013567ffffffffffffffff8082111561024a578384fd5b818601915086601f83011261025d578384fd5b81358181111561026f5761026f610395565b604051601f8201601f19908116603f0116810190838211818310171561029757610297610395565b816040528281528960208487010111156102af578687fd5b82602086016020830137918201602001959095529497949650505050604092909201359150565b60018060a01b0385168152600060208581840152608060408401528451806080850152825b818110156103175786810183015185820160a0015282016102fb565b81811115610328578360a083870101525b5060608401949094525050601f91909101601f19160160a0019392505050565b6020808252825182820181905260009190848201906040850190845b818110156103895783516001600160a01b031683529284019291840191600101610364565b50909695505050505050565b634e487b7160e01b600052604160045260246000fdfe608060405234801561001057600080fd5b5060405161074638038061074683398101604081905261002f91610108565b600080546001600160a01b0319166001600160a01b0386161790556001839055815161006290600290602085019061006f565b5060035550610253915050565b82805461007b90610202565b90600052602060002090601f01602090048101928261009d57600085556100e3565b82601f106100b657805160ff19168380011785556100e3565b828001600101855582156100e3579182015b828111156100e35782518255916020019190600101906100c8565b506100ef9291506100f3565b5090565b5b808211156100ef57600081556001016100f4565b6000806000806080858703121561011d578384fd5b84516001600160a01b0381168114610133578485fd5b60208681015160408801519296509450906001600160401b0380821115610158578485fd5b818801915088601f83011261016b578485fd5b81518181111561017d5761017d61023d565b604051601f8201601f19908116603f011681019083821181831017156101a5576101a561023d565b816040528281528b868487010111156101bc578788fd5b8793505b828410156101dd57848401860151818501870152928501926101c0565b828411156101ed57878684830101525b60609a909a0151989b979a5050505050505050565b600181811c9082168061021657607f821691505b6020821081141561023757634e487b7160e01b600052602260045260246000fd5b50919050565b634e487b7160e01b600052604160045260246000fd5b6104e4806102626000396000f3fe6080604052600436106100865760003560e01c8063481c6a7511610059578063481c6a7514610115578063632a9a521461014d5780637284e41614610157578063a3ec138d14610179578063b7e00013146101a957600080fd5b80631bbef3991461008b578063299ac1d9146100b55780634051ddac146100d957806342169e48146100ff575b600080fd5b34801561009757600080fd5b506100a06101bf565b60405190151581526020015b60405180910390f35b3480156100c157600080fd5b506100cb60035481565b6040519081526020016100ac565b3480156100e557600080fd5b506100ee6101e2565b6040516100ac95949392919061040d565b34801561010b57600080fd5b506100cb60045481565b34801561012157600080fd5b50600054610135906001600160a01b031681565b6040516001600160a01b0390911681526020016100ac565b6101556102a7565b005b34801561016357600080fd5b5061016c6102f3565b6040516100ac91906103fa565b34801561018557600080fd5b506100a0610194366004610381565b60056020526000908152604090205460ff1681565b3480156101b557600080fd5b506100cb60015481565b3360009081526005602052604081205460ff166101dc5750600090565b50600090565b60008060006060600060015460045460008054906101000a90046001600160a01b031660026003548180546102169061044c565b80601f01602080910402602001604051908101604052809291908181526020018280546102429061044c565b801561028f5780601f106102645761010080835404028352916020019161028f565b820191906000526020600020905b81548152906001019060200180831161027257829003601f168201915b50505050509150945094509450945094509091929394565b3360009081526005602052604090205460ff16156102c457600080fd5b336000908152600560205260408120805460ff1916600117905560048054916102ec83610487565b9190505550565b600280546103009061044c565b80601f016020809104026020016040519081016040528092919081815260200182805461032c9061044c565b80156103795780601f1061034e57610100808354040283529160200191610379565b820191906000526020600020905b81548152906001019060200180831161035c57829003601f168201915b505050505081565b600060208284031215610392578081fd5b81356001600160a01b03811681146103a8578182fd5b9392505050565b60008151808452815b818110156103d4576020818501810151868301820152016103b8565b818111156103e55782602083870101525b50601f01601f19169290920160200192915050565b6020815260006103a860208301846103af565b85815284602082015260018060a01b038416604082015260a06060820152600061043a60a08301856103af565b90508260808301529695505050505050565b600181811c9082168061046057607f821691505b6020821081141561048157634e487b7160e01b600052602260045260246000fd5b50919050565b60006000198214156104a757634e487b7160e01b81526011600452602481fd5b506001019056fea2646970667358221220be3bd81aa885a8d1a8e51f9715a065378c7de5a68fc582babfc976d7163a865064736f6c63430008040033a2646970667358221220ad35e1b0fbfb4665944ccc21999d6bcc766d4dc2ed2ec67133ce589b17bf758264736f6c63430008040033",
  "immutableReferences": {},
  "source": "// SPDX-License-Identifier: MIT\npragma solidity ^0.8.0;\nimport './Tickets.sol';\n\ncontract Factory {\n\n  Tickets[] public deployedTickets;\n  uint public titleId;\n\n  function createProposal(uint studentID, string memory description, uint goal) public {\n    titleId = studentID;\n    Tickets newTicket = new Tickets(msg.sender, studentID, description, goal);\n    deployedTickets.push(newTicket);\n  }\n\n  function viewTickets() public view returns (Tickets[] memory ){\n    return deployedTickets;\n  }\n\n  function viewId() public view returns (uint){\n    return titleId;\n  }\n\n}\n",
  "sourcePath": "C:\\Users\\nogazi\\univote\\contracts\\Factory.sol",
  "compiler": {
    "name": "solc",
    "version": "0.8.4+commit.c7e474f2.Emscripten.clang"
  },
  "schemaVersion": "3.4.7",
  "updatedAt": "2022-08-08T15:09:16.417Z",
  "networkType": "ethereum",
  "devdoc": {
    "kind": "dev",
    "methods": {},
    "version": 1
  },
  "userdoc": {
    "kind": "user",
    "methods": {},
    "version": 1
  }
}