{
  "contractName": "SocialGroupNFT",
  "abi": [
    {
      "inputs": [
        {
          "internalType": "string",
          "name": "_name",
          "type": "string"
        },
        {
          "internalType": "string",
          "name": "_symbol",
          "type": "string"
        },
        {
          "internalType": "address",
          "name": "_socialToken",
          "type": "address"
        },
        {
          "internalType": "address",
          "name": "newOwner",
          "type": "address"
        }
      ],
      "stateMutability": "nonpayable",
      "type": "constructor"
    },
    {
      "anonymous": false,
      "inputs": [
        {
          "indexed": true,
          "internalType": "address",
          "name": "owner",
          "type": "address"
        },
        {
          "indexed": true,
          "internalType": "address",
          "name": "approved",
          "type": "address"
        },
        {
          "indexed": true,
          "internalType": "uint256",
          "name": "tokenId",
          "type": "uint256"
        }
      ],
      "name": "Approval",
      "type": "event"
    },
    {
      "anonymous": false,
      "inputs": [
        {
          "indexed": true,
          "internalType": "address",
          "name": "owner",
          "type": "address"
        },
        {
          "indexed": true,
          "internalType": "address",
          "name": "operator",
          "type": "address"
        },
        {
          "indexed": false,
          "internalType": "bool",
          "name": "approved",
          "type": "bool"
        }
      ],
      "name": "ApprovalForAll",
      "type": "event"
    },
    {
      "anonymous": false,
      "inputs": [
        {
          "indexed": true,
          "internalType": "address",
          "name": "previousOwner",
          "type": "address"
        },
        {
          "indexed": true,
          "internalType": "address",
          "name": "newOwner",
          "type": "address"
        }
      ],
      "name": "OwnershipTransferred",
      "type": "event"
    },
    {
      "anonymous": false,
      "inputs": [
        {
          "indexed": false,
          "internalType": "address",
          "name": "account",
          "type": "address"
        }
      ],
      "name": "Paused",
      "type": "event"
    },
    {
      "anonymous": false,
      "inputs": [
        {
          "indexed": true,
          "internalType": "address",
          "name": "from",
          "type": "address"
        },
        {
          "indexed": true,
          "internalType": "address",
          "name": "to",
          "type": "address"
        },
        {
          "indexed": true,
          "internalType": "uint256",
          "name": "tokenId",
          "type": "uint256"
        }
      ],
      "name": "Transfer",
      "type": "event"
    },
    {
      "anonymous": false,
      "inputs": [
        {
          "indexed": false,
          "internalType": "address",
          "name": "account",
          "type": "address"
        }
      ],
      "name": "Unpaused",
      "type": "event"
    },
    {
      "inputs": [],
      "name": "activeReferendums",
      "outputs": [
        {
          "internalType": "uint256",
          "name": "",
          "type": "uint256"
        }
      ],
      "stateMutability": "view",
      "type": "function"
    },
    {
      "inputs": [
        {
          "internalType": "address",
          "name": "to",
          "type": "address"
        },
        {
          "internalType": "uint256",
          "name": "tokenId",
          "type": "uint256"
        }
      ],
      "name": "approve",
      "outputs": [],
      "stateMutability": "nonpayable",
      "type": "function"
    },
    {
      "inputs": [
        {
          "internalType": "address",
          "name": "owner",
          "type": "address"
        }
      ],
      "name": "balanceOf",
      "outputs": [
        {
          "internalType": "uint256",
          "name": "",
          "type": "uint256"
        }
      ],
      "stateMutability": "view",
      "type": "function"
    },
    {
      "inputs": [
        {
          "internalType": "uint256",
          "name": "tokenId",
          "type": "uint256"
        }
      ],
      "name": "burn",
      "outputs": [],
      "stateMutability": "nonpayable",
      "type": "function"
    },
    {
      "inputs": [
        {
          "internalType": "uint256",
          "name": "tokenId",
          "type": "uint256"
        }
      ],
      "name": "getApproved",
      "outputs": [
        {
          "internalType": "address",
          "name": "",
          "type": "address"
        }
      ],
      "stateMutability": "view",
      "type": "function"
    },
    {
      "inputs": [
        {
          "internalType": "address",
          "name": "owner",
          "type": "address"
        },
        {
          "internalType": "address",
          "name": "operator",
          "type": "address"
        }
      ],
      "name": "isApprovedForAll",
      "outputs": [
        {
          "internalType": "bool",
          "name": "",
          "type": "bool"
        }
      ],
      "stateMutability": "view",
      "type": "function"
    },
    {
      "inputs": [],
      "name": "name",
      "outputs": [
        {
          "internalType": "string",
          "name": "",
          "type": "string"
        }
      ],
      "stateMutability": "view",
      "type": "function"
    },
    {
      "inputs": [],
      "name": "owner",
      "outputs": [
        {
          "internalType": "address",
          "name": "",
          "type": "address"
        }
      ],
      "stateMutability": "view",
      "type": "function"
    },
    {
      "inputs": [
        {
          "internalType": "uint256",
          "name": "tokenId",
          "type": "uint256"
        }
      ],
      "name": "ownerOf",
      "outputs": [
        {
          "internalType": "address",
          "name": "",
          "type": "address"
        }
      ],
      "stateMutability": "view",
      "type": "function"
    },
    {
      "inputs": [],
      "name": "paused",
      "outputs": [
        {
          "internalType": "bool",
          "name": "",
          "type": "bool"
        }
      ],
      "stateMutability": "view",
      "type": "function"
    },
    {
      "inputs": [
        {
          "internalType": "uint256",
          "name": "",
          "type": "uint256"
        }
      ],
      "name": "referendums",
      "outputs": [
        {
          "internalType": "string",
          "name": "title",
          "type": "string"
        },
        {
          "internalType": "string",
          "name": "description",
          "type": "string"
        },
        {
          "internalType": "bool",
          "name": "complete",
          "type": "bool"
        },
        {
          "internalType": "uint16",
          "name": "yesVotes",
          "type": "uint16"
        },
        {
          "internalType": "uint16",
          "name": "noVotes",
          "type": "uint16"
        },
        {
          "internalType": "bool",
          "name": "isAnonymous",
          "type": "bool"
        },
        {
          "internalType": "uint256",
          "name": "startTime",
          "type": "uint256"
        },
        {
          "internalType": "uint256",
          "name": "endTime",
          "type": "uint256"
        },
        {
          "internalType": "bool",
          "name": "isPrivate",
          "type": "bool"
        }
      ],
      "stateMutability": "view",
      "type": "function"
    },
    {
      "inputs": [
        {
          "internalType": "address",
          "name": "",
          "type": "address"
        },
        {
          "internalType": "uint256",
          "name": "",
          "type": "uint256"
        }
      ],
      "name": "referendumsVoteStatus",
      "outputs": [
        {
          "internalType": "bool",
          "name": "",
          "type": "bool"
        }
      ],
      "stateMutability": "view",
      "type": "function"
    },
    {
      "inputs": [],
      "name": "renounceOwnership",
      "outputs": [],
      "stateMutability": "nonpayable",
      "type": "function"
    },
    {
      "inputs": [
        {
          "internalType": "address",
          "name": "from",
          "type": "address"
        },
        {
          "internalType": "address",
          "name": "to",
          "type": "address"
        },
        {
          "internalType": "uint256",
          "name": "tokenId",
          "type": "uint256"
        }
      ],
      "name": "safeTransferFrom",
      "outputs": [],
      "stateMutability": "nonpayable",
      "type": "function"
    },
    {
      "inputs": [
        {
          "internalType": "address",
          "name": "from",
          "type": "address"
        },
        {
          "internalType": "address",
          "name": "to",
          "type": "address"
        },
        {
          "internalType": "uint256",
          "name": "tokenId",
          "type": "uint256"
        },
        {
          "internalType": "bytes",
          "name": "_data",
          "type": "bytes"
        }
      ],
      "name": "safeTransferFrom",
      "outputs": [],
      "stateMutability": "nonpayable",
      "type": "function"
    },
    {
      "inputs": [
        {
          "internalType": "address",
          "name": "operator",
          "type": "address"
        },
        {
          "internalType": "bool",
          "name": "approved",
          "type": "bool"
        }
      ],
      "name": "setApprovalForAll",
      "outputs": [],
      "stateMutability": "nonpayable",
      "type": "function"
    },
    {
      "inputs": [],
      "name": "symbol",
      "outputs": [
        {
          "internalType": "string",
          "name": "",
          "type": "string"
        }
      ],
      "stateMutability": "view",
      "type": "function"
    },
    {
      "inputs": [
        {
          "internalType": "uint256",
          "name": "index",
          "type": "uint256"
        }
      ],
      "name": "tokenByIndex",
      "outputs": [
        {
          "internalType": "uint256",
          "name": "",
          "type": "uint256"
        }
      ],
      "stateMutability": "view",
      "type": "function"
    },
    {
      "inputs": [
        {
          "internalType": "address",
          "name": "owner",
          "type": "address"
        },
        {
          "internalType": "uint256",
          "name": "index",
          "type": "uint256"
        }
      ],
      "name": "tokenOfOwnerByIndex",
      "outputs": [
        {
          "internalType": "uint256",
          "name": "",
          "type": "uint256"
        }
      ],
      "stateMutability": "view",
      "type": "function"
    },
    {
      "inputs": [],
      "name": "totalSupply",
      "outputs": [
        {
          "internalType": "uint256",
          "name": "",
          "type": "uint256"
        }
      ],
      "stateMutability": "view",
      "type": "function"
    },
    {
      "inputs": [
        {
          "internalType": "address",
          "name": "from",
          "type": "address"
        },
        {
          "internalType": "address",
          "name": "to",
          "type": "address"
        },
        {
          "internalType": "uint256",
          "name": "tokenId",
          "type": "uint256"
        }
      ],
      "name": "transferFrom",
      "outputs": [],
      "stateMutability": "nonpayable",
      "type": "function"
    },
    {
      "inputs": [
        {
          "internalType": "address",
          "name": "newOwner",
          "type": "address"
        }
      ],
      "name": "transferOwnership",
      "outputs": [],
      "stateMutability": "nonpayable",
      "type": "function"
    },
    {
      "inputs": [
        {
          "internalType": "address",
          "name": "",
          "type": "address"
        }
      ],
      "name": "voteCount",
      "outputs": [
        {
          "internalType": "uint256",
          "name": "",
          "type": "uint256"
        }
      ],
      "stateMutability": "view",
      "type": "function"
    },
    {
      "inputs": [
        {
          "internalType": "uint256",
          "name": "",
          "type": "uint256"
        }
      ],
      "name": "voters",
      "outputs": [
        {
          "internalType": "address",
          "name": "",
          "type": "address"
        }
      ],
      "stateMutability": "view",
      "type": "function"
    },
    {
      "inputs": [
        {
          "internalType": "string",
          "name": "title",
          "type": "string"
        },
        {
          "internalType": "string",
          "name": "description",
          "type": "string"
        },
        {
          "internalType": "bool",
          "name": "isAnonymous",
          "type": "bool"
        },
        {
          "internalType": "uint256",
          "name": "endTime",
          "type": "uint256"
        },
        {
          "internalType": "bool",
          "name": "isPrivate",
          "type": "bool"
        }
      ],
      "name": "createReferendum",
      "outputs": [],
      "stateMutability": "nonpayable",
      "type": "function"
    },
    {
      "inputs": [
        {
          "internalType": "uint256",
          "name": "id",
          "type": "uint256"
        },
        {
          "internalType": "bool",
          "name": "voteStatus",
          "type": "bool"
        }
      ],
      "name": "voteOnReferendum",
      "outputs": [],
      "stateMutability": "nonpayable",
      "type": "function"
    },
    {
      "inputs": [
        {
          "internalType": "uint256",
          "name": "id",
          "type": "uint256"
        }
      ],
      "name": "endReferendum",
      "outputs": [],
      "stateMutability": "nonpayable",
      "type": "function"
    },
    {
      "inputs": [],
      "name": "mint",
      "outputs": [],
      "stateMutability": "nonpayable",
      "type": "function"
    },
    {
      "inputs": [
        {
          "internalType": "address",
          "name": "receiver",
          "type": "address"
        }
      ],
      "name": "whitelist",
      "outputs": [],
      "stateMutability": "nonpayable",
      "type": "function"
    },
    {
      "inputs": [
        {
          "internalType": "address[]",
          "name": "addresses",
          "type": "address[]"
        }
      ],
      "name": "whitelistBatch",
      "outputs": [],
      "stateMutability": "nonpayable",
      "type": "function"
    },
    {
      "inputs": [],
      "name": "resetVoteCount",
      "outputs": [],
      "stateMutability": "nonpayable",
      "type": "function"
    },
    {
      "inputs": [],
      "name": "getVoters",
      "outputs": [
        {
          "internalType": "address[]",
          "name": "",
          "type": "address[]"
        }
      ],
      "stateMutability": "view",
      "type": "function"
    },
    {
      "inputs": [
        {
          "internalType": "uint256",
          "name": "refId",
          "type": "uint256"
        }
      ],
      "name": "getRefVoters",
      "outputs": [
        {
          "internalType": "address[]",
          "name": "",
          "type": "address[]"
        }
      ],
      "stateMutability": "view",
      "type": "function"
    },
    {
      "inputs": [
        {
          "internalType": "address",
          "name": "user",
          "type": "address"
        }
      ],
      "name": "getVoteCount",
      "outputs": [
        {
          "internalType": "uint256",
          "name": "",
          "type": "uint256"
        }
      ],
      "stateMutability": "view",
      "type": "function"
    },
    {
      "inputs": [
        {
          "internalType": "uint256",
          "name": "id",
          "type": "uint256"
        }
      ],
      "name": "viewVotes",
      "outputs": [
        {
          "internalType": "uint16[2]",
          "name": "",
          "type": "uint16[2]"
        }
      ],
      "stateMutability": "view",
      "type": "function"
    },
    {
      "inputs": [],
      "name": "pause",
      "outputs": [],
      "stateMutability": "nonpayable",
      "type": "function"
    },
    {
      "inputs": [],
      "name": "unpause",
      "outputs": [],
      "stateMutability": "nonpayable",
      "type": "function"
    },
    {
      "inputs": [
        {
          "internalType": "uint256",
          "name": "tokenId",
          "type": "uint256"
        }
      ],
      "name": "tokenURI",
      "outputs": [
        {
          "internalType": "string",
          "name": "",
          "type": "string"
        }
      ],
      "stateMutability": "view",
      "type": "function"
    },
    {
      "inputs": [
        {
          "internalType": "bytes4",
          "name": "interfaceId",
          "type": "bytes4"
        }
      ],
      "name": "supportsInterface",
      "outputs": [
        {
          "internalType": "bool",
          "name": "",
          "type": "bool"
        }
      ],
      "stateMutability": "view",
      "type": "function"
    }
  ],
  "bytecode": "0x60806040523480156200001157600080fd5b50604051620037f1380380620037f183398101604081905262000034916200027b565b8351849084906200004d90600090602085019062000105565b5080516200006390600190602084019062000105565b5050600b805460ff19169055506200007b33620000ab565b600d80546001600160a01b0319166001600160a01b038416179055620000a181620000ab565b505050506200035a565b600b80546001600160a01b03838116610100818102610100600160a81b031985161790945560405193909204169182907f8be0079c531659141344cd1fd0a4f28419497f9722a3daafe3b4186f6b6457e090600090a35050565b828054620001139062000307565b90600052602060002090601f01602090048101928262000137576000855562000182565b82601f106200015257805160ff191683800117855562000182565b8280016001018555821562000182579182015b828111156200018257825182559160200191906001019062000165565b506200019092915062000194565b5090565b5b8082111562000190576000815560010162000195565b80516001600160a01b0381168114620001c357600080fd5b919050565b600082601f830112620001d9578081fd5b81516001600160401b0380821115620001f657620001f662000344565b604051601f8301601f19908116603f0116810190828211818310171562000221576200022162000344565b816040528381526020925086838588010111156200023d578485fd5b8491505b8382101562000260578582018301518183018401529082019062000241565b838211156200027157848385830101525b9695505050505050565b6000806000806080858703121562000291578384fd5b84516001600160401b0380821115620002a8578586fd5b620002b688838901620001c8565b95506020870151915080821115620002cc578485fd5b50620002db87828801620001c8565b935050620002ec60408601620001ab565b9150620002fc60608601620001ab565b905092959194509250565b600181811c908216806200031c57607f821691505b602082108114156200033e57634e487b7160e01b600052602260045260246000fd5b50919050565b634e487b7160e01b600052604160045260246000fd5b613487806200036a6000396000f3fe608060405234801561001057600080fd5b506004361061023d5760003560e01c80636352211e1161013b578063b2636a50116100b8578063e652f4cc1161007c578063e652f4cc146104f3578063e985e9c51461051c578063eaa5352314610558578063eaa7307c1461056b578063f2fde38b1461057e57600080fd5b8063b2636a501461048a578063b88d4fde146104b2578063c87b56dd146104c5578063cdd72253146104d8578063da58c7d9146104e057600080fd5b806395d89b41116100ff57806395d89b41146104295780639b19251a14610431578063a002f6ed14610444578063a22cb46514610464578063aecfe0651461047757600080fd5b80636352211e146103dd57806370a08231146103f0578063715018a6146104035780638456cb591461040b5780638da5cb5b1461041357600080fd5b80632f745c59116101c957806342966c681161018d57806342966c68146103795780634f6ccce71461038c57806354ac809d1461039f5780635c975abb146103b25780635e3cd7bc146103bd57600080fd5b80632f745c591461031457806334ea294e146103275780633757afc2146103555780633f4ba83a1461035e57806342842e0e1461036657600080fd5b8063095ea7b311610210578063095ea7b3146102b45780631249c58b146102c757806318160ddd146102cf57806323b872dd146102e157806326b90a9b146102f457600080fd5b806301ffc9a714610242578063039d60191461026a57806306fdde0314610274578063081812fc14610289575b600080fd5b610255610250366004612eb1565b610591565b60405190151581526020015b60405180910390f35b6102726105a2565b005b61027c61065c565b60405161026191906130c9565b61029c610297366004612f75565b6106ee565b6040516001600160a01b039091168152602001610261565b6102726102c2366004612e18565b610783565b610272610899565b6008545b604051908152602001610261565b6102726102ef366004612d3b565b610957565b610307610302366004612f75565b610989565b6040516102619190613047565b6102d3610322366004612e18565b610aab565b610255610335366004612e18565b601360209081526000928352604080842090915290825290205460ff1681565b6102d360115481565b610272610b41565b610272610374366004612d3b565b610b7b565b610272610387366004612f75565b610b96565b6102d361039a366004612f75565b610c10565b6102726103ad366004612ee9565b610cb1565b600b5460ff16610255565b6102d36103cb366004612cef565b600f6020526000908152604090205481565b61029c6103eb366004612f75565b610f50565b6102d36103fe366004612cef565b610fc7565b61027261104e565b610272611088565b600b5461010090046001600160a01b031661029c565b61027c6110c0565b61027261043f366004612cef565b6110cf565b610457610452366004612f75565b611156565b6040516102619190613094565b610272610472366004612def565b611202565b610272610485366004612f75565b61120d565b61049d610498366004612f75565b61137e565b604051610261999897969594939291906130dc565b6102726104c0366004612d76565b6114ff565b61027c6104d3366004612f75565b611537565b610307611542565b61029c6104ee366004612f75565b6115a3565b6102d3610501366004612cef565b6001600160a01b03166000908152600f602052604090205490565b61025561052a366004612d09565b6001600160a01b03918216600090815260056020908152604080832093909416825291909152205460ff1690565b610272610566366004612e41565b6115cd565b610272610579366004612f8d565b61167d565b61027261058c366004612cef565b611a5d565b600061059c82611afb565b92915050565b600b546001600160a01b036101009091041633146105db5760405162461bcd60e51b81526004016105d290613247565b60405180910390fd5b60006105e5611542565b905060005b8151811015610658576000600f600084848151811061061957634e487b7160e01b600052603260045260246000fd5b60200260200101516001600160a01b03166001600160a01b03168152602001908152602001600020819055508080610650906133ca565b9150506105ea565b5050565b60606000805461066b9061338f565b80601f01602080910402602001604051908101604052809291908181526020018280546106979061338f565b80156106e45780601f106106b9576101008083540402835291602001916106e4565b820191906000526020600020905b8154815290600101906020018083116106c757829003601f168201915b5050505050905090565b6000818152600260205260408120546001600160a01b03166107675760405162461bcd60e51b815260206004820152602c60248201527f4552433732313a20617070726f76656420717565727920666f72206e6f6e657860448201526b34b9ba32b73a103a37b5b2b760a11b60648201526084016105d2565b506000908152600460205260409020546001600160a01b031690565b600061078e82610f50565b9050806001600160a01b0316836001600160a01b031614156107fc5760405162461bcd60e51b815260206004820152602160248201527f4552433732313a20617070726f76616c20746f2063757272656e74206f776e656044820152603960f91b60648201526084016105d2565b336001600160a01b03821614806108185750610818813361052a565b61088a5760405162461bcd60e51b815260206004820152603860248201527f4552433732313a20617070726f76652063616c6c6572206973206e6f74206f7760448201527f6e6572206e6f7220617070726f76656420666f7220616c6c000000000000000060648201526084016105d2565b6108948383611b20565b505050565b60016108a433610fc7565b106108ae57600080fd5b60006108b9600c5490565b90506108c9600c80546001019055565b6108d33382611b8e565b336000818152600e602052604090819020805460ff19166001908117909155600d5491516340c10f1960e01b8152600481019390935260248301526001600160a01b0316906340c10f19906044015b600060405180830381600087803b15801561093c57600080fd5b505af1158015610950573d6000803e3d6000fd5b5050505050565b610962335b82611ba8565b61097e5760405162461bcd60e51b81526004016105d29061327c565b610894838383611c9f565b6060601082815481106109ac57634e487b7160e01b600052603260045260246000fd5b600091825260209091206007909102016002015465010000000000900460ff1615610a195760405162461bcd60e51b815260206004820152601c60248201527f54686973205265666572656e64756d20497320416e6f6e796d6f75730000000060448201526064016105d2565b60108281548110610a3a57634e487b7160e01b600052603260045260246000fd5b9060005260206000209060070201600601805480602002602001604051908101604052809291908181526020018280548015610a9f57602002820191906000526020600020905b81546001600160a01b03168152600190910190602001808311610a81575b50505050509050919050565b6000610ab683610fc7565b8210610b185760405162461bcd60e51b815260206004820152602b60248201527f455243373231456e756d657261626c653a206f776e657220696e646578206f7560448201526a74206f6620626f756e647360a81b60648201526084016105d2565b506001600160a01b03919091166000908152600660209081526040808320938352929052205490565b600b546001600160a01b03610100909104163314610b715760405162461bcd60e51b81526004016105d290613247565b610b79611e46565b565b610894838383604051806020016040528060008152506114ff565b610b9f3361095c565b610c045760405162461bcd60e51b815260206004820152603060248201527f4552433732314275726e61626c653a2063616c6c6572206973206e6f74206f7760448201526f1b995c881b9bdc88185c1c1c9bdd995960821b60648201526084016105d2565b610c0d81611ed9565b50565b6000610c1b60085490565b8210610c7e5760405162461bcd60e51b815260206004820152602c60248201527f455243373231456e756d657261626c653a20676c6f62616c20696e646578206f60448201526b7574206f6620626f756e647360a01b60648201526084016105d2565b60088281548110610c9f57634e487b7160e01b600052603260045260246000fd5b90600052602060002001549050919050565b600b546001600160a01b03610100909104163314610ce15760405162461bcd60e51b81526004016105d290613247565b6000610ced83426132ea565b610cfa9062015180613316565b604080516101408101825288815260208082018990526000828401819052606083018190526080830181905288151560a08401524260c084015260e08301859052861515610100840152835181815280830190945261012083019390935260108054600181018255935281518051949550919384936007027f1b6847dc741a1b0cd08d278845f9d819d87b734759afb55fe2de5cb82a9ae6720192610da3928492910190612aec565b506020828101518051610dbc9260018501920190612aec565b5060408201516002820180546060850151608086015160a08701511515650100000000000265ff00000000001961ffff9283166301000000021665ffffff000000199290931661010090810262ffff00199715159790971662ffffff199095169490941795909517161792909217905560c0830151600383015560e0830151600483015582015160058201805491151560ff19929092169190911790556101208201518051610e75916006840191602090910190612b70565b50506011805491506000610e88836133ca565b919050555060005b601254811015610f4657600060128281548110610ebd57634e487b7160e01b600052603260045260246000fd5b600091825260209091200154600d546040516340c10f1960e01b81526001600160a01b03928316600482018190526001602483015293509116906340c10f1990604401600060405180830381600087803b158015610f1a57600080fd5b505af1158015610f2e573d6000803e3d6000fd5b50505050508080610f3e906133ca565b915050610e90565b5050505050505050565b6000818152600260205260408120546001600160a01b03168061059c5760405162461bcd60e51b815260206004820152602960248201527f4552433732313a206f776e657220717565727920666f72206e6f6e657869737460448201526832b73a103a37b5b2b760b91b60648201526084016105d2565b60006001600160a01b0382166110325760405162461bcd60e51b815260206004820152602a60248201527f4552433732313a2062616c616e636520717565727920666f7220746865207a65604482015269726f206164647265737360b01b60648201526084016105d2565b506001600160a01b031660009081526003602052604090205490565b600b546001600160a01b0361010090910416331461107e5760405162461bcd60e51b81526004016105d290613247565b610b796000611ee2565b600b546001600160a01b036101009091041633146110b85760405162461bcd60e51b81526004016105d290613247565b610b79611f3c565b60606001805461066b9061338f565b600b546001600160a01b036101009091041633146110ff5760405162461bcd60e51b81526004016105d290613247565b6001600160a01b038181166000818152600e602052604090819020805460ff19166001908117909155600d5491516340c10f1960e01b815260048101939093526024830152909116906340c10f1990604401610922565b61115e612bc5565b600060405180604001604052806010858154811061118c57634e487b7160e01b600052603260045260246000fd5b906000526020600020906007020160020160019054906101000a900461ffff1661ffff1661ffff168152602001601085815481106111da57634e487b7160e01b600052603260045260246000fd5b60009182526020909120600790910201600201546301000000900461ffff1690529392505050565b610658338383611f94565b600b546001600160a01b0361010090910416331461123d5760405162461bcd60e51b81526004016105d290613247565b806010818154811061125f57634e487b7160e01b600052603260045260246000fd5b600091825260209091206002600790920201015460ff16156112935760405162461bcd60e51b81526004016105d2906131d9565b42601082815481106112b557634e487b7160e01b600052603260045260246000fd5b906000526020600020906007020160030154601083815481106112e857634e487b7160e01b600052603260045260246000fd5b90600052602060002090600702016004015461130491906132ea565b116113215760405162461bcd60e51b81526004016105d290613144565b60016010838154811061134457634e487b7160e01b600052603260045260246000fd5b60009182526020822060079190910201600201805460ff191692151592909217909155601180549161137583613378565b91905055505050565b6010818154811061138e57600080fd5b90600052602060002090600702016000915090508060000180546113b19061338f565b80601f01602080910402602001604051908101604052809291908181526020018280546113dd9061338f565b801561142a5780601f106113ff5761010080835404028352916020019161142a565b820191906000526020600020905b81548152906001019060200180831161140d57829003601f168201915b50505050509080600101805461143f9061338f565b80601f016020809104026020016040519081016040528092919081815260200182805461146b9061338f565b80156114b85780601f1061148d576101008083540402835291602001916114b8565b820191906000526020600020905b81548152906001019060200180831161149b57829003601f168201915b505050600284015460038501546004860154600590960154949560ff8084169661ffff61010086048116975063010000008604169550650100000000009094048116931689565b6115093383611ba8565b6115255760405162461bcd60e51b81526004016105d29061327c565b61153184848484612063565b50505050565b606061059c82612096565b606060128054806020026020016040519081016040528092919081815260200182805480156106e457602002820191906000526020600020905b81546001600160a01b0316815260019091019060200180831161157c575050505050905090565b601281815481106115b357600080fd5b6000918252602090912001546001600160a01b0316905081565b600b546001600160a01b036101009091041633146115fd5760405162461bcd60e51b81526004016105d290613247565b60005b81811015610894576001600e600085858581811061162e57634e487b7160e01b600052603260045260246000fd5b90506020020160208101906116439190612cef565b6001600160a01b031681526020810191909152604001600020805460ff191691151591909117905580611675816133ca565b915050611600565b816010818154811061169f57634e487b7160e01b600052603260045260246000fd5b600091825260209091206002600790920201015460ff16156116d35760405162461bcd60e51b81526004016105d2906131d9565b42601082815481106116f557634e487b7160e01b600052603260045260246000fd5b9060005260206000209060070201600301546010838154811061172857634e487b7160e01b600052603260045260246000fd5b90600052602060002090600702016004015461174491906132ea565b116117615760405162461bcd60e51b81526004016105d290613144565b600b5460ff16156117845760405162461bcd60e51b81526004016105d29061321d565b336000908152600e602052604090205460ff166117f15760405162461bcd60e51b815260206004820152602560248201527f55736572206973206e6f742070617274206f66207468697320536f6369616c20604482015264047726f75760dc1b60648201526084016105d2565b33600090815260136020908152604080832086845290915290205460ff161561181957600080fd5b60006010848154811061183c57634e487b7160e01b600052603260045260246000fd5b6000918252602090912060056007909202019081015490915060ff161515600114156118d35761186a612215565b6118d35760405162461bcd60e51b815260206004820152603460248201527f596f75204d757374204d696e74204265666f726520596f752043616e20566f7460448201527365204f6e2054686973205265666572656e64756d60601b60648201526084016105d2565b6001831515141561191f5760018160020160018282829054906101000a900461ffff1661190091906132cd565b92506101000a81548161ffff021916908361ffff16021790555061195c565b60018160020160038282829054906101000a900461ffff1661194191906132cd565b92506101000a81548161ffff021916908361ffff1602179055505b3360008181526013602090815260408083208884528252808320805460ff19166001908117909155601280548083019091557fbb8a6a4669ba250d26cd7a459eca9d215f8307e33aebe50379bc5a3617ec34440180546001600160a01b03199081168717909155600687018054808401825590865284862001805490911686179055938352600f909152812080549091906119f89084906132ea565b9091555050600d54604051632770a7eb60e21b8152336004820152600160248201526001600160a01b0390911690639dc29fac90604401600060405180830381600087803b158015611a4957600080fd5b505af1158015610f46573d6000803e3d6000fd5b600b546001600160a01b03610100909104163314611a8d5760405162461bcd60e51b81526004016105d290613247565b6001600160a01b038116611af25760405162461bcd60e51b815260206004820152602660248201527f4f776e61626c653a206e6577206f776e657220697320746865207a65726f206160448201526564647265737360d01b60648201526084016105d2565b610c0d81611ee2565b60006001600160e01b0319821663780e9d6360e01b148061059c575061059c82612285565b600081815260046020526040902080546001600160a01b0319166001600160a01b0384169081179091558190611b5582610f50565b6001600160a01b03167f8c5be1e5ebec7d5bd14f71427d1e84f3dd0314c0f7b2291e5b200ac8c7c3b92560405160405180910390a45050565b6106588282604051806020016040528060008152506122d5565b6000818152600260205260408120546001600160a01b0316611c215760405162461bcd60e51b815260206004820152602c60248201527f4552433732313a206f70657261746f7220717565727920666f72206e6f6e657860448201526b34b9ba32b73a103a37b5b2b760a11b60648201526084016105d2565b6000611c2c83610f50565b9050806001600160a01b0316846001600160a01b03161480611c675750836001600160a01b0316611c5c846106ee565b6001600160a01b0316145b80611c9757506001600160a01b0380821660009081526005602090815260408083209388168352929052205460ff165b949350505050565b826001600160a01b0316611cb282610f50565b6001600160a01b031614611d165760405162461bcd60e51b815260206004820152602560248201527f4552433732313a207472616e736665722066726f6d20696e636f72726563742060448201526437bbb732b960d91b60648201526084016105d2565b6001600160a01b038216611d785760405162461bcd60e51b8152602060048201526024808201527f4552433732313a207472616e7366657220746f20746865207a65726f206164646044820152637265737360e01b60648201526084016105d2565b611d83838383612308565b611d8e600082611b20565b6001600160a01b0383166000908152600360205260408120805460019290611db7908490613335565b90915550506001600160a01b0382166000908152600360205260408120805460019290611de59084906132ea565b909155505060008181526002602052604080822080546001600160a01b0319166001600160a01b0386811691821790925591518493918716917fddf252ad1be2c89b69c2b068fc378daa952ba7f163c4a11628f55a4df523b3ef91a4505050565b600b5460ff16611e8f5760405162461bcd60e51b815260206004820152601460248201527314185d5cd8589b194e881b9bdd081c185d5cd95960621b60448201526064016105d2565b600b805460ff191690557f5db9ee0a495bf2e6ff9c91a7834c1ba4fdd244a5e8aa4e537bd38aeae4b073aa335b6040516001600160a01b03909116815260200160405180910390a1565b610c0d81612336565b600b80546001600160a01b03838116610100818102610100600160a81b031985161790945560405193909204169182907f8be0079c531659141344cd1fd0a4f28419497f9722a3daafe3b4186f6b6457e090600090a35050565b600b5460ff1615611f5f5760405162461bcd60e51b81526004016105d29061321d565b600b805460ff191660011790557f62e78cea01bee320cd4e420270b5ea74000d11b0c9f74754ebdbfc544b05a258611ebc3390565b816001600160a01b0316836001600160a01b03161415611ff65760405162461bcd60e51b815260206004820152601960248201527f4552433732313a20617070726f766520746f2063616c6c65720000000000000060448201526064016105d2565b6001600160a01b03838116600081815260056020908152604080832094871680845294825291829020805460ff191686151590811790915591519182527f17307eab39ab6107e8899845ad3d59bd9653f200f220920489ca2b5937696c31910160405180910390a3505050565b61206e848484611c9f565b61207a84848484612376565b6115315760405162461bcd60e51b81526004016105d290613187565b6000818152600260205260409020546060906001600160a01b03166121175760405162461bcd60e51b815260206004820152603160248201527f45524337323155524953746f726167653a2055524920717565727920666f72206044820152703737b732bc34b9ba32b73a103a37b5b2b760791b60648201526084016105d2565b6000828152600a6020526040812080546121309061338f565b80601f016020809104026020016040519081016040528092919081815260200182805461215c9061338f565b80156121a95780601f1061217e576101008083540402835291602001916121a9565b820191906000526020600020905b81548152906001019060200180831161218c57829003601f168201915b5050505050905060006121c760408051602081019091526000815290565b90508051600014156121da575092915050565b81511561220c5780826040516020016121f4929190612fdb565b60405160208183030381529060405292505050919050565b611c9784612483565b60008061222133610fc7565b1161227f5760405162461bcd60e51b815260206004820152602860248201527f536f6369616c47726f75704e46543a2063616c6c6572206973206e6f742061756044820152671d1a1bdc9a5cd95960c21b60648201526084016105d2565b50600190565b60006001600160e01b031982166380ac58cd60e01b14806122b657506001600160e01b03198216635b5e139f60e01b145b8061059c57506301ffc9a760e01b6001600160e01b031983161461059c565b6122df838361256b565b6122ec6000848484612376565b6108945760405162461bcd60e51b81526004016105d290613187565b600b5460ff161561232b5760405162461bcd60e51b81526004016105d29061321d565b6108948383836126b9565b61233f81612771565b6000818152600a6020526040902080546123589061338f565b159050610c0d576000818152600a60205260408120610c0d91612be3565b60006001600160a01b0384163b1561247857604051630a85bd0160e11b81526001600160a01b0385169063150b7a02906123ba90339089908890889060040161300a565b602060405180830381600087803b1580156123d457600080fd5b505af1925050508015612404575060408051601f3d908101601f1916820190925261240191810190612ecd565b60015b61245e573d808015612432576040519150601f19603f3d011682016040523d82523d6000602084013e612437565b606091505b5080516124565760405162461bcd60e51b81526004016105d290613187565b805181602001fd5b6001600160e01b031916630a85bd0160e11b149050611c97565b506001949350505050565b6000818152600260205260409020546060906001600160a01b03166125025760405162461bcd60e51b815260206004820152602f60248201527f4552433732314d657461646174613a2055524920717565727920666f72206e6f60448201526e3732bc34b9ba32b73a103a37b5b2b760891b60648201526084016105d2565b600061251960408051602081019091526000815290565b905060008151116125395760405180602001604052806000815250612564565b8061254384612818565b604051602001612554929190612fdb565b6040516020818303038152906040525b9392505050565b6001600160a01b0382166125c15760405162461bcd60e51b815260206004820181905260248201527f4552433732313a206d696e7420746f20746865207a65726f206164647265737360448201526064016105d2565b6000818152600260205260409020546001600160a01b0316156126265760405162461bcd60e51b815260206004820152601c60248201527f4552433732313a20746f6b656e20616c7265616479206d696e7465640000000060448201526064016105d2565b61263260008383612308565b6001600160a01b038216600090815260036020526040812080546001929061265b9084906132ea565b909155505060008181526002602052604080822080546001600160a01b0319166001600160a01b03861690811790915590518392907fddf252ad1be2c89b69c2b068fc378daa952ba7f163c4a11628f55a4df523b3ef908290a45050565b6001600160a01b0383166127145761270f81600880546000838152600960205260408120829055600182018355919091527ff3f7a9fe364faab93b216da50a3214154f22a0a2b415b23a84c8169e8b636ee30155565b612737565b816001600160a01b0316836001600160a01b031614612737576127378382612932565b6001600160a01b03821661274e57610894816129cf565b826001600160a01b0316826001600160a01b031614610894576108948282612aa8565b600061277c82610f50565b905061278a81600084612308565b612795600083611b20565b6001600160a01b03811660009081526003602052604081208054600192906127be908490613335565b909155505060008281526002602052604080822080546001600160a01b0319169055518391906001600160a01b038416907fddf252ad1be2c89b69c2b068fc378daa952ba7f163c4a11628f55a4df523b3ef908390a45050565b60608161283c5750506040805180820190915260018152600360fc1b602082015290565b8160005b81156128665780612850816133ca565b915061285f9050600a83613302565b9150612840565b60008167ffffffffffffffff81111561288f57634e487b7160e01b600052604160045260246000fd5b6040519080825280601f01601f1916602001820160405280156128b9576020820181803683370190505b5090505b8415611c97576128ce600183613335565b91506128db600a866133e5565b6128e69060306132ea565b60f81b81838151811061290957634e487b7160e01b600052603260045260246000fd5b60200101906001600160f81b031916908160001a90535061292b600a86613302565b94506128bd565b6000600161293f84610fc7565b6129499190613335565b60008381526007602052604090205490915080821461299c576001600160a01b03841660009081526006602090815260408083208584528252808320548484528184208190558352600790915290208190555b5060009182526007602090815260408084208490556001600160a01b039094168352600681528383209183525290812055565b6008546000906129e190600190613335565b60008381526009602052604081205460088054939450909284908110612a1757634e487b7160e01b600052603260045260246000fd5b906000526020600020015490508060088381548110612a4657634e487b7160e01b600052603260045260246000fd5b6000918252602080832090910192909255828152600990915260408082208490558582528120556008805480612a8c57634e487b7160e01b600052603160045260246000fd5b6001900381819060005260206000200160009055905550505050565b6000612ab383610fc7565b6001600160a01b039093166000908152600660209081526040808320868452825280832085905593825260079052919091209190915550565b828054612af89061338f565b90600052602060002090601f016020900481019282612b1a5760008555612b60565b82601f10612b3357805160ff1916838001178555612b60565b82800160010185558215612b60579182015b82811115612b60578251825591602001919060010190612b45565b50612b6c929150612c19565b5090565b828054828255906000526020600020908101928215612b60579160200282015b82811115612b6057825182546001600160a01b0319166001600160a01b03909116178255602090920191600190910190612b90565b60405180604001604052806002906020820280368337509192915050565b508054612bef9061338f565b6000825580601f10612bff575050565b601f016020900490600052602060002090810190610c0d91905b5b80821115612b6c5760008155600101612c1a565b600067ffffffffffffffff80841115612c4957612c49613425565b604051601f8501601f19908116603f01168101908282118183101715612c7157612c71613425565b81604052809350858152868686011115612c8a57600080fd5b858560208301376000602087830101525050509392505050565b80356001600160a01b0381168114612cbb57600080fd5b919050565b80358015158114612cbb57600080fd5b600082601f830112612ce0578081fd5b61256483833560208501612c2e565b600060208284031215612d00578081fd5b61256482612ca4565b60008060408385031215612d1b578081fd5b612d2483612ca4565b9150612d3260208401612ca4565b90509250929050565b600080600060608486031215612d4f578081fd5b612d5884612ca4565b9250612d6660208501612ca4565b9150604084013590509250925092565b60008060008060808587031215612d8b578081fd5b612d9485612ca4565b9350612da260208601612ca4565b925060408501359150606085013567ffffffffffffffff811115612dc4578182fd5b8501601f81018713612dd4578182fd5b612de387823560208401612c2e565b91505092959194509250565b60008060408385031215612e01578182fd5b612e0a83612ca4565b9150612d3260208401612cc0565b60008060408385031215612e2a578182fd5b612e3383612ca4565b946020939093013593505050565b60008060208385031215612e53578182fd5b823567ffffffffffffffff80821115612e6a578384fd5b818501915085601f830112612e7d578384fd5b813581811115612e8b578485fd5b8660208260051b8501011115612e9f578485fd5b60209290920196919550909350505050565b600060208284031215612ec2578081fd5b81356125648161343b565b600060208284031215612ede578081fd5b81516125648161343b565b600080600080600060a08688031215612f00578081fd5b853567ffffffffffffffff80821115612f17578283fd5b612f2389838a01612cd0565b96506020880135915080821115612f38578283fd5b50612f4588828901612cd0565b945050612f5460408701612cc0565b925060608601359150612f6960808701612cc0565b90509295509295909350565b600060208284031215612f86578081fd5b5035919050565b60008060408385031215612f9f578182fd5b82359150612d3260208401612cc0565b60008151808452612fc781602086016020860161334c565b601f01601f19169290920160200192915050565b60008351612fed81846020880161334c565b83519083019061300181836020880161334c565b01949350505050565b6001600160a01b038581168252841660208201526040810183905260806060820181905260009061303d90830184612faf565b9695505050505050565b6020808252825182820181905260009190848201906040850190845b818110156130885783516001600160a01b031683529284019291840191600101613063565b50909695505050505050565b60408101818360005b60028110156130c057815161ffff1683526020928301929091019060010161309d565b50505092915050565b6020815260006125646020830184612faf565b60006101208083526130f08184018d612faf565b90508281036020840152613104818c612faf565b9915156040840152505061ffff968716606082015294909516608085015291151560a084015260c083015260e08201529015156101009091015292915050565b60208082526023908201527f536f6369616c47726f75703a205265666572656e64756d20697320657870697260408201526265642160e81b606082015260800190565b60208082526032908201527f4552433732313a207472616e7366657220746f206e6f6e20455243373231526560408201527131b2b4bb32b91034b6b83632b6b2b73a32b960711b606082015260800190565b60208082526024908201527f536f6369616c47726f75703a205265666572656e64756d20697320636f6d706c6040820152636574652160e01b606082015260800190565b60208082526010908201526f14185d5cd8589b194e881c185d5cd95960821b604082015260600190565b6020808252818101527f4f776e61626c653a2063616c6c6572206973206e6f7420746865206f776e6572604082015260600190565b60208082526031908201527f4552433732313a207472616e736665722063616c6c6572206973206e6f74206f6040820152701ddb995c881b9bdc88185c1c1c9bdd9959607a1b606082015260800190565b600061ffff808316818516808303821115613001576130016133f9565b600082198211156132fd576132fd6133f9565b500190565b6000826133115761331161340f565b500490565b6000816000190483118215151615613330576133306133f9565b500290565b600082821015613347576133476133f9565b500390565b60005b8381101561336757818101518382015260200161334f565b838111156115315750506000910152565b600081613387576133876133f9565b506000190190565b600181811c908216806133a357607f821691505b602082108114156133c457634e487b7160e01b600052602260045260246000fd5b50919050565b60006000198214156133de576133de6133f9565b5060010190565b6000826133f4576133f461340f565b500690565b634e487b7160e01b600052601160045260246000fd5b634e487b7160e01b600052601260045260246000fd5b634e487b7160e01b600052604160045260246000fd5b6001600160e01b031981168114610c0d57600080fdfea2646970667358221220897476f88b24b0f15107c3eb88a69b0309498123135e4e558daed39827e90baa64736f6c63430008040033",
  "immutableReferences": {},
  "source": "// SPDX-License-Identifier: MIT\r\npragma solidity ^0.8.4;\r\n\r\nimport \"@openzeppelin/contracts/token/ERC721/ERC721.sol\";\r\nimport \"@openzeppelin/contracts/token/ERC721/extensions/ERC721Enumerable.sol\";\r\nimport \"@openzeppelin/contracts/token/ERC721/extensions/ERC721URIStorage.sol\";\r\nimport \"@openzeppelin/contracts/security/Pausable.sol\";\r\nimport \"@openzeppelin/contracts/access/Ownable.sol\";\r\nimport \"@openzeppelin/contracts/token/ERC721/extensions/ERC721Burnable.sol\";\r\nimport \"@openzeppelin/contracts/utils/Counters.sol\";\r\nimport \"./interfaces/ISocialToken.sol\";\r\n\r\ncontract SocialGroupNFT is ERC721, ERC721Enumerable, ERC721URIStorage, Pausable, Ownable, ERC721Burnable {\r\n    using Counters for Counters.Counter;\r\n\r\n    Counters.Counter private _tokenIdCounter;\r\n\r\n    //Create Interface\r\n    ISocialToken socialToken;\r\n\r\n    //Whitelist - address and max minting amount\r\n    mapping (address => bool) private _members;\r\n\r\n    //Votes Per User\r\n    mapping (address => uint256) public voteCount;\r\n\r\n    //Track Created Referendums In This Group\r\n    Referendum[] public referendums;\r\n\r\n    uint256 public activeReferendums;\r\n\r\n    //Track Voters\r\n    address[] public voters;\r\n    mapping(address => mapping( uint256 => bool)) public referendumsVoteStatus;\r\n\r\n    struct Referendum {\r\n        string title;\r\n        string description;\r\n        bool complete;\r\n        uint16 yesVotes;\r\n        uint16 noVotes;\r\n        bool isAnonymous;\r\n        uint256 startTime;\r\n        uint256 endTime;\r\n        bool isPrivate;\r\n        address[] refVoters;\r\n    }\r\n\r\n    modifier isActive(uint id) {\r\n        require(\r\n            referendums[id].complete == false, \r\n            \"SocialGroup: Referendum is complete!\"\r\n        );\r\n        require(\r\n            referendums[id].endTime + referendums[id].startTime > block.timestamp,\r\n            \"SocialGroup: Referendum is expired!\"\r\n        );\r\n        _;\r\n    }\r\n\r\n    constructor(\r\n        string memory _name,\r\n        string memory _symbol,\r\n        address _socialToken,\r\n        address newOwner\r\n    ) ERC721(_name, _symbol) {\r\n        socialToken = ISocialToken(_socialToken);\r\n        _transferOwnership(newOwner);\r\n    }\r\n\r\n    /* Voting Functions */\r\n\r\n    //Create Referendum\r\n    function createReferendum(\r\n        string memory title,\r\n        string memory description,\r\n        bool isAnonymous,\r\n        uint256 endTime, //days\r\n        bool isPrivate\r\n    ) public onlyOwner {\r\n        uint256 lastVote = (block.timestamp + endTime) * 86400;\r\n        Referendum memory newReferendum = Referendum({\r\n            title: title,\r\n            description: description,\r\n            complete: false,\r\n            yesVotes: 0,\r\n            noVotes: 0,\r\n            isAnonymous: isAnonymous,\r\n            startTime: block.timestamp,\r\n            endTime: lastVote,\r\n            isPrivate: isPrivate,\r\n            refVoters: new address[](0)\r\n        });\r\n        \r\n        referendums.push(newReferendum);\r\n        activeReferendums++;\r\n        \r\n        for(uint256 i = 0; i < voters.length; i++){\r\n            address current = voters[i];\r\n            socialToken.mint(current, 1);\r\n        }\r\n    }\r\n\r\n    function voteOnReferendum(\r\n        uint id,\r\n        bool voteStatus\r\n    ) public isActive(id) whenNotPaused {\r\n        require(_members[msg.sender], \"User is not part of this Social Group\");\r\n        require(referendumsVoteStatus[msg.sender][id] == false);\r\n\r\n        Referendum storage referendum = referendums[id];\r\n        \r\n        if (referendum.isPrivate == true){\r\n            require(isHolder(), \"You Must Mint Before You Can Vote On This Referendum\"); \r\n        }\r\n        \r\n        if (voteStatus == true) {\r\n            referendum.yesVotes+=1;\r\n        }else {\r\n            referendum.noVotes+=1;\r\n        }\r\n\r\n        referendumsVoteStatus[msg.sender][id] = true;\r\n        voters.push(msg.sender);\r\n        referendum.refVoters.push(msg.sender);\r\n        voteCount[msg.sender]+=1;\r\n        socialToken.burn(msg.sender, 1);\r\n    }\r\n\r\n    function endReferendum(uint id) external onlyOwner isActive(id) {\r\n        referendums[id].complete = true;\r\n        activeReferendums--;\r\n    }\r\n\r\n    /*\r\n    * Mint NFT for Access to Private Proposals\r\n    */\r\n\r\n    function mint() external {\r\n        require(balanceOf(msg.sender) < 1);\r\n\r\n        uint256 tokenId = _tokenIdCounter.current();\r\n        _tokenIdCounter.increment();\r\n        _safeMint(msg.sender, tokenId);\r\n        _members[msg.sender] = true;\r\n        socialToken.mint(msg.sender, 1);\r\n    }\r\n    \r\n    /*\r\n    * Whitelist Gives Access To Public Proposals Created\r\n    */\r\n\r\n    function whitelist(address receiver) external onlyOwner {\r\n        _members[receiver] = true;\r\n        socialToken.mint(receiver, 1);\r\n    }\r\n  \r\n    //Batch Address Whitelist\r\n    function whitelistBatch(address[] calldata addresses) external onlyOwner {\r\n        for (uint256 i = 0; i < addresses.length; i++){\r\n            _members[addresses[i]] = true;\r\n        }\r\n    }\r\n\r\n    function resetVoteCount() external onlyOwner {\r\n        address[] memory votersList = getVoters();\r\n        for (uint256 i = 0; i < votersList.length; i++){\r\n            voteCount[votersList[i]] = 0;\r\n        }\r\n\r\n    }\r\n\r\n    /* View / Pure Functions */\r\n\r\n    function getVoters() public view returns (address[] memory){\r\n        return voters;\r\n    }\r\n\r\n    function getRefVoters(uint256 refId) external view returns (address[] memory){\r\n        require(referendums[refId].isAnonymous == false, \"This Referendum Is Anonymous\");\r\n        return referendums[refId].refVoters;\r\n    }\r\n\r\n    function getVoteCount(address user) external view returns(uint256) {\r\n        return voteCount[user];\r\n    }\r\n\r\n    function isHolder() internal view returns (bool) {\r\n        require(balanceOf(msg.sender) > 0, \"SocialGroupNFT: caller is not authorised\");\r\n        return true;\r\n    }\r\n\r\n    function viewVotes(uint id) external view returns (uint16[2] memory) {\r\n        uint16[2] memory votes = [referendums[id].yesVotes, referendums[id].noVotes];  \r\n        return votes;\r\n    } \r\n\r\n    /* State Functions */\r\n    \r\n    function pause() public onlyOwner {\r\n        _pause();\r\n    }\r\n\r\n    function unpause() public onlyOwner {\r\n        _unpause();\r\n    }\r\n\r\n    /* Inherited Functions */\r\n\r\n    function _beforeTokenTransfer(address from, address to, uint256 tokenId)\r\n        internal\r\n        whenNotPaused\r\n        override(ERC721, ERC721Enumerable)\r\n    {\r\n        super._beforeTokenTransfer(from, to, tokenId);\r\n    }\r\n\r\n    function _burn(uint256 tokenId) internal override(ERC721, ERC721URIStorage) {\r\n        super._burn(tokenId);\r\n    }\r\n\r\n    function tokenURI(uint256 tokenId)\r\n        public\r\n        view\r\n        override(ERC721, ERC721URIStorage)\r\n        returns (string memory)\r\n    {\r\n        return super.tokenURI(tokenId);\r\n    }\r\n\r\n    function supportsInterface(bytes4 interfaceId)\r\n        public\r\n        view\r\n        override(ERC721, ERC721Enumerable)\r\n        returns (bool)\r\n    {\r\n        return super.supportsInterface(interfaceId);\r\n    }\r\n}",
  "sourcePath": "C:\\Users\\nogazi\\univote\\contracts\\SocialGroupNFT.sol",
  "compiler": {
    "name": "solc",
    "version": "0.8.4+commit.c7e474f2.Emscripten.clang"
  },
  "schemaVersion": "3.4.7",
  "updatedAt": "2022-08-31T11:45:52.950Z",
  "devdoc": {
    "kind": "dev",
    "methods": {
      "approve(address,uint256)": {
        "details": "See {IERC721-approve}."
      },
      "balanceOf(address)": {
        "details": "See {IERC721-balanceOf}."
      },
      "burn(uint256)": {
        "details": "Burns `tokenId`. See {ERC721-_burn}. Requirements: - The caller must own `tokenId` or be an approved operator."
      },
      "getApproved(uint256)": {
        "details": "See {IERC721-getApproved}."
      },
      "isApprovedForAll(address,address)": {
        "details": "See {IERC721-isApprovedForAll}."
      },
      "name()": {
        "details": "See {IERC721Metadata-name}."
      },
      "owner()": {
        "details": "Returns the address of the current owner."
      },
      "ownerOf(uint256)": {
        "details": "See {IERC721-ownerOf}."
      },
      "paused()": {
        "details": "Returns true if the contract is paused, and false otherwise."
      },
      "renounceOwnership()": {
        "details": "Leaves the contract without owner. It will not be possible to call `onlyOwner` functions anymore. Can only be called by the current owner. NOTE: Renouncing ownership will leave the contract without an owner, thereby removing any functionality that is only available to the owner."
      },
      "safeTransferFrom(address,address,uint256)": {
        "details": "See {IERC721-safeTransferFrom}."
      },
      "safeTransferFrom(address,address,uint256,bytes)": {
        "details": "See {IERC721-safeTransferFrom}."
      },
      "setApprovalForAll(address,bool)": {
        "details": "See {IERC721-setApprovalForAll}."
      },
      "symbol()": {
        "details": "See {IERC721Metadata-symbol}."
      },
      "tokenByIndex(uint256)": {
        "details": "See {IERC721Enumerable-tokenByIndex}."
      },
      "tokenOfOwnerByIndex(address,uint256)": {
        "details": "See {IERC721Enumerable-tokenOfOwnerByIndex}."
      },
      "totalSupply()": {
        "details": "See {IERC721Enumerable-totalSupply}."
      },
      "transferFrom(address,address,uint256)": {
        "details": "See {IERC721-transferFrom}."
      },
      "transferOwnership(address)": {
        "details": "Transfers ownership of the contract to a new account (`newOwner`). Can only be called by the current owner."
      }
    },
    "version": 1
  },
  "userdoc": {
    "kind": "user",
    "methods": {},
    "version": 1
  }
}