{
  "contractName": "SocialGroupNFT",
  "abi": [
    {
      "inputs": [
        {
          "internalType": "string",
          "name": "_name",
          "type": "string"
        },
        {
          "internalType": "string",
          "name": "_symbol",
          "type": "string"
        },
        {
          "internalType": "address",
          "name": "_socialToken",
          "type": "address"
        },
        {
          "internalType": "address",
          "name": "newOwner",
          "type": "address"
        }
      ],
      "stateMutability": "nonpayable",
      "type": "constructor"
    },
    {
      "anonymous": false,
      "inputs": [
        {
          "indexed": true,
          "internalType": "address",
          "name": "owner",
          "type": "address"
        },
        {
          "indexed": true,
          "internalType": "address",
          "name": "approved",
          "type": "address"
        },
        {
          "indexed": true,
          "internalType": "uint256",
          "name": "tokenId",
          "type": "uint256"
        }
      ],
      "name": "Approval",
      "type": "event"
    },
    {
      "anonymous": false,
      "inputs": [
        {
          "indexed": true,
          "internalType": "address",
          "name": "owner",
          "type": "address"
        },
        {
          "indexed": true,
          "internalType": "address",
          "name": "operator",
          "type": "address"
        },
        {
          "indexed": false,
          "internalType": "bool",
          "name": "approved",
          "type": "bool"
        }
      ],
      "name": "ApprovalForAll",
      "type": "event"
    },
    {
      "anonymous": false,
      "inputs": [
        {
          "indexed": true,
          "internalType": "address",
          "name": "previousOwner",
          "type": "address"
        },
        {
          "indexed": true,
          "internalType": "address",
          "name": "newOwner",
          "type": "address"
        }
      ],
      "name": "OwnershipTransferred",
      "type": "event"
    },
    {
      "anonymous": false,
      "inputs": [
        {
          "indexed": false,
          "internalType": "address",
          "name": "account",
          "type": "address"
        }
      ],
      "name": "Paused",
      "type": "event"
    },
    {
      "anonymous": false,
      "inputs": [
        {
          "indexed": true,
          "internalType": "address",
          "name": "from",
          "type": "address"
        },
        {
          "indexed": true,
          "internalType": "address",
          "name": "to",
          "type": "address"
        },
        {
          "indexed": true,
          "internalType": "uint256",
          "name": "tokenId",
          "type": "uint256"
        }
      ],
      "name": "Transfer",
      "type": "event"
    },
    {
      "anonymous": false,
      "inputs": [
        {
          "indexed": false,
          "internalType": "address",
          "name": "account",
          "type": "address"
        }
      ],
      "name": "Unpaused",
      "type": "event"
    },
    {
      "inputs": [],
      "name": "activeReferendums",
      "outputs": [
        {
          "internalType": "uint256",
          "name": "",
          "type": "uint256"
        }
      ],
      "stateMutability": "view",
      "type": "function"
    },
    {
      "inputs": [
        {
          "internalType": "address",
          "name": "to",
          "type": "address"
        },
        {
          "internalType": "uint256",
          "name": "tokenId",
          "type": "uint256"
        }
      ],
      "name": "approve",
      "outputs": [],
      "stateMutability": "nonpayable",
      "type": "function"
    },
    {
      "inputs": [
        {
          "internalType": "address",
          "name": "owner",
          "type": "address"
        }
      ],
      "name": "balanceOf",
      "outputs": [
        {
          "internalType": "uint256",
          "name": "",
          "type": "uint256"
        }
      ],
      "stateMutability": "view",
      "type": "function"
    },
    {
      "inputs": [
        {
          "internalType": "uint256",
          "name": "tokenId",
          "type": "uint256"
        }
      ],
      "name": "burn",
      "outputs": [],
      "stateMutability": "nonpayable",
      "type": "function"
    },
    {
      "inputs": [
        {
          "internalType": "uint256",
          "name": "tokenId",
          "type": "uint256"
        }
      ],
      "name": "getApproved",
      "outputs": [
        {
          "internalType": "address",
          "name": "",
          "type": "address"
        }
      ],
      "stateMutability": "view",
      "type": "function"
    },
    {
      "inputs": [
        {
          "internalType": "address",
          "name": "owner",
          "type": "address"
        },
        {
          "internalType": "address",
          "name": "operator",
          "type": "address"
        }
      ],
      "name": "isApprovedForAll",
      "outputs": [
        {
          "internalType": "bool",
          "name": "",
          "type": "bool"
        }
      ],
      "stateMutability": "view",
      "type": "function"
    },
    {
      "inputs": [],
      "name": "name",
      "outputs": [
        {
          "internalType": "string",
          "name": "",
          "type": "string"
        }
      ],
      "stateMutability": "view",
      "type": "function"
    },
    {
      "inputs": [],
      "name": "owner",
      "outputs": [
        {
          "internalType": "address",
          "name": "",
          "type": "address"
        }
      ],
      "stateMutability": "view",
      "type": "function"
    },
    {
      "inputs": [
        {
          "internalType": "uint256",
          "name": "tokenId",
          "type": "uint256"
        }
      ],
      "name": "ownerOf",
      "outputs": [
        {
          "internalType": "address",
          "name": "",
          "type": "address"
        }
      ],
      "stateMutability": "view",
      "type": "function"
    },
    {
      "inputs": [],
      "name": "paused",
      "outputs": [
        {
          "internalType": "bool",
          "name": "",
          "type": "bool"
        }
      ],
      "stateMutability": "view",
      "type": "function"
    },
    {
      "inputs": [
        {
          "internalType": "uint256",
          "name": "",
          "type": "uint256"
        }
      ],
      "name": "referendums",
      "outputs": [
        {
          "internalType": "string",
          "name": "title",
          "type": "string"
        },
        {
          "internalType": "string",
          "name": "description",
          "type": "string"
        },
        {
          "internalType": "bool",
          "name": "complete",
          "type": "bool"
        },
        {
          "internalType": "uint16",
          "name": "yesVotes",
          "type": "uint16"
        },
        {
          "internalType": "uint16",
          "name": "noVotes",
          "type": "uint16"
        },
        {
          "internalType": "bool",
          "name": "isAnonymous",
          "type": "bool"
        },
        {
          "internalType": "uint256",
          "name": "startTime",
          "type": "uint256"
        },
        {
          "internalType": "uint256",
          "name": "endTime",
          "type": "uint256"
        },
        {
          "internalType": "bool",
          "name": "isPrivate",
          "type": "bool"
        },
        {
          "internalType": "address",
          "name": "origin",
          "type": "address"
        }
      ],
      "stateMutability": "view",
      "type": "function"
    },
    {
      "inputs": [
        {
          "internalType": "address",
          "name": "",
          "type": "address"
        },
        {
          "internalType": "uint256",
          "name": "",
          "type": "uint256"
        }
      ],
      "name": "referendumsVoteStatus",
      "outputs": [
        {
          "internalType": "bool",
          "name": "",
          "type": "bool"
        }
      ],
      "stateMutability": "view",
      "type": "function"
    },
    {
      "inputs": [],
      "name": "renounceOwnership",
      "outputs": [],
      "stateMutability": "nonpayable",
      "type": "function"
    },
    {
      "inputs": [
        {
          "internalType": "address",
          "name": "from",
          "type": "address"
        },
        {
          "internalType": "address",
          "name": "to",
          "type": "address"
        },
        {
          "internalType": "uint256",
          "name": "tokenId",
          "type": "uint256"
        }
      ],
      "name": "safeTransferFrom",
      "outputs": [],
      "stateMutability": "nonpayable",
      "type": "function"
    },
    {
      "inputs": [
        {
          "internalType": "address",
          "name": "from",
          "type": "address"
        },
        {
          "internalType": "address",
          "name": "to",
          "type": "address"
        },
        {
          "internalType": "uint256",
          "name": "tokenId",
          "type": "uint256"
        },
        {
          "internalType": "bytes",
          "name": "_data",
          "type": "bytes"
        }
      ],
      "name": "safeTransferFrom",
      "outputs": [],
      "stateMutability": "nonpayable",
      "type": "function"
    },
    {
      "inputs": [
        {
          "internalType": "address",
          "name": "operator",
          "type": "address"
        },
        {
          "internalType": "bool",
          "name": "approved",
          "type": "bool"
        }
      ],
      "name": "setApprovalForAll",
      "outputs": [],
      "stateMutability": "nonpayable",
      "type": "function"
    },
    {
      "inputs": [],
      "name": "symbol",
      "outputs": [
        {
          "internalType": "string",
          "name": "",
          "type": "string"
        }
      ],
      "stateMutability": "view",
      "type": "function"
    },
    {
      "inputs": [
        {
          "internalType": "uint256",
          "name": "index",
          "type": "uint256"
        }
      ],
      "name": "tokenByIndex",
      "outputs": [
        {
          "internalType": "uint256",
          "name": "",
          "type": "uint256"
        }
      ],
      "stateMutability": "view",
      "type": "function"
    },
    {
      "inputs": [
        {
          "internalType": "address",
          "name": "owner",
          "type": "address"
        },
        {
          "internalType": "uint256",
          "name": "index",
          "type": "uint256"
        }
      ],
      "name": "tokenOfOwnerByIndex",
      "outputs": [
        {
          "internalType": "uint256",
          "name": "",
          "type": "uint256"
        }
      ],
      "stateMutability": "view",
      "type": "function"
    },
    {
      "inputs": [],
      "name": "totalSupply",
      "outputs": [
        {
          "internalType": "uint256",
          "name": "",
          "type": "uint256"
        }
      ],
      "stateMutability": "view",
      "type": "function"
    },
    {
      "inputs": [
        {
          "internalType": "address",
          "name": "from",
          "type": "address"
        },
        {
          "internalType": "address",
          "name": "to",
          "type": "address"
        },
        {
          "internalType": "uint256",
          "name": "tokenId",
          "type": "uint256"
        }
      ],
      "name": "transferFrom",
      "outputs": [],
      "stateMutability": "nonpayable",
      "type": "function"
    },
    {
      "inputs": [
        {
          "internalType": "address",
          "name": "newOwner",
          "type": "address"
        }
      ],
      "name": "transferOwnership",
      "outputs": [],
      "stateMutability": "nonpayable",
      "type": "function"
    },
    {
      "inputs": [
        {
          "internalType": "address",
          "name": "",
          "type": "address"
        }
      ],
      "name": "voteCount",
      "outputs": [
        {
          "internalType": "uint256",
          "name": "",
          "type": "uint256"
        }
      ],
      "stateMutability": "view",
      "type": "function"
    },
    {
      "inputs": [
        {
          "internalType": "uint256",
          "name": "",
          "type": "uint256"
        }
      ],
      "name": "voters",
      "outputs": [
        {
          "internalType": "address",
          "name": "",
          "type": "address"
        }
      ],
      "stateMutability": "view",
      "type": "function"
    },
    {
      "inputs": [
        {
          "internalType": "string",
          "name": "title",
          "type": "string"
        },
        {
          "internalType": "string",
          "name": "description",
          "type": "string"
        },
        {
          "internalType": "bool",
          "name": "isAnonymous",
          "type": "bool"
        },
        {
          "internalType": "uint256",
          "name": "endTime",
          "type": "uint256"
        },
        {
          "internalType": "bool",
          "name": "isPrivate",
          "type": "bool"
        }
      ],
      "name": "createReferendum",
      "outputs": [],
      "stateMutability": "nonpayable",
      "type": "function"
    },
    {
      "inputs": [
        {
          "internalType": "uint256",
          "name": "id",
          "type": "uint256"
        },
        {
          "internalType": "bool",
          "name": "voteStatus",
          "type": "bool"
        }
      ],
      "name": "voteOnReferendum",
      "outputs": [],
      "stateMutability": "nonpayable",
      "type": "function"
    },
    {
      "inputs": [
        {
          "internalType": "uint256",
          "name": "id",
          "type": "uint256"
        }
      ],
      "name": "endReferendum",
      "outputs": [],
      "stateMutability": "nonpayable",
      "type": "function"
    },
    {
      "inputs": [],
      "name": "mint",
      "outputs": [],
      "stateMutability": "nonpayable",
      "type": "function"
    },
    {
      "inputs": [
        {
          "internalType": "address",
          "name": "receiver",
          "type": "address"
        }
      ],
      "name": "whitelist",
      "outputs": [],
      "stateMutability": "nonpayable",
      "type": "function"
    },
    {
      "inputs": [
        {
          "internalType": "address[]",
          "name": "addresses",
          "type": "address[]"
        }
      ],
      "name": "whitelistBatch",
      "outputs": [],
      "stateMutability": "nonpayable",
      "type": "function"
    },
    {
      "inputs": [],
      "name": "resetVoteCount",
      "outputs": [],
      "stateMutability": "nonpayable",
      "type": "function"
    },
    {
      "inputs": [],
      "name": "getVoters",
      "outputs": [
        {
          "internalType": "address[]",
          "name": "",
          "type": "address[]"
        }
      ],
      "stateMutability": "view",
      "type": "function"
    },
    {
      "inputs": [
        {
          "internalType": "uint256",
          "name": "refId",
          "type": "uint256"
        }
      ],
      "name": "getRefVoters",
      "outputs": [
        {
          "internalType": "address[]",
          "name": "",
          "type": "address[]"
        }
      ],
      "stateMutability": "view",
      "type": "function"
    },
    {
      "inputs": [
        {
          "internalType": "address",
          "name": "user",
          "type": "address"
        }
      ],
      "name": "getVoteCount",
      "outputs": [
        {
          "internalType": "uint256",
          "name": "",
          "type": "uint256"
        }
      ],
      "stateMutability": "view",
      "type": "function"
    },
    {
      "inputs": [
        {
          "internalType": "uint256",
          "name": "id",
          "type": "uint256"
        }
      ],
      "name": "viewVotes",
      "outputs": [
        {
          "internalType": "uint16[2]",
          "name": "",
          "type": "uint16[2]"
        }
      ],
      "stateMutability": "view",
      "type": "function"
    },
    {
      "inputs": [],
      "name": "pause",
      "outputs": [],
      "stateMutability": "nonpayable",
      "type": "function"
    },
    {
      "inputs": [],
      "name": "unpause",
      "outputs": [],
      "stateMutability": "nonpayable",
      "type": "function"
    },
    {
      "inputs": [
        {
          "internalType": "uint256",
          "name": "tokenId",
          "type": "uint256"
        }
      ],
      "name": "tokenURI",
      "outputs": [
        {
          "internalType": "string",
          "name": "",
          "type": "string"
        }
      ],
      "stateMutability": "view",
      "type": "function"
    },
    {
      "inputs": [
        {
          "internalType": "bytes4",
          "name": "interfaceId",
          "type": "bytes4"
        }
      ],
      "name": "supportsInterface",
      "outputs": [
        {
          "internalType": "bool",
          "name": "",
          "type": "bool"
        }
      ],
      "stateMutability": "view",
      "type": "function"
    }
  ],
  "bytecode": "0x60806040523480156200001157600080fd5b50604051620038293803806200382983398101604081905262000034916200027b565b8351849084906200004d90600090602085019062000105565b5080516200006390600190602084019062000105565b5050600b805460ff19169055506200007b33620000ab565b600d80546001600160a01b0319166001600160a01b038416179055620000a181620000ab565b505050506200035a565b600b80546001600160a01b03838116610100818102610100600160a81b031985161790945560405193909204169182907f8be0079c531659141344cd1fd0a4f28419497f9722a3daafe3b4186f6b6457e090600090a35050565b828054620001139062000307565b90600052602060002090601f01602090048101928262000137576000855562000182565b82601f106200015257805160ff191683800117855562000182565b8280016001018555821562000182579182015b828111156200018257825182559160200191906001019062000165565b506200019092915062000194565b5090565b5b8082111562000190576000815560010162000195565b80516001600160a01b0381168114620001c357600080fd5b919050565b600082601f830112620001d9578081fd5b81516001600160401b0380821115620001f657620001f662000344565b604051601f8301601f19908116603f0116810190828211818310171562000221576200022162000344565b816040528381526020925086838588010111156200023d578485fd5b8491505b8382101562000260578582018301518183018401529082019062000241565b838211156200027157848385830101525b9695505050505050565b6000806000806080858703121562000291578384fd5b84516001600160401b0380821115620002a8578586fd5b620002b688838901620001c8565b95506020870151915080821115620002cc578485fd5b50620002db87828801620001c8565b935050620002ec60408601620001ab565b9150620002fc60608601620001ab565b905092959194509250565b600181811c908216806200031c57607f821691505b602082108114156200033e57634e487b7160e01b600052602260045260246000fd5b50919050565b634e487b7160e01b600052604160045260246000fd5b6134bf806200036a6000396000f3fe608060405234801561001057600080fd5b506004361061023d5760003560e01c80636352211e1161013b578063b2636a50116100b8578063e652f4cc1161007c578063e652f4cc146104f4578063e985e9c51461051d578063eaa5352314610559578063eaa7307c1461056c578063f2fde38b1461057f57600080fd5b8063b2636a501461048a578063b88d4fde146104b3578063c87b56dd146104c6578063cdd72253146104d9578063da58c7d9146104e157600080fd5b806395d89b41116100ff57806395d89b41146104295780639b19251a14610431578063a002f6ed14610444578063a22cb46514610464578063aecfe0651461047757600080fd5b80636352211e146103dd57806370a08231146103f0578063715018a6146104035780638456cb591461040b5780638da5cb5b1461041357600080fd5b80632f745c59116101c957806342966c681161018d57806342966c68146103795780634f6ccce71461038c57806354ac809d1461039f5780635c975abb146103b25780635e3cd7bc146103bd57600080fd5b80632f745c591461031457806334ea294e146103275780633757afc2146103555780633f4ba83a1461035e57806342842e0e1461036657600080fd5b8063095ea7b311610210578063095ea7b3146102b45780631249c58b146102c757806318160ddd146102cf57806323b872dd146102e157806326b90a9b146102f457600080fd5b806301ffc9a714610242578063039d60191461026a57806306fdde0314610274578063081812fc14610289575b600080fd5b610255610250366004612ed6565b610592565b60405190151581526020015b60405180910390f35b6102726105a3565b005b61027c61065d565b60405161026191906130ee565b61029c610297366004612f9a565b6106ef565b6040516001600160a01b039091168152602001610261565b6102726102c2366004612e3d565b610784565b61027261089a565b6008545b604051908152602001610261565b6102726102ef366004612d60565b610958565b610307610302366004612f9a565b61098a565b604051610261919061306c565b6102d3610322366004612e3d565b610aac565b610255610335366004612e3d565b601360209081526000928352604080842090915290825290205460ff1681565b6102d360115481565b610272610b42565b610272610374366004612d60565b610b7c565b610272610387366004612f9a565b610b97565b6102d361039a366004612f9a565b610c11565b6102726103ad366004612f0e565b610cb2565b600b5460ff16610255565b6102d36103cb366004612d14565b600f6020526000908152604090205481565b61029c6103eb366004612f9a565b610f65565b6102d36103fe366004612d14565b610fdc565b610272611063565b61027261109d565b600b5461010090046001600160a01b031661029c565b61027c6110d5565b61027261043f366004612d14565b6110e4565b610457610452366004612f9a565b61116b565b60405161026191906130b9565b610272610472366004612e14565b611217565b610272610485366004612f9a565b611222565b61049d610498366004612f9a565b611393565b6040516102619a99989796959493929190613101565b6102726104c1366004612d9b565b611524565b61027c6104d4366004612f9a565b61155c565b610307611567565b61029c6104ef366004612f9a565b6115c8565b6102d3610502366004612d14565b6001600160a01b03166000908152600f602052604090205490565b61025561052b366004612d2e565b6001600160a01b03918216600090815260056020908152604080832093909416825291909152205460ff1690565b610272610567366004612e66565b6115f2565b61027261057a366004612fb2565b6116a2565b61027261058d366004612d14565b611a82565b600061059d82611b20565b92915050565b600b546001600160a01b036101009091041633146105dc5760405162461bcd60e51b81526004016105d39061327f565b60405180910390fd5b60006105e6611567565b905060005b8151811015610659576000600f600084848151811061061a57634e487b7160e01b600052603260045260246000fd5b60200260200101516001600160a01b03166001600160a01b0316815260200190815260200160002081905550808061065190613402565b9150506105eb565b5050565b60606000805461066c906133c7565b80601f0160208091040260200160405190810160405280929190818152602001828054610698906133c7565b80156106e55780601f106106ba576101008083540402835291602001916106e5565b820191906000526020600020905b8154815290600101906020018083116106c857829003601f168201915b5050505050905090565b6000818152600260205260408120546001600160a01b03166107685760405162461bcd60e51b815260206004820152602c60248201527f4552433732313a20617070726f76656420717565727920666f72206e6f6e657860448201526b34b9ba32b73a103a37b5b2b760a11b60648201526084016105d3565b506000908152600460205260409020546001600160a01b031690565b600061078f82610f65565b9050806001600160a01b0316836001600160a01b031614156107fd5760405162461bcd60e51b815260206004820152602160248201527f4552433732313a20617070726f76616c20746f2063757272656e74206f776e656044820152603960f91b60648201526084016105d3565b336001600160a01b03821614806108195750610819813361052b565b61088b5760405162461bcd60e51b815260206004820152603860248201527f4552433732313a20617070726f76652063616c6c6572206973206e6f74206f7760448201527f6e6572206e6f7220617070726f76656420666f7220616c6c000000000000000060648201526084016105d3565b6108958383611b45565b505050565b60016108a533610fdc565b106108af57600080fd5b60006108ba600c5490565b90506108ca600c80546001019055565b6108d43382611bb3565b336000818152600e602052604090819020805460ff19166001908117909155600d5491516340c10f1960e01b8152600481019390935260248301526001600160a01b0316906340c10f19906044015b600060405180830381600087803b15801561093d57600080fd5b505af1158015610951573d6000803e3d6000fd5b5050505050565b610963335b82611bcd565b61097f5760405162461bcd60e51b81526004016105d3906132b4565b610895838383611cc4565b6060601082815481106109ad57634e487b7160e01b600052603260045260246000fd5b600091825260209091206008909102016002015465010000000000900460ff1615610a1a5760405162461bcd60e51b815260206004820152601c60248201527f54686973205265666572656e64756d20497320416e6f6e796d6f75730000000060448201526064016105d3565b60108281548110610a3b57634e487b7160e01b600052603260045260246000fd5b9060005260206000209060080201600601805480602002602001604051908101604052809291908181526020018280548015610aa057602002820191906000526020600020905b81546001600160a01b03168152600190910190602001808311610a82575b50505050509050919050565b6000610ab783610fdc565b8210610b195760405162461bcd60e51b815260206004820152602b60248201527f455243373231456e756d657261626c653a206f776e657220696e646578206f7560448201526a74206f6620626f756e647360a81b60648201526084016105d3565b506001600160a01b03919091166000908152600660209081526040808320938352929052205490565b600b546001600160a01b03610100909104163314610b725760405162461bcd60e51b81526004016105d39061327f565b610b7a611e6b565b565b61089583838360405180602001604052806000815250611524565b610ba03361095d565b610c055760405162461bcd60e51b815260206004820152603060248201527f4552433732314275726e61626c653a2063616c6c6572206973206e6f74206f7760448201526f1b995c881b9bdc88185c1c1c9bdd995960821b60648201526084016105d3565b610c0e81611efe565b50565b6000610c1c60085490565b8210610c7f5760405162461bcd60e51b815260206004820152602c60248201527f455243373231456e756d657261626c653a20676c6f62616c20696e646578206f60448201526b7574206f6620626f756e647360a01b60648201526084016105d3565b60088281548110610ca057634e487b7160e01b600052603260045260246000fd5b90600052602060002001549050919050565b6000610cbd33610fdc565b11610cc757600080fd5b6000610cd38342613322565b610ce0906201518061334e565b604080516101608101825288815260208082018990526000828401819052606083018190526080830181905288151560a08401524260c084015260e0830185905286151561010084015283518181528083019094526101208301939093523061014083015260108054600181018255935281518051949550919384936008027f1b6847dc741a1b0cd08d278845f9d819d87b734759afb55fe2de5cb82a9ae6720192610d90928492910190612b11565b506020828101518051610da99260018501920190612b11565b5060408201516002820180546060850151608086015160a08701511515650100000000000265ff00000000001961ffff9283166301000000021665ffffff000000199290931661010090810262ffff00199715159790971662ffffff199095169490941795909517161792909217905560c0830151600383015560e0830151600483015582015160058201805491151560ff19929092169190911790556101208201518051610e62916006840191602090910190612b95565b506101409190910151600790910180546001600160a01b0319166001600160a01b0390921691909117905560118054906000610e9d83613402565b919050555060005b601254811015610f5b57600060128281548110610ed257634e487b7160e01b600052603260045260246000fd5b600091825260209091200154600d546040516340c10f1960e01b81526001600160a01b03928316600482018190526001602483015293509116906340c10f1990604401600060405180830381600087803b158015610f2f57600080fd5b505af1158015610f43573d6000803e3d6000fd5b50505050508080610f5390613402565b915050610ea5565b5050505050505050565b6000818152600260205260408120546001600160a01b03168061059d5760405162461bcd60e51b815260206004820152602960248201527f4552433732313a206f776e657220717565727920666f72206e6f6e657869737460448201526832b73a103a37b5b2b760b91b60648201526084016105d3565b60006001600160a01b0382166110475760405162461bcd60e51b815260206004820152602a60248201527f4552433732313a2062616c616e636520717565727920666f7220746865207a65604482015269726f206164647265737360b01b60648201526084016105d3565b506001600160a01b031660009081526003602052604090205490565b600b546001600160a01b036101009091041633146110935760405162461bcd60e51b81526004016105d39061327f565b610b7a6000611f07565b600b546001600160a01b036101009091041633146110cd5760405162461bcd60e51b81526004016105d39061327f565b610b7a611f61565b60606001805461066c906133c7565b600b546001600160a01b036101009091041633146111145760405162461bcd60e51b81526004016105d39061327f565b6001600160a01b038181166000818152600e602052604090819020805460ff19166001908117909155600d5491516340c10f1960e01b815260048101939093526024830152909116906340c10f1990604401610923565b611173612bea565b60006040518060400160405280601085815481106111a157634e487b7160e01b600052603260045260246000fd5b906000526020600020906008020160020160019054906101000a900461ffff1661ffff1661ffff168152602001601085815481106111ef57634e487b7160e01b600052603260045260246000fd5b60009182526020909120600890910201600201546301000000900461ffff1690529392505050565b610659338383611fb9565b600b546001600160a01b036101009091041633146112525760405162461bcd60e51b81526004016105d39061327f565b806010818154811061127457634e487b7160e01b600052603260045260246000fd5b600091825260209091206002600890920201015460ff16156112a85760405162461bcd60e51b81526004016105d390613211565b42601082815481106112ca57634e487b7160e01b600052603260045260246000fd5b906000526020600020906008020160030154601083815481106112fd57634e487b7160e01b600052603260045260246000fd5b9060005260206000209060080201600401546113199190613322565b116113365760405162461bcd60e51b81526004016105d39061317c565b60016010838154811061135957634e487b7160e01b600052603260045260246000fd5b60009182526020822060089190910201600201805460ff191692151592909217909155601180549161138a836133b0565b91905055505050565b601081815481106113a357600080fd5b90600052602060002090600802016000915090508060000180546113c6906133c7565b80601f01602080910402602001604051908101604052809291908181526020018280546113f2906133c7565b801561143f5780601f106114145761010080835404028352916020019161143f565b820191906000526020600020905b81548152906001019060200180831161142257829003601f168201915b505050505090806001018054611454906133c7565b80601f0160208091040260200160405190810160405280929190818152602001828054611480906133c7565b80156114cd5780601f106114a2576101008083540402835291602001916114cd565b820191906000526020600020905b8154815290600101906020018083116114b057829003601f168201915b5050506002840154600385015460048601546005870154600790970154959660ff8085169761ffff61010087048116985063010000008704169650650100000000009095048116949116906001600160a01b03168a565b61152e3383611bcd565b61154a5760405162461bcd60e51b81526004016105d3906132b4565b61155684848484612088565b50505050565b606061059d826120bb565b606060128054806020026020016040519081016040528092919081815260200182805480156106e557602002820191906000526020600020905b81546001600160a01b031681526001909101906020018083116115a1575050505050905090565b601281815481106115d857600080fd5b6000918252602090912001546001600160a01b0316905081565b600b546001600160a01b036101009091041633146116225760405162461bcd60e51b81526004016105d39061327f565b60005b81811015610895576001600e600085858581811061165357634e487b7160e01b600052603260045260246000fd5b90506020020160208101906116689190612d14565b6001600160a01b031681526020810191909152604001600020805460ff19169115159190911790558061169a81613402565b915050611625565b81601081815481106116c457634e487b7160e01b600052603260045260246000fd5b600091825260209091206002600890920201015460ff16156116f85760405162461bcd60e51b81526004016105d390613211565b426010828154811061171a57634e487b7160e01b600052603260045260246000fd5b9060005260206000209060080201600301546010838154811061174d57634e487b7160e01b600052603260045260246000fd5b9060005260206000209060080201600401546117699190613322565b116117865760405162461bcd60e51b81526004016105d39061317c565b600b5460ff16156117a95760405162461bcd60e51b81526004016105d390613255565b336000908152600e602052604090205460ff166118165760405162461bcd60e51b815260206004820152602560248201527f55736572206973206e6f742070617274206f66207468697320536f6369616c20604482015264047726f75760dc1b60648201526084016105d3565b33600090815260136020908152604080832086845290915290205460ff161561183e57600080fd5b60006010848154811061186157634e487b7160e01b600052603260045260246000fd5b6000918252602090912060056008909202019081015490915060ff161515600114156118f85761188f61223a565b6118f85760405162461bcd60e51b815260206004820152603460248201527f596f75204d757374204d696e74204265666f726520596f752043616e20566f7460448201527365204f6e2054686973205265666572656e64756d60601b60648201526084016105d3565b600183151514156119445760018160020160018282829054906101000a900461ffff166119259190613305565b92506101000a81548161ffff021916908361ffff160217905550611981565b60018160020160038282829054906101000a900461ffff166119669190613305565b92506101000a81548161ffff021916908361ffff1602179055505b3360008181526013602090815260408083208884528252808320805460ff19166001908117909155601280548083019091557fbb8a6a4669ba250d26cd7a459eca9d215f8307e33aebe50379bc5a3617ec34440180546001600160a01b03199081168717909155600687018054808401825590865284862001805490911686179055938352600f90915281208054909190611a1d908490613322565b9091555050600d54604051632770a7eb60e21b8152336004820152600160248201526001600160a01b0390911690639dc29fac90604401600060405180830381600087803b158015611a6e57600080fd5b505af1158015610f5b573d6000803e3d6000fd5b600b546001600160a01b03610100909104163314611ab25760405162461bcd60e51b81526004016105d39061327f565b6001600160a01b038116611b175760405162461bcd60e51b815260206004820152602660248201527f4f776e61626c653a206e6577206f776e657220697320746865207a65726f206160448201526564647265737360d01b60648201526084016105d3565b610c0e81611f07565b60006001600160e01b0319821663780e9d6360e01b148061059d575061059d826122aa565b600081815260046020526040902080546001600160a01b0319166001600160a01b0384169081179091558190611b7a82610f65565b6001600160a01b03167f8c5be1e5ebec7d5bd14f71427d1e84f3dd0314c0f7b2291e5b200ac8c7c3b92560405160405180910390a45050565b6106598282604051806020016040528060008152506122fa565b6000818152600260205260408120546001600160a01b0316611c465760405162461bcd60e51b815260206004820152602c60248201527f4552433732313a206f70657261746f7220717565727920666f72206e6f6e657860448201526b34b9ba32b73a103a37b5b2b760a11b60648201526084016105d3565b6000611c5183610f65565b9050806001600160a01b0316846001600160a01b03161480611c8c5750836001600160a01b0316611c81846106ef565b6001600160a01b0316145b80611cbc57506001600160a01b0380821660009081526005602090815260408083209388168352929052205460ff165b949350505050565b826001600160a01b0316611cd782610f65565b6001600160a01b031614611d3b5760405162461bcd60e51b815260206004820152602560248201527f4552433732313a207472616e736665722066726f6d20696e636f72726563742060448201526437bbb732b960d91b60648201526084016105d3565b6001600160a01b038216611d9d5760405162461bcd60e51b8152602060048201526024808201527f4552433732313a207472616e7366657220746f20746865207a65726f206164646044820152637265737360e01b60648201526084016105d3565b611da883838361232d565b611db3600082611b45565b6001600160a01b0383166000908152600360205260408120805460019290611ddc90849061336d565b90915550506001600160a01b0382166000908152600360205260408120805460019290611e0a908490613322565b909155505060008181526002602052604080822080546001600160a01b0319166001600160a01b0386811691821790925591518493918716917fddf252ad1be2c89b69c2b068fc378daa952ba7f163c4a11628f55a4df523b3ef91a4505050565b600b5460ff16611eb45760405162461bcd60e51b815260206004820152601460248201527314185d5cd8589b194e881b9bdd081c185d5cd95960621b60448201526064016105d3565b600b805460ff191690557f5db9ee0a495bf2e6ff9c91a7834c1ba4fdd244a5e8aa4e537bd38aeae4b073aa335b6040516001600160a01b03909116815260200160405180910390a1565b610c0e8161235b565b600b80546001600160a01b03838116610100818102610100600160a81b031985161790945560405193909204169182907f8be0079c531659141344cd1fd0a4f28419497f9722a3daafe3b4186f6b6457e090600090a35050565b600b5460ff1615611f845760405162461bcd60e51b81526004016105d390613255565b600b805460ff191660011790557f62e78cea01bee320cd4e420270b5ea74000d11b0c9f74754ebdbfc544b05a258611ee13390565b816001600160a01b0316836001600160a01b0316141561201b5760405162461bcd60e51b815260206004820152601960248201527f4552433732313a20617070726f766520746f2063616c6c65720000000000000060448201526064016105d3565b6001600160a01b03838116600081815260056020908152604080832094871680845294825291829020805460ff191686151590811790915591519182527f17307eab39ab6107e8899845ad3d59bd9653f200f220920489ca2b5937696c31910160405180910390a3505050565b612093848484611cc4565b61209f8484848461239b565b6115565760405162461bcd60e51b81526004016105d3906131bf565b6000818152600260205260409020546060906001600160a01b031661213c5760405162461bcd60e51b815260206004820152603160248201527f45524337323155524953746f726167653a2055524920717565727920666f72206044820152703737b732bc34b9ba32b73a103a37b5b2b760791b60648201526084016105d3565b6000828152600a602052604081208054612155906133c7565b80601f0160208091040260200160405190810160405280929190818152602001828054612181906133c7565b80156121ce5780601f106121a3576101008083540402835291602001916121ce565b820191906000526020600020905b8154815290600101906020018083116121b157829003601f168201915b5050505050905060006121ec60408051602081019091526000815290565b90508051600014156121ff575092915050565b815115612231578082604051602001612219929190613000565b60405160208183030381529060405292505050919050565b611cbc846124a8565b60008061224633610fdc565b116122a45760405162461bcd60e51b815260206004820152602860248201527f536f6369616c47726f75704e46543a2063616c6c6572206973206e6f742061756044820152671d1a1bdc9a5cd95960c21b60648201526084016105d3565b50600190565b60006001600160e01b031982166380ac58cd60e01b14806122db57506001600160e01b03198216635b5e139f60e01b145b8061059d57506301ffc9a760e01b6001600160e01b031983161461059d565b6123048383612590565b612311600084848461239b565b6108955760405162461bcd60e51b81526004016105d3906131bf565b600b5460ff16156123505760405162461bcd60e51b81526004016105d390613255565b6108958383836126de565b61236481612796565b6000818152600a60205260409020805461237d906133c7565b159050610c0e576000818152600a60205260408120610c0e91612c08565b60006001600160a01b0384163b1561249d57604051630a85bd0160e11b81526001600160a01b0385169063150b7a02906123df90339089908890889060040161302f565b602060405180830381600087803b1580156123f957600080fd5b505af1925050508015612429575060408051601f3d908101601f1916820190925261242691810190612ef2565b60015b612483573d808015612457576040519150601f19603f3d011682016040523d82523d6000602084013e61245c565b606091505b50805161247b5760405162461bcd60e51b81526004016105d3906131bf565b805181602001fd5b6001600160e01b031916630a85bd0160e11b149050611cbc565b506001949350505050565b6000818152600260205260409020546060906001600160a01b03166125275760405162461bcd60e51b815260206004820152602f60248201527f4552433732314d657461646174613a2055524920717565727920666f72206e6f60448201526e3732bc34b9ba32b73a103a37b5b2b760891b60648201526084016105d3565b600061253e60408051602081019091526000815290565b9050600081511161255e5760405180602001604052806000815250612589565b806125688461283d565b604051602001612579929190613000565b6040516020818303038152906040525b9392505050565b6001600160a01b0382166125e65760405162461bcd60e51b815260206004820181905260248201527f4552433732313a206d696e7420746f20746865207a65726f206164647265737360448201526064016105d3565b6000818152600260205260409020546001600160a01b03161561264b5760405162461bcd60e51b815260206004820152601c60248201527f4552433732313a20746f6b656e20616c7265616479206d696e7465640000000060448201526064016105d3565b6126576000838361232d565b6001600160a01b0382166000908152600360205260408120805460019290612680908490613322565b909155505060008181526002602052604080822080546001600160a01b0319166001600160a01b03861690811790915590518392907fddf252ad1be2c89b69c2b068fc378daa952ba7f163c4a11628f55a4df523b3ef908290a45050565b6001600160a01b0383166127395761273481600880546000838152600960205260408120829055600182018355919091527ff3f7a9fe364faab93b216da50a3214154f22a0a2b415b23a84c8169e8b636ee30155565b61275c565b816001600160a01b0316836001600160a01b03161461275c5761275c8382612957565b6001600160a01b03821661277357610895816129f4565b826001600160a01b0316826001600160a01b031614610895576108958282612acd565b60006127a182610f65565b90506127af8160008461232d565b6127ba600083611b45565b6001600160a01b03811660009081526003602052604081208054600192906127e390849061336d565b909155505060008281526002602052604080822080546001600160a01b0319169055518391906001600160a01b038416907fddf252ad1be2c89b69c2b068fc378daa952ba7f163c4a11628f55a4df523b3ef908390a45050565b6060816128615750506040805180820190915260018152600360fc1b602082015290565b8160005b811561288b578061287581613402565b91506128849050600a8361333a565b9150612865565b60008167ffffffffffffffff8111156128b457634e487b7160e01b600052604160045260246000fd5b6040519080825280601f01601f1916602001820160405280156128de576020820181803683370190505b5090505b8415611cbc576128f360018361336d565b9150612900600a8661341d565b61290b906030613322565b60f81b81838151811061292e57634e487b7160e01b600052603260045260246000fd5b60200101906001600160f81b031916908160001a905350612950600a8661333a565b94506128e2565b6000600161296484610fdc565b61296e919061336d565b6000838152600760205260409020549091508082146129c1576001600160a01b03841660009081526006602090815260408083208584528252808320548484528184208190558352600790915290208190555b5060009182526007602090815260408084208490556001600160a01b039094168352600681528383209183525290812055565b600854600090612a069060019061336d565b60008381526009602052604081205460088054939450909284908110612a3c57634e487b7160e01b600052603260045260246000fd5b906000526020600020015490508060088381548110612a6b57634e487b7160e01b600052603260045260246000fd5b6000918252602080832090910192909255828152600990915260408082208490558582528120556008805480612ab157634e487b7160e01b600052603160045260246000fd5b6001900381819060005260206000200160009055905550505050565b6000612ad883610fdc565b6001600160a01b039093166000908152600660209081526040808320868452825280832085905593825260079052919091209190915550565b828054612b1d906133c7565b90600052602060002090601f016020900481019282612b3f5760008555612b85565b82601f10612b5857805160ff1916838001178555612b85565b82800160010185558215612b85579182015b82811115612b85578251825591602001919060010190612b6a565b50612b91929150612c3e565b5090565b828054828255906000526020600020908101928215612b85579160200282015b82811115612b8557825182546001600160a01b0319166001600160a01b03909116178255602090920191600190910190612bb5565b60405180604001604052806002906020820280368337509192915050565b508054612c14906133c7565b6000825580601f10612c24575050565b601f016020900490600052602060002090810190610c0e91905b5b80821115612b915760008155600101612c3f565b600067ffffffffffffffff80841115612c6e57612c6e61345d565b604051601f8501601f19908116603f01168101908282118183101715612c9657612c9661345d565b81604052809350858152868686011115612caf57600080fd5b858560208301376000602087830101525050509392505050565b80356001600160a01b0381168114612ce057600080fd5b919050565b80358015158114612ce057600080fd5b600082601f830112612d05578081fd5b61258983833560208501612c53565b600060208284031215612d25578081fd5b61258982612cc9565b60008060408385031215612d40578081fd5b612d4983612cc9565b9150612d5760208401612cc9565b90509250929050565b600080600060608486031215612d74578081fd5b612d7d84612cc9565b9250612d8b60208501612cc9565b9150604084013590509250925092565b60008060008060808587031215612db0578081fd5b612db985612cc9565b9350612dc760208601612cc9565b925060408501359150606085013567ffffffffffffffff811115612de9578182fd5b8501601f81018713612df9578182fd5b612e0887823560208401612c53565b91505092959194509250565b60008060408385031215612e26578182fd5b612e2f83612cc9565b9150612d5760208401612ce5565b60008060408385031215612e4f578182fd5b612e5883612cc9565b946020939093013593505050565b60008060208385031215612e78578182fd5b823567ffffffffffffffff80821115612e8f578384fd5b818501915085601f830112612ea2578384fd5b813581811115612eb0578485fd5b8660208260051b8501011115612ec4578485fd5b60209290920196919550909350505050565b600060208284031215612ee7578081fd5b813561258981613473565b600060208284031215612f03578081fd5b815161258981613473565b600080600080600060a08688031215612f25578081fd5b853567ffffffffffffffff80821115612f3c578283fd5b612f4889838a01612cf5565b96506020880135915080821115612f5d578283fd5b50612f6a88828901612cf5565b945050612f7960408701612ce5565b925060608601359150612f8e60808701612ce5565b90509295509295909350565b600060208284031215612fab578081fd5b5035919050565b60008060408385031215612fc4578182fd5b82359150612d5760208401612ce5565b60008151808452612fec816020860160208601613384565b601f01601f19169290920160200192915050565b60008351613012818460208801613384565b835190830190613026818360208801613384565b01949350505050565b6001600160a01b038581168252841660208201526040810183905260806060820181905260009061306290830184612fd4565b9695505050505050565b6020808252825182820181905260009190848201906040850190845b818110156130ad5783516001600160a01b031683529284019291840191600101613088565b50909695505050505050565b60408101818360005b60028110156130e557815161ffff168352602092830192909101906001016130c2565b50505092915050565b6020815260006125896020830184612fd4565b60006101408083526131158184018e612fd4565b90508281036020840152613129818d612fd4565b9a15156040840152505061ffff978816606082015295909616608086015292151560a085015260c084019190915260e083015215156101008201526001600160a01b039091166101209091015292915050565b60208082526023908201527f536f6369616c47726f75703a205265666572656e64756d20697320657870697260408201526265642160e81b606082015260800190565b60208082526032908201527f4552433732313a207472616e7366657220746f206e6f6e20455243373231526560408201527131b2b4bb32b91034b6b83632b6b2b73a32b960711b606082015260800190565b60208082526024908201527f536f6369616c47726f75703a205265666572656e64756d20697320636f6d706c6040820152636574652160e01b606082015260800190565b60208082526010908201526f14185d5cd8589b194e881c185d5cd95960821b604082015260600190565b6020808252818101527f4f776e61626c653a2063616c6c6572206973206e6f7420746865206f776e6572604082015260600190565b60208082526031908201527f4552433732313a207472616e736665722063616c6c6572206973206e6f74206f6040820152701ddb995c881b9bdc88185c1c1c9bdd9959607a1b606082015260800190565b600061ffff80831681851680830382111561302657613026613431565b6000821982111561333557613335613431565b500190565b60008261334957613349613447565b500490565b600081600019048311821515161561336857613368613431565b500290565b60008282101561337f5761337f613431565b500390565b60005b8381101561339f578181015183820152602001613387565b838111156115565750506000910152565b6000816133bf576133bf613431565b506000190190565b600181811c908216806133db57607f821691505b602082108114156133fc57634e487b7160e01b600052602260045260246000fd5b50919050565b600060001982141561341657613416613431565b5060010190565b60008261342c5761342c613447565b500690565b634e487b7160e01b600052601160045260246000fd5b634e487b7160e01b600052601260045260246000fd5b634e487b7160e01b600052604160045260246000fd5b6001600160e01b031981168114610c0e57600080fdfea264697066735822122082da5ff9342dadd6ab6636cee85ed5be5db66c4fa32b7f5473327653e45b092664736f6c63430008040033",
  "immutableReferences": {},
  "source": "// SPDX-License-Identifier: MIT\r\npragma solidity ^0.8.4;\r\n\r\nimport \"@openzeppelin/contracts/token/ERC721/ERC721.sol\";\r\nimport \"@openzeppelin/contracts/token/ERC721/extensions/ERC721Enumerable.sol\";\r\nimport \"@openzeppelin/contracts/token/ERC721/extensions/ERC721URIStorage.sol\";\r\nimport \"@openzeppelin/contracts/security/Pausable.sol\";\r\nimport \"@openzeppelin/contracts/access/Ownable.sol\";\r\nimport \"@openzeppelin/contracts/token/ERC721/extensions/ERC721Burnable.sol\";\r\nimport \"@openzeppelin/contracts/utils/Counters.sol\";\r\nimport \"./interfaces/ISocialToken.sol\";\r\n\r\ncontract SocialGroupNFT is ERC721, ERC721Enumerable, ERC721URIStorage, Pausable, Ownable, ERC721Burnable {\r\n    using Counters for Counters.Counter;\r\n\r\n    Counters.Counter private _tokenIdCounter;\r\n\r\n    //Create Interface\r\n    ISocialToken socialToken;\r\n\r\n    //Whitelist - address and max minting amount\r\n    mapping (address => bool) private _members;\r\n\r\n    //Votes Per User\r\n    mapping (address => uint256) public voteCount;\r\n\r\n    //Track Created Referendums In This Group\r\n    Referendum[] public referendums;\r\n\r\n    uint256 public activeReferendums;\r\n\r\n    //Track Voters\r\n    address[] public voters;\r\n    mapping(address => mapping( uint256 => bool)) public referendumsVoteStatus;\r\n\r\n    struct Referendum {\r\n        string title;\r\n        string description;\r\n        bool complete;\r\n        uint16 yesVotes;\r\n        uint16 noVotes;\r\n        bool isAnonymous;\r\n        uint256 startTime;\r\n        uint256 endTime;\r\n        bool isPrivate;\r\n        address[] refVoters;\r\n        address origin;\r\n    }\r\n\r\n    modifier isActive(uint id) {\r\n        require(\r\n            referendums[id].complete == false, \r\n            \"SocialGroup: Referendum is complete!\"\r\n        );\r\n        require(\r\n            referendums[id].endTime + referendums[id].startTime > block.timestamp,\r\n            \"SocialGroup: Referendum is expired!\"\r\n        );\r\n        _;\r\n    }\r\n\r\n    constructor(\r\n        string memory _name,\r\n        string memory _symbol,\r\n        address _socialToken,\r\n        address newOwner\r\n    ) ERC721(_name, _symbol) {\r\n        socialToken = ISocialToken(_socialToken);\r\n        _transferOwnership(newOwner);\r\n    }\r\n\r\n    /* Voting Functions */\r\n\r\n    //Create Referendum\r\n    function createReferendum(\r\n        string memory title,\r\n        string memory description,\r\n        bool isAnonymous,\r\n        uint256 endTime, //days\r\n        bool isPrivate\r\n    ) public {\r\n        require(balanceOf(msg.sender) > 0);\r\n        uint256 lastVote = (block.timestamp + endTime) * 86400;\r\n        Referendum memory newReferendum = Referendum({\r\n            title: title,\r\n            description: description,\r\n            complete: false,\r\n            yesVotes: 0,\r\n            noVotes: 0,\r\n            isAnonymous: isAnonymous,\r\n            startTime: block.timestamp,\r\n            endTime: lastVote,\r\n            isPrivate: isPrivate,\r\n            refVoters: new address[](0),\r\n            origin: address(this)\r\n        });\r\n        \r\n        referendums.push(newReferendum);\r\n        activeReferendums++;\r\n        \r\n        for(uint256 i = 0; i < voters.length; i++){\r\n            address current = voters[i];\r\n            socialToken.mint(current, 1);\r\n        }\r\n    }\r\n\r\n    function voteOnReferendum(\r\n        uint id,\r\n        bool voteStatus\r\n    ) public isActive(id) whenNotPaused {\r\n        require(_members[msg.sender], \"User is not part of this Social Group\");\r\n        require(referendumsVoteStatus[msg.sender][id] == false);\r\n\r\n        Referendum storage referendum = referendums[id];\r\n        \r\n        if (referendum.isPrivate == true){\r\n            require(isHolder(), \"You Must Mint Before You Can Vote On This Referendum\"); \r\n        }\r\n        \r\n        if (voteStatus == true) {\r\n            referendum.yesVotes+=1;\r\n        }else {\r\n            referendum.noVotes+=1;\r\n        }\r\n\r\n        referendumsVoteStatus[msg.sender][id] = true;\r\n        voters.push(msg.sender);\r\n        referendum.refVoters.push(msg.sender);\r\n        voteCount[msg.sender]+=1;\r\n        socialToken.burn(msg.sender, 1);\r\n    }\r\n\r\n    function endReferendum(uint id) external onlyOwner isActive(id) {\r\n        referendums[id].complete = true;\r\n        activeReferendums--;\r\n    }\r\n\r\n    /*\r\n    * Mint NFT for Access to Private Proposals\r\n    */\r\n\r\n    function mint() external {\r\n        require(balanceOf(msg.sender) < 1);\r\n\r\n        uint256 tokenId = _tokenIdCounter.current();\r\n        _tokenIdCounter.increment();\r\n        _safeMint(msg.sender, tokenId);\r\n        _members[msg.sender] = true;\r\n        socialToken.mint(msg.sender, 1);\r\n    }\r\n    \r\n    /*\r\n    * Whitelist Gives Access To Public Proposals Created\r\n    */\r\n\r\n    function whitelist(address receiver) external onlyOwner {\r\n        _members[receiver] = true;\r\n        socialToken.mint(receiver, 1);\r\n    }\r\n  \r\n    //Batch Address Whitelist\r\n    function whitelistBatch(address[] calldata addresses) external onlyOwner {\r\n        for (uint256 i = 0; i < addresses.length; i++){\r\n            _members[addresses[i]] = true;\r\n        }\r\n    }\r\n\r\n    function resetVoteCount() external onlyOwner {\r\n        address[] memory votersList = getVoters();\r\n        for (uint256 i = 0; i < votersList.length; i++){\r\n            voteCount[votersList[i]] = 0;\r\n        }\r\n\r\n    }\r\n\r\n    /* View / Pure Functions */\r\n\r\n    function getVoters() public view returns (address[] memory){\r\n        return voters;\r\n    }\r\n\r\n    function getRefVoters(uint256 refId) external view returns (address[] memory){\r\n        require(referendums[refId].isAnonymous == false, \"This Referendum Is Anonymous\");\r\n        return referendums[refId].refVoters;\r\n    }\r\n\r\n    function getVoteCount(address user) external view returns(uint256) {\r\n        return voteCount[user];\r\n    }\r\n\r\n    function isHolder() internal view returns (bool) {\r\n        require(balanceOf(msg.sender) > 0, \"SocialGroupNFT: caller is not authorised\");\r\n        return true;\r\n    }\r\n\r\n    function viewVotes(uint id) external view returns (uint16[2] memory) {\r\n        uint16[2] memory votes = [referendums[id].yesVotes, referendums[id].noVotes];  \r\n        return votes;\r\n    } \r\n\r\n    /* State Functions */\r\n    \r\n    function pause() public onlyOwner {\r\n        _pause();\r\n    }\r\n\r\n    function unpause() public onlyOwner {\r\n        _unpause();\r\n    }\r\n\r\n    /* Inherited Functions */\r\n\r\n    function _beforeTokenTransfer(address from, address to, uint256 tokenId)\r\n        internal\r\n        whenNotPaused\r\n        override(ERC721, ERC721Enumerable)\r\n    {\r\n        super._beforeTokenTransfer(from, to, tokenId);\r\n    }\r\n\r\n    function _burn(uint256 tokenId) internal override(ERC721, ERC721URIStorage) {\r\n        super._burn(tokenId);\r\n    }\r\n\r\n    function tokenURI(uint256 tokenId)\r\n        public\r\n        view\r\n        override(ERC721, ERC721URIStorage)\r\n        returns (string memory)\r\n    {\r\n        return super.tokenURI(tokenId);\r\n    }\r\n\r\n    function supportsInterface(bytes4 interfaceId)\r\n        public\r\n        view\r\n        override(ERC721, ERC721Enumerable)\r\n        returns (bool)\r\n    {\r\n        return super.supportsInterface(interfaceId);\r\n    }\r\n}",
  "sourcePath": "C:\\Users\\nogazi\\univote\\contracts\\SocialGroupNFT.sol",
  "compiler": {
    "name": "solc",
    "version": "0.8.4+commit.c7e474f2.Emscripten.clang"
  },
  "schemaVersion": "3.4.7",
  "updatedAt": "2022-09-04T21:30:58.283Z",
  "devdoc": {
    "kind": "dev",
    "methods": {
      "approve(address,uint256)": {
        "details": "See {IERC721-approve}."
      },
      "balanceOf(address)": {
        "details": "See {IERC721-balanceOf}."
      },
      "burn(uint256)": {
        "details": "Burns `tokenId`. See {ERC721-_burn}. Requirements: - The caller must own `tokenId` or be an approved operator."
      },
      "getApproved(uint256)": {
        "details": "See {IERC721-getApproved}."
      },
      "isApprovedForAll(address,address)": {
        "details": "See {IERC721-isApprovedForAll}."
      },
      "name()": {
        "details": "See {IERC721Metadata-name}."
      },
      "owner()": {
        "details": "Returns the address of the current owner."
      },
      "ownerOf(uint256)": {
        "details": "See {IERC721-ownerOf}."
      },
      "paused()": {
        "details": "Returns true if the contract is paused, and false otherwise."
      },
      "renounceOwnership()": {
        "details": "Leaves the contract without owner. It will not be possible to call `onlyOwner` functions anymore. Can only be called by the current owner. NOTE: Renouncing ownership will leave the contract without an owner, thereby removing any functionality that is only available to the owner."
      },
      "safeTransferFrom(address,address,uint256)": {
        "details": "See {IERC721-safeTransferFrom}."
      },
      "safeTransferFrom(address,address,uint256,bytes)": {
        "details": "See {IERC721-safeTransferFrom}."
      },
      "setApprovalForAll(address,bool)": {
        "details": "See {IERC721-setApprovalForAll}."
      },
      "symbol()": {
        "details": "See {IERC721Metadata-symbol}."
      },
      "tokenByIndex(uint256)": {
        "details": "See {IERC721Enumerable-tokenByIndex}."
      },
      "tokenOfOwnerByIndex(address,uint256)": {
        "details": "See {IERC721Enumerable-tokenOfOwnerByIndex}."
      },
      "totalSupply()": {
        "details": "See {IERC721Enumerable-totalSupply}."
      },
      "transferFrom(address,address,uint256)": {
        "details": "See {IERC721-transferFrom}."
      },
      "transferOwnership(address)": {
        "details": "Transfers ownership of the contract to a new account (`newOwner`). Can only be called by the current owner."
      }
    },
    "version": 1
  },
  "userdoc": {
    "kind": "user",
    "methods": {},
    "version": 1
  }
}