{
  "contractName": "SocialGroupFactory",
  "abi": [
    {
      "inputs": [
        {
          "internalType": "address",
          "name": "_socialToken",
          "type": "address"
        }
      ],
      "stateMutability": "nonpayable",
      "type": "constructor"
    },
    {
      "anonymous": false,
      "inputs": [
        {
          "indexed": true,
          "internalType": "address",
          "name": "owner",
          "type": "address"
        },
        {
          "indexed": true,
          "internalType": "string",
          "name": "_name",
          "type": "string"
        },
        {
          "indexed": true,
          "internalType": "uint256",
          "name": "id",
          "type": "uint256"
        }
      ],
      "name": "SocialGroupCreated",
      "type": "event"
    },
    {
      "inputs": [
        {
          "internalType": "uint256",
          "name": "",
          "type": "uint256"
        }
      ],
      "name": "socialGroupNfts",
      "outputs": [
        {
          "internalType": "contract SocialGroupNFT",
          "name": "",
          "type": "address"
        }
      ],
      "stateMutability": "view",
      "type": "function",
      "constant": true
    },
    {
      "inputs": [
        {
          "internalType": "string",
          "name": "_name",
          "type": "string"
        },
        {
          "internalType": "string",
          "name": "_symbol",
          "type": "string"
        }
      ],
      "name": "createSocialGroup",
      "outputs": [],
      "stateMutability": "nonpayable",
      "type": "function"
    },
    {
      "inputs": [],
      "name": "viewSocialGroups",
      "outputs": [
        {
          "internalType": "contract SocialGroupNFT[]",
          "name": "",
          "type": "address[]"
        }
      ],
      "stateMutability": "view",
      "type": "function",
      "constant": true
    }
  ],
  "bytecode": "0x608060405234801561001057600080fd5b50604051613d44380380613d4483398101604081905261002f91610054565b600180546001600160a01b0319166001600160a01b0392909216919091179055610082565b600060208284031215610065578081fd5b81516001600160a01b038116811461007b578182fd5b9392505050565b613cb3806100916000396000f3fe608060405234801561001057600080fd5b50600436106100415760003560e01c80630f080a311461004657806361f4b6e814610076578063b54ba7451461008b575b600080fd5b61005961005436600461036a565b6100a0565b6040516001600160a01b0390911681526020015b60405180910390f35b610089610084366004610309565b6100ca565b005b610093610212565b60405161006d91906103ca565b600281815481106100b057600080fd5b6000918252602090912001546001600160a01b0316905081565b6000805460018101909155600154604051600091859185916001600160a01b03169033906100f790610274565b6101049493929190610417565b604051809103906000f080158015610120573d6000803e3d6000fd5b5060028054600180820183556000929092527f405787fa12a823e0f2b7631cc41b3ba8828b3321ca811111fa75cd3aa3bb5ace0180546001600160a01b0319166001600160a01b0384811691821790925591546040516375f890ab60e01b8152600481019390935292935091909116906375f890ab90602401600060405180830381600087803b1580156101b357600080fd5b505af11580156101c7573d6000803e3d6000fd5b5050505081846040516101da91906103ae565b6040519081900381209033907fa5142b91d4203678b06f5adcda36b421cb67a3c43c4f59e0ddb44f6a2e38312c90600090a450505050565b6060600280548060200260200160405190810160405280929190818152602001828054801561026a57602002820191906000526020600020905b81546001600160a01b0316815260019091019060200180831161024c575b5050505050905090565b6137d680620004a883390190565b600082601f830112610292578081fd5b813567ffffffffffffffff808211156102ad576102ad610491565b604051601f8301601f19908116603f011681019082821181831017156102d5576102d5610491565b816040528381528660208588010111156102ed578485fd5b8360208701602083013792830160200193909352509392505050565b6000806040838503121561031b578182fd5b823567ffffffffffffffff80821115610332578384fd5b61033e86838701610282565b93506020850135915080821115610353578283fd5b5061036085828601610282565b9150509250929050565b60006020828403121561037b578081fd5b5035919050565b6000815180845261039a816020860160208601610461565b601f01601f19169290920160200192915050565b600082516103c0818460208701610461565b9190910192915050565b6020808252825182820181905260009190848201906040850190845b8181101561040b5783516001600160a01b0316835292840192918401916001016103e6565b50909695505050505050565b60808152600061042a6080830187610382565b828103602084015261043c8187610382565b6001600160a01b03958616604085015293909416606090920191909152509392505050565b60005b8381101561047c578181015183820152602001610464565b8381111561048b576000848401525b50505050565b634e487b7160e01b600052604160045260246000fdfe60806040523480156200001157600080fd5b50604051620037d6380380620037d683398101604081905262000034916200027b565b8351849084906200004d90600090602085019062000105565b5080516200006390600190602084019062000105565b5050600b805460ff19169055506200007b33620000ab565b600d80546001600160a01b0319166001600160a01b038416179055620000a181620000ab565b505050506200035a565b600b80546001600160a01b03838116610100818102610100600160a81b031985161790945560405193909204169182907f8be0079c531659141344cd1fd0a4f28419497f9722a3daafe3b4186f6b6457e090600090a35050565b828054620001139062000307565b90600052602060002090601f01602090048101928262000137576000855562000182565b82601f106200015257805160ff191683800117855562000182565b8280016001018555821562000182579182015b828111156200018257825182559160200191906001019062000165565b506200019092915062000194565b5090565b5b8082111562000190576000815560010162000195565b80516001600160a01b0381168114620001c357600080fd5b919050565b600082601f830112620001d9578081fd5b81516001600160401b0380821115620001f657620001f662000344565b604051601f8301601f19908116603f0116810190828211818310171562000221576200022162000344565b816040528381526020925086838588010111156200023d578485fd5b8491505b8382101562000260578582018301518183018401529082019062000241565b838211156200027157848385830101525b9695505050505050565b6000806000806080858703121562000291578384fd5b84516001600160401b0380821115620002a8578586fd5b620002b688838901620001c8565b95506020870151915080821115620002cc578485fd5b50620002db87828801620001c8565b935050620002ec60408601620001ab565b9150620002fc60608601620001ab565b905092959194509250565b600181811c908216806200031c57607f821691505b602082108114156200033e57634e487b7160e01b600052602260045260246000fd5b50919050565b634e487b7160e01b600052604160045260246000fd5b61346c806200036a6000396000f3fe608060405234801561001057600080fd5b506004361061023d5760003560e01c80636352211e1161013b578063b2636a50116100b8578063e652f4cc1161007c578063e652f4cc146104f3578063e985e9c51461051c578063eaa5352314610558578063eaa7307c1461056b578063f2fde38b1461057e57600080fd5b8063b2636a501461048a578063b88d4fde146104b2578063c87b56dd146104c5578063cdd72253146104d8578063da58c7d9146104e057600080fd5b806395d89b41116100ff57806395d89b41146104295780639b19251a14610431578063a002f6ed14610444578063a22cb46514610464578063aecfe0651461047757600080fd5b80636352211e146103dd57806370a08231146103f0578063715018a6146104035780638456cb591461040b5780638da5cb5b1461041357600080fd5b80632f745c59116101c957806342966c681161018d57806342966c68146103795780634f6ccce71461038c57806354ac809d1461039f5780635c975abb146103b25780635e3cd7bc146103bd57600080fd5b80632f745c591461031457806334ea294e146103275780633757afc2146103555780633f4ba83a1461035e57806342842e0e1461036657600080fd5b8063095ea7b311610210578063095ea7b3146102b45780631249c58b146102c757806318160ddd146102cf57806323b872dd146102e157806326b90a9b146102f457600080fd5b806301ffc9a714610242578063039d60191461026a57806306fdde0314610274578063081812fc14610289575b600080fd5b610255610250366004612e96565b610591565b60405190151581526020015b60405180910390f35b6102726105a2565b005b61027c61065c565b60405161026191906130ae565b61029c610297366004612f5a565b6106ee565b6040516001600160a01b039091168152602001610261565b6102726102c2366004612dfd565b610783565b610272610899565b6008545b604051908152602001610261565b6102726102ef366004612d20565b610957565b610307610302366004612f5a565b610989565b604051610261919061302c565b6102d3610322366004612dfd565b610aab565b610255610335366004612dfd565b601360209081526000928352604080842090915290825290205460ff1681565b6102d360115481565b610272610b41565b610272610374366004612d20565b610b7b565b610272610387366004612f5a565b610b96565b6102d361039a366004612f5a565b610c10565b6102726103ad366004612ece565b610cb1565b600b5460ff16610255565b6102d36103cb366004612cd4565b600f6020526000908152604090205481565b61029c6103eb366004612f5a565b610f35565b6102d36103fe366004612cd4565b610fac565b610272611033565b61027261106d565b600b5461010090046001600160a01b031661029c565b61027c6110a5565b61027261043f366004612cd4565b6110b4565b610457610452366004612f5a565b61113b565b6040516102619190613079565b610272610472366004612dd4565b6111e7565b610272610485366004612f5a565b6111f2565b61049d610498366004612f5a565b611363565b604051610261999897969594939291906130c1565b6102726104c0366004612d5b565b6114e4565b61027c6104d3366004612f5a565b61151c565b610307611527565b61029c6104ee366004612f5a565b611588565b6102d3610501366004612cd4565b6001600160a01b03166000908152600f602052604090205490565b61025561052a366004612cee565b6001600160a01b03918216600090815260056020908152604080832093909416825291909152205460ff1690565b610272610566366004612e26565b6115b2565b610272610579366004612f72565b611662565b61027261058c366004612cd4565b611a42565b600061059c82611ae0565b92915050565b600b546001600160a01b036101009091041633146105db5760405162461bcd60e51b81526004016105d29061322c565b60405180910390fd5b60006105e5611527565b905060005b8151811015610658576000600f600084848151811061061957634e487b7160e01b600052603260045260246000fd5b60200260200101516001600160a01b03166001600160a01b03168152602001908152602001600020819055508080610650906133af565b9150506105ea565b5050565b60606000805461066b90613374565b80601f016020809104026020016040519081016040528092919081815260200182805461069790613374565b80156106e45780601f106106b9576101008083540402835291602001916106e4565b820191906000526020600020905b8154815290600101906020018083116106c757829003601f168201915b5050505050905090565b6000818152600260205260408120546001600160a01b03166107675760405162461bcd60e51b815260206004820152602c60248201527f4552433732313a20617070726f76656420717565727920666f72206e6f6e657860448201526b34b9ba32b73a103a37b5b2b760a11b60648201526084016105d2565b506000908152600460205260409020546001600160a01b031690565b600061078e82610f35565b9050806001600160a01b0316836001600160a01b031614156107fc5760405162461bcd60e51b815260206004820152602160248201527f4552433732313a20617070726f76616c20746f2063757272656e74206f776e656044820152603960f91b60648201526084016105d2565b336001600160a01b03821614806108185750610818813361052a565b61088a5760405162461bcd60e51b815260206004820152603860248201527f4552433732313a20617070726f76652063616c6c6572206973206e6f74206f7760448201527f6e6572206e6f7220617070726f76656420666f7220616c6c000000000000000060648201526084016105d2565b6108948383611b05565b505050565b60016108a433610fac565b106108ae57600080fd5b60006108b9600c5490565b90506108c9600c80546001019055565b6108d33382611b73565b336000818152600e602052604090819020805460ff19166001908117909155600d5491516340c10f1960e01b8152600481019390935260248301526001600160a01b0316906340c10f19906044015b600060405180830381600087803b15801561093c57600080fd5b505af1158015610950573d6000803e3d6000fd5b5050505050565b610962335b82611b8d565b61097e5760405162461bcd60e51b81526004016105d290613261565b610894838383611c84565b6060601082815481106109ac57634e487b7160e01b600052603260045260246000fd5b600091825260209091206007909102016002015465010000000000900460ff1615610a195760405162461bcd60e51b815260206004820152601c60248201527f54686973205265666572656e64756d20497320416e6f6e796d6f75730000000060448201526064016105d2565b60108281548110610a3a57634e487b7160e01b600052603260045260246000fd5b9060005260206000209060070201600601805480602002602001604051908101604052809291908181526020018280548015610a9f57602002820191906000526020600020905b81546001600160a01b03168152600190910190602001808311610a81575b50505050509050919050565b6000610ab683610fac565b8210610b185760405162461bcd60e51b815260206004820152602b60248201527f455243373231456e756d657261626c653a206f776e657220696e646578206f7560448201526a74206f6620626f756e647360a81b60648201526084016105d2565b506001600160a01b03919091166000908152600660209081526040808320938352929052205490565b600b546001600160a01b03610100909104163314610b715760405162461bcd60e51b81526004016105d29061322c565b610b79611e2b565b565b610894838383604051806020016040528060008152506114e4565b610b9f3361095c565b610c045760405162461bcd60e51b815260206004820152603060248201527f4552433732314275726e61626c653a2063616c6c6572206973206e6f74206f7760448201526f1b995c881b9bdc88185c1c1c9bdd995960821b60648201526084016105d2565b610c0d81611ebe565b50565b6000610c1b60085490565b8210610c7e5760405162461bcd60e51b815260206004820152602c60248201527f455243373231456e756d657261626c653a20676c6f62616c20696e646578206f60448201526b7574206f6620626f756e647360a01b60648201526084016105d2565b60088281548110610c9f57634e487b7160e01b600052603260045260246000fd5b90600052602060002001549050919050565b6000610cbc33610fac565b11610cc657600080fd5b6000610cd283426132cf565b610cdf90620151806132fb565b604080516101408101825288815260208082018990526000828401819052606083018190526080830181905288151560a08401524260c084015260e08301859052861515610100840152835181815280830190945261012083019390935260108054600181018255935281518051949550919384936007027f1b6847dc741a1b0cd08d278845f9d819d87b734759afb55fe2de5cb82a9ae6720192610d88928492910190612ad1565b506020828101518051610da19260018501920190612ad1565b5060408201516002820180546060850151608086015160a08701511515650100000000000265ff00000000001961ffff9283166301000000021665ffffff000000199290931661010090810262ffff00199715159790971662ffffff199095169490941795909517161792909217905560c0830151600383015560e0830151600483015582015160058201805491151560ff19929092169190911790556101208201518051610e5a916006840191602090910190612b55565b50506011805491506000610e6d836133af565b919050555060005b601254811015610f2b57600060128281548110610ea257634e487b7160e01b600052603260045260246000fd5b600091825260209091200154600d546040516340c10f1960e01b81526001600160a01b03928316600482018190526001602483015293509116906340c10f1990604401600060405180830381600087803b158015610eff57600080fd5b505af1158015610f13573d6000803e3d6000fd5b50505050508080610f23906133af565b915050610e75565b5050505050505050565b6000818152600260205260408120546001600160a01b03168061059c5760405162461bcd60e51b815260206004820152602960248201527f4552433732313a206f776e657220717565727920666f72206e6f6e657869737460448201526832b73a103a37b5b2b760b91b60648201526084016105d2565b60006001600160a01b0382166110175760405162461bcd60e51b815260206004820152602a60248201527f4552433732313a2062616c616e636520717565727920666f7220746865207a65604482015269726f206164647265737360b01b60648201526084016105d2565b506001600160a01b031660009081526003602052604090205490565b600b546001600160a01b036101009091041633146110635760405162461bcd60e51b81526004016105d29061322c565b610b796000611ec7565b600b546001600160a01b0361010090910416331461109d5760405162461bcd60e51b81526004016105d29061322c565b610b79611f21565b60606001805461066b90613374565b600b546001600160a01b036101009091041633146110e45760405162461bcd60e51b81526004016105d29061322c565b6001600160a01b038181166000818152600e602052604090819020805460ff19166001908117909155600d5491516340c10f1960e01b815260048101939093526024830152909116906340c10f1990604401610922565b611143612baa565b600060405180604001604052806010858154811061117157634e487b7160e01b600052603260045260246000fd5b906000526020600020906007020160020160019054906101000a900461ffff1661ffff1661ffff168152602001601085815481106111bf57634e487b7160e01b600052603260045260246000fd5b60009182526020909120600790910201600201546301000000900461ffff1690529392505050565b610658338383611f79565b600b546001600160a01b036101009091041633146112225760405162461bcd60e51b81526004016105d29061322c565b806010818154811061124457634e487b7160e01b600052603260045260246000fd5b600091825260209091206002600790920201015460ff16156112785760405162461bcd60e51b81526004016105d2906131be565b426010828154811061129a57634e487b7160e01b600052603260045260246000fd5b906000526020600020906007020160030154601083815481106112cd57634e487b7160e01b600052603260045260246000fd5b9060005260206000209060070201600401546112e991906132cf565b116113065760405162461bcd60e51b81526004016105d290613129565b60016010838154811061132957634e487b7160e01b600052603260045260246000fd5b60009182526020822060079190910201600201805460ff191692151592909217909155601180549161135a8361335d565b91905055505050565b6010818154811061137357600080fd5b906000526020600020906007020160009150905080600001805461139690613374565b80601f01602080910402602001604051908101604052809291908181526020018280546113c290613374565b801561140f5780601f106113e45761010080835404028352916020019161140f565b820191906000526020600020905b8154815290600101906020018083116113f257829003601f168201915b50505050509080600101805461142490613374565b80601f016020809104026020016040519081016040528092919081815260200182805461145090613374565b801561149d5780601f106114725761010080835404028352916020019161149d565b820191906000526020600020905b81548152906001019060200180831161148057829003601f168201915b505050600284015460038501546004860154600590960154949560ff8084169661ffff61010086048116975063010000008604169550650100000000009094048116931689565b6114ee3383611b8d565b61150a5760405162461bcd60e51b81526004016105d290613261565b61151684848484612048565b50505050565b606061059c8261207b565b606060128054806020026020016040519081016040528092919081815260200182805480156106e457602002820191906000526020600020905b81546001600160a01b03168152600190910190602001808311611561575050505050905090565b6012818154811061159857600080fd5b6000918252602090912001546001600160a01b0316905081565b600b546001600160a01b036101009091041633146115e25760405162461bcd60e51b81526004016105d29061322c565b60005b81811015610894576001600e600085858581811061161357634e487b7160e01b600052603260045260246000fd5b90506020020160208101906116289190612cd4565b6001600160a01b031681526020810191909152604001600020805460ff19169115159190911790558061165a816133af565b9150506115e5565b816010818154811061168457634e487b7160e01b600052603260045260246000fd5b600091825260209091206002600790920201015460ff16156116b85760405162461bcd60e51b81526004016105d2906131be565b42601082815481106116da57634e487b7160e01b600052603260045260246000fd5b9060005260206000209060070201600301546010838154811061170d57634e487b7160e01b600052603260045260246000fd5b90600052602060002090600702016004015461172991906132cf565b116117465760405162461bcd60e51b81526004016105d290613129565b600b5460ff16156117695760405162461bcd60e51b81526004016105d290613202565b336000908152600e602052604090205460ff166117d65760405162461bcd60e51b815260206004820152602560248201527f55736572206973206e6f742070617274206f66207468697320536f6369616c20604482015264047726f75760dc1b60648201526084016105d2565b33600090815260136020908152604080832086845290915290205460ff16156117fe57600080fd5b60006010848154811061182157634e487b7160e01b600052603260045260246000fd5b6000918252602090912060056007909202019081015490915060ff161515600114156118b85761184f6121fa565b6118b85760405162461bcd60e51b815260206004820152603460248201527f596f75204d757374204d696e74204265666f726520596f752043616e20566f7460448201527365204f6e2054686973205265666572656e64756d60601b60648201526084016105d2565b600183151514156119045760018160020160018282829054906101000a900461ffff166118e591906132b2565b92506101000a81548161ffff021916908361ffff160217905550611941565b60018160020160038282829054906101000a900461ffff1661192691906132b2565b92506101000a81548161ffff021916908361ffff1602179055505b3360008181526013602090815260408083208884528252808320805460ff19166001908117909155601280548083019091557fbb8a6a4669ba250d26cd7a459eca9d215f8307e33aebe50379bc5a3617ec34440180546001600160a01b03199081168717909155600687018054808401825590865284862001805490911686179055938352600f909152812080549091906119dd9084906132cf565b9091555050600d54604051632770a7eb60e21b8152336004820152600160248201526001600160a01b0390911690639dc29fac90604401600060405180830381600087803b158015611a2e57600080fd5b505af1158015610f2b573d6000803e3d6000fd5b600b546001600160a01b03610100909104163314611a725760405162461bcd60e51b81526004016105d29061322c565b6001600160a01b038116611ad75760405162461bcd60e51b815260206004820152602660248201527f4f776e61626c653a206e6577206f776e657220697320746865207a65726f206160448201526564647265737360d01b60648201526084016105d2565b610c0d81611ec7565b60006001600160e01b0319821663780e9d6360e01b148061059c575061059c8261226a565b600081815260046020526040902080546001600160a01b0319166001600160a01b0384169081179091558190611b3a82610f35565b6001600160a01b03167f8c5be1e5ebec7d5bd14f71427d1e84f3dd0314c0f7b2291e5b200ac8c7c3b92560405160405180910390a45050565b6106588282604051806020016040528060008152506122ba565b6000818152600260205260408120546001600160a01b0316611c065760405162461bcd60e51b815260206004820152602c60248201527f4552433732313a206f70657261746f7220717565727920666f72206e6f6e657860448201526b34b9ba32b73a103a37b5b2b760a11b60648201526084016105d2565b6000611c1183610f35565b9050806001600160a01b0316846001600160a01b03161480611c4c5750836001600160a01b0316611c41846106ee565b6001600160a01b0316145b80611c7c57506001600160a01b0380821660009081526005602090815260408083209388168352929052205460ff165b949350505050565b826001600160a01b0316611c9782610f35565b6001600160a01b031614611cfb5760405162461bcd60e51b815260206004820152602560248201527f4552433732313a207472616e736665722066726f6d20696e636f72726563742060448201526437bbb732b960d91b60648201526084016105d2565b6001600160a01b038216611d5d5760405162461bcd60e51b8152602060048201526024808201527f4552433732313a207472616e7366657220746f20746865207a65726f206164646044820152637265737360e01b60648201526084016105d2565b611d688383836122ed565b611d73600082611b05565b6001600160a01b0383166000908152600360205260408120805460019290611d9c90849061331a565b90915550506001600160a01b0382166000908152600360205260408120805460019290611dca9084906132cf565b909155505060008181526002602052604080822080546001600160a01b0319166001600160a01b0386811691821790925591518493918716917fddf252ad1be2c89b69c2b068fc378daa952ba7f163c4a11628f55a4df523b3ef91a4505050565b600b5460ff16611e745760405162461bcd60e51b815260206004820152601460248201527314185d5cd8589b194e881b9bdd081c185d5cd95960621b60448201526064016105d2565b600b805460ff191690557f5db9ee0a495bf2e6ff9c91a7834c1ba4fdd244a5e8aa4e537bd38aeae4b073aa335b6040516001600160a01b03909116815260200160405180910390a1565b610c0d8161231b565b600b80546001600160a01b03838116610100818102610100600160a81b031985161790945560405193909204169182907f8be0079c531659141344cd1fd0a4f28419497f9722a3daafe3b4186f6b6457e090600090a35050565b600b5460ff1615611f445760405162461bcd60e51b81526004016105d290613202565b600b805460ff191660011790557f62e78cea01bee320cd4e420270b5ea74000d11b0c9f74754ebdbfc544b05a258611ea13390565b816001600160a01b0316836001600160a01b03161415611fdb5760405162461bcd60e51b815260206004820152601960248201527f4552433732313a20617070726f766520746f2063616c6c65720000000000000060448201526064016105d2565b6001600160a01b03838116600081815260056020908152604080832094871680845294825291829020805460ff191686151590811790915591519182527f17307eab39ab6107e8899845ad3d59bd9653f200f220920489ca2b5937696c31910160405180910390a3505050565b612053848484611c84565b61205f8484848461235b565b6115165760405162461bcd60e51b81526004016105d29061316c565b6000818152600260205260409020546060906001600160a01b03166120fc5760405162461bcd60e51b815260206004820152603160248201527f45524337323155524953746f726167653a2055524920717565727920666f72206044820152703737b732bc34b9ba32b73a103a37b5b2b760791b60648201526084016105d2565b6000828152600a60205260408120805461211590613374565b80601f016020809104026020016040519081016040528092919081815260200182805461214190613374565b801561218e5780601f106121635761010080835404028352916020019161218e565b820191906000526020600020905b81548152906001019060200180831161217157829003601f168201915b5050505050905060006121ac60408051602081019091526000815290565b90508051600014156121bf575092915050565b8151156121f15780826040516020016121d9929190612fc0565b60405160208183030381529060405292505050919050565b611c7c84612468565b60008061220633610fac565b116122645760405162461bcd60e51b815260206004820152602860248201527f536f6369616c47726f75704e46543a2063616c6c6572206973206e6f742061756044820152671d1a1bdc9a5cd95960c21b60648201526084016105d2565b50600190565b60006001600160e01b031982166380ac58cd60e01b148061229b57506001600160e01b03198216635b5e139f60e01b145b8061059c57506301ffc9a760e01b6001600160e01b031983161461059c565b6122c48383612550565b6122d1600084848461235b565b6108945760405162461bcd60e51b81526004016105d29061316c565b600b5460ff16156123105760405162461bcd60e51b81526004016105d290613202565b61089483838361269e565b61232481612756565b6000818152600a60205260409020805461233d90613374565b159050610c0d576000818152600a60205260408120610c0d91612bc8565b60006001600160a01b0384163b1561245d57604051630a85bd0160e11b81526001600160a01b0385169063150b7a029061239f903390899088908890600401612fef565b602060405180830381600087803b1580156123b957600080fd5b505af19250505080156123e9575060408051601f3d908101601f191682019092526123e691810190612eb2565b60015b612443573d808015612417576040519150601f19603f3d011682016040523d82523d6000602084013e61241c565b606091505b50805161243b5760405162461bcd60e51b81526004016105d29061316c565b805181602001fd5b6001600160e01b031916630a85bd0160e11b149050611c7c565b506001949350505050565b6000818152600260205260409020546060906001600160a01b03166124e75760405162461bcd60e51b815260206004820152602f60248201527f4552433732314d657461646174613a2055524920717565727920666f72206e6f60448201526e3732bc34b9ba32b73a103a37b5b2b760891b60648201526084016105d2565b60006124fe60408051602081019091526000815290565b9050600081511161251e5760405180602001604052806000815250612549565b80612528846127fd565b604051602001612539929190612fc0565b6040516020818303038152906040525b9392505050565b6001600160a01b0382166125a65760405162461bcd60e51b815260206004820181905260248201527f4552433732313a206d696e7420746f20746865207a65726f206164647265737360448201526064016105d2565b6000818152600260205260409020546001600160a01b03161561260b5760405162461bcd60e51b815260206004820152601c60248201527f4552433732313a20746f6b656e20616c7265616479206d696e7465640000000060448201526064016105d2565b612617600083836122ed565b6001600160a01b03821660009081526003602052604081208054600192906126409084906132cf565b909155505060008181526002602052604080822080546001600160a01b0319166001600160a01b03861690811790915590518392907fddf252ad1be2c89b69c2b068fc378daa952ba7f163c4a11628f55a4df523b3ef908290a45050565b6001600160a01b0383166126f9576126f481600880546000838152600960205260408120829055600182018355919091527ff3f7a9fe364faab93b216da50a3214154f22a0a2b415b23a84c8169e8b636ee30155565b61271c565b816001600160a01b0316836001600160a01b03161461271c5761271c8382612917565b6001600160a01b03821661273357610894816129b4565b826001600160a01b0316826001600160a01b031614610894576108948282612a8d565b600061276182610f35565b905061276f816000846122ed565b61277a600083611b05565b6001600160a01b03811660009081526003602052604081208054600192906127a390849061331a565b909155505060008281526002602052604080822080546001600160a01b0319169055518391906001600160a01b038416907fddf252ad1be2c89b69c2b068fc378daa952ba7f163c4a11628f55a4df523b3ef908390a45050565b6060816128215750506040805180820190915260018152600360fc1b602082015290565b8160005b811561284b5780612835816133af565b91506128449050600a836132e7565b9150612825565b60008167ffffffffffffffff81111561287457634e487b7160e01b600052604160045260246000fd5b6040519080825280601f01601f19166020018201604052801561289e576020820181803683370190505b5090505b8415611c7c576128b360018361331a565b91506128c0600a866133ca565b6128cb9060306132cf565b60f81b8183815181106128ee57634e487b7160e01b600052603260045260246000fd5b60200101906001600160f81b031916908160001a905350612910600a866132e7565b94506128a2565b6000600161292484610fac565b61292e919061331a565b600083815260076020526040902054909150808214612981576001600160a01b03841660009081526006602090815260408083208584528252808320548484528184208190558352600790915290208190555b5060009182526007602090815260408084208490556001600160a01b039094168352600681528383209183525290812055565b6008546000906129c69060019061331a565b600083815260096020526040812054600880549394509092849081106129fc57634e487b7160e01b600052603260045260246000fd5b906000526020600020015490508060088381548110612a2b57634e487b7160e01b600052603260045260246000fd5b6000918252602080832090910192909255828152600990915260408082208490558582528120556008805480612a7157634e487b7160e01b600052603160045260246000fd5b6001900381819060005260206000200160009055905550505050565b6000612a9883610fac565b6001600160a01b039093166000908152600660209081526040808320868452825280832085905593825260079052919091209190915550565b828054612add90613374565b90600052602060002090601f016020900481019282612aff5760008555612b45565b82601f10612b1857805160ff1916838001178555612b45565b82800160010185558215612b45579182015b82811115612b45578251825591602001919060010190612b2a565b50612b51929150612bfe565b5090565b828054828255906000526020600020908101928215612b45579160200282015b82811115612b4557825182546001600160a01b0319166001600160a01b03909116178255602090920191600190910190612b75565b60405180604001604052806002906020820280368337509192915050565b508054612bd490613374565b6000825580601f10612be4575050565b601f016020900490600052602060002090810190610c0d91905b5b80821115612b515760008155600101612bff565b600067ffffffffffffffff80841115612c2e57612c2e61340a565b604051601f8501601f19908116603f01168101908282118183101715612c5657612c5661340a565b81604052809350858152868686011115612c6f57600080fd5b858560208301376000602087830101525050509392505050565b80356001600160a01b0381168114612ca057600080fd5b919050565b80358015158114612ca057600080fd5b600082601f830112612cc5578081fd5b61254983833560208501612c13565b600060208284031215612ce5578081fd5b61254982612c89565b60008060408385031215612d00578081fd5b612d0983612c89565b9150612d1760208401612c89565b90509250929050565b600080600060608486031215612d34578081fd5b612d3d84612c89565b9250612d4b60208501612c89565b9150604084013590509250925092565b60008060008060808587031215612d70578081fd5b612d7985612c89565b9350612d8760208601612c89565b925060408501359150606085013567ffffffffffffffff811115612da9578182fd5b8501601f81018713612db9578182fd5b612dc887823560208401612c13565b91505092959194509250565b60008060408385031215612de6578182fd5b612def83612c89565b9150612d1760208401612ca5565b60008060408385031215612e0f578182fd5b612e1883612c89565b946020939093013593505050565b60008060208385031215612e38578182fd5b823567ffffffffffffffff80821115612e4f578384fd5b818501915085601f830112612e62578384fd5b813581811115612e70578485fd5b8660208260051b8501011115612e84578485fd5b60209290920196919550909350505050565b600060208284031215612ea7578081fd5b813561254981613420565b600060208284031215612ec3578081fd5b815161254981613420565b600080600080600060a08688031215612ee5578081fd5b853567ffffffffffffffff80821115612efc578283fd5b612f0889838a01612cb5565b96506020880135915080821115612f1d578283fd5b50612f2a88828901612cb5565b945050612f3960408701612ca5565b925060608601359150612f4e60808701612ca5565b90509295509295909350565b600060208284031215612f6b578081fd5b5035919050565b60008060408385031215612f84578182fd5b82359150612d1760208401612ca5565b60008151808452612fac816020860160208601613331565b601f01601f19169290920160200192915050565b60008351612fd2818460208801613331565b835190830190612fe6818360208801613331565b01949350505050565b6001600160a01b038581168252841660208201526040810183905260806060820181905260009061302290830184612f94565b9695505050505050565b6020808252825182820181905260009190848201906040850190845b8181101561306d5783516001600160a01b031683529284019291840191600101613048565b50909695505050505050565b60408101818360005b60028110156130a557815161ffff16835260209283019290910190600101613082565b50505092915050565b6020815260006125496020830184612f94565b60006101208083526130d58184018d612f94565b905082810360208401526130e9818c612f94565b9915156040840152505061ffff968716606082015294909516608085015291151560a084015260c083015260e08201529015156101009091015292915050565b60208082526023908201527f536f6369616c47726f75703a205265666572656e64756d20697320657870697260408201526265642160e81b606082015260800190565b60208082526032908201527f4552433732313a207472616e7366657220746f206e6f6e20455243373231526560408201527131b2b4bb32b91034b6b83632b6b2b73a32b960711b606082015260800190565b60208082526024908201527f536f6369616c47726f75703a205265666572656e64756d20697320636f6d706c6040820152636574652160e01b606082015260800190565b60208082526010908201526f14185d5cd8589b194e881c185d5cd95960821b604082015260600190565b6020808252818101527f4f776e61626c653a2063616c6c6572206973206e6f7420746865206f776e6572604082015260600190565b60208082526031908201527f4552433732313a207472616e736665722063616c6c6572206973206e6f74206f6040820152701ddb995c881b9bdc88185c1c1c9bdd9959607a1b606082015260800190565b600061ffff808316818516808303821115612fe657612fe66133de565b600082198211156132e2576132e26133de565b500190565b6000826132f6576132f66133f4565b500490565b6000816000190483118215151615613315576133156133de565b500290565b60008282101561332c5761332c6133de565b500390565b60005b8381101561334c578181015183820152602001613334565b838111156115165750506000910152565b60008161336c5761336c6133de565b506000190190565b600181811c9082168061338857607f821691505b602082108114156133a957634e487b7160e01b600052602260045260246000fd5b50919050565b60006000198214156133c3576133c36133de565b5060010190565b6000826133d9576133d96133f4565b500690565b634e487b7160e01b600052601160045260246000fd5b634e487b7160e01b600052601260045260246000fd5b634e487b7160e01b600052604160045260246000fd5b6001600160e01b031981168114610c0d57600080fdfea26469706673582212209e1e33d055fd1f871034a9aa61eb17ca05793607238bab5300220c35f5bb896d64736f6c63430008040033a2646970667358221220863cd67f56b7b09698f118835f655d15b05a089d5c726243f2cea94beeaa552264736f6c63430008040033",
  "immutableReferences": {},
  "source": "// SPDX-License-Identifier: MIT\r\npragma solidity ^0.8.0;\r\nimport \"./SocialGroupNFT.sol\";\r\nimport \"./interfaces/ISocialToken.sol\";\r\nimport \"@openzeppelin/contracts/utils/Counters.sol\";\r\n\r\ncontract SocialGroupFactory {\r\n    using Counters for Counters.Counter;\r\n\r\n    Counters.Counter private _SocialGroupCounter;\r\n    ISocialToken socialToken;\r\n    SocialGroupNFT[] public socialGroupNfts;\r\n\r\n    event SocialGroupCreated(address indexed owner, string indexed _name, uint256 indexed id);\r\n\r\n    constructor(address _socialToken) {\r\n        socialToken = ISocialToken(_socialToken);\r\n    }\r\n\r\n    function createSocialGroup(\r\n        string memory _name,\r\n        string memory _symbol\r\n    ) external {\r\n        uint256 current = _SocialGroupCounter.current();\r\n        _SocialGroupCounter.increment();\r\n\r\n        SocialGroupNFT newSocialGroup = new SocialGroupNFT(\r\n            _name,\r\n            _symbol,\r\n            address(socialToken),\r\n            msg.sender\r\n        );\r\n        socialGroupNfts.push(newSocialGroup);\r\n        socialToken.setContract(address(newSocialGroup));\r\n        \r\n        emit SocialGroupCreated(msg.sender, _name, current);\r\n    }\r\n\r\n    function viewSocialGroups() external view returns (SocialGroupNFT[] memory ){\r\n        return socialGroupNfts;\r\n    }\r\n}\r\n",
  "sourcePath": "C:\\Users\\nogazi\\univote\\contracts\\SocialGroupFactory.sol",
  "compiler": {
    "name": "solc",
    "version": "0.8.4+commit.c7e474f2.Emscripten.clang"
  },
  "schemaVersion": "3.4.7",
  "updatedAt": "2022-09-02T15:37:08.681Z",
  "networkType": "ethereum",
  "devdoc": {
    "kind": "dev",
    "methods": {},
    "version": 1
  },
  "userdoc": {
    "kind": "user",
    "methods": {},
    "version": 1
  }
}