{
  "contractName": "SocialGroupNFT",
  "abi": [
    {
      "inputs": [
        {
          "internalType": "string",
          "name": "_name",
          "type": "string"
        },
        {
          "internalType": "string",
          "name": "_symbol",
          "type": "string"
        },
        {
          "internalType": "address",
          "name": "_socialToken",
          "type": "address"
        },
        {
          "internalType": "address",
          "name": "newOwner",
          "type": "address"
        }
      ],
      "stateMutability": "nonpayable",
      "type": "constructor"
    },
    {
      "anonymous": false,
      "inputs": [
        {
          "indexed": true,
          "internalType": "address",
          "name": "owner",
          "type": "address"
        },
        {
          "indexed": true,
          "internalType": "address",
          "name": "approved",
          "type": "address"
        },
        {
          "indexed": true,
          "internalType": "uint256",
          "name": "tokenId",
          "type": "uint256"
        }
      ],
      "name": "Approval",
      "type": "event"
    },
    {
      "anonymous": false,
      "inputs": [
        {
          "indexed": true,
          "internalType": "address",
          "name": "owner",
          "type": "address"
        },
        {
          "indexed": true,
          "internalType": "address",
          "name": "operator",
          "type": "address"
        },
        {
          "indexed": false,
          "internalType": "bool",
          "name": "approved",
          "type": "bool"
        }
      ],
      "name": "ApprovalForAll",
      "type": "event"
    },
    {
      "anonymous": false,
      "inputs": [
        {
          "indexed": true,
          "internalType": "address",
          "name": "previousOwner",
          "type": "address"
        },
        {
          "indexed": true,
          "internalType": "address",
          "name": "newOwner",
          "type": "address"
        }
      ],
      "name": "OwnershipTransferred",
      "type": "event"
    },
    {
      "anonymous": false,
      "inputs": [
        {
          "indexed": false,
          "internalType": "address",
          "name": "account",
          "type": "address"
        }
      ],
      "name": "Paused",
      "type": "event"
    },
    {
      "anonymous": false,
      "inputs": [
        {
          "indexed": true,
          "internalType": "address",
          "name": "from",
          "type": "address"
        },
        {
          "indexed": true,
          "internalType": "address",
          "name": "to",
          "type": "address"
        },
        {
          "indexed": true,
          "internalType": "uint256",
          "name": "tokenId",
          "type": "uint256"
        }
      ],
      "name": "Transfer",
      "type": "event"
    },
    {
      "anonymous": false,
      "inputs": [
        {
          "indexed": false,
          "internalType": "address",
          "name": "account",
          "type": "address"
        }
      ],
      "name": "Unpaused",
      "type": "event"
    },
    {
      "inputs": [],
      "name": "activeReferendums",
      "outputs": [
        {
          "internalType": "uint256",
          "name": "",
          "type": "uint256"
        }
      ],
      "stateMutability": "view",
      "type": "function"
    },
    {
      "inputs": [
        {
          "internalType": "address",
          "name": "to",
          "type": "address"
        },
        {
          "internalType": "uint256",
          "name": "tokenId",
          "type": "uint256"
        }
      ],
      "name": "approve",
      "outputs": [],
      "stateMutability": "nonpayable",
      "type": "function"
    },
    {
      "inputs": [
        {
          "internalType": "address",
          "name": "owner",
          "type": "address"
        }
      ],
      "name": "balanceOf",
      "outputs": [
        {
          "internalType": "uint256",
          "name": "",
          "type": "uint256"
        }
      ],
      "stateMutability": "view",
      "type": "function"
    },
    {
      "inputs": [
        {
          "internalType": "uint256",
          "name": "tokenId",
          "type": "uint256"
        }
      ],
      "name": "burn",
      "outputs": [],
      "stateMutability": "nonpayable",
      "type": "function"
    },
    {
      "inputs": [
        {
          "internalType": "uint256",
          "name": "tokenId",
          "type": "uint256"
        }
      ],
      "name": "getApproved",
      "outputs": [
        {
          "internalType": "address",
          "name": "",
          "type": "address"
        }
      ],
      "stateMutability": "view",
      "type": "function"
    },
    {
      "inputs": [
        {
          "internalType": "address",
          "name": "owner",
          "type": "address"
        },
        {
          "internalType": "address",
          "name": "operator",
          "type": "address"
        }
      ],
      "name": "isApprovedForAll",
      "outputs": [
        {
          "internalType": "bool",
          "name": "",
          "type": "bool"
        }
      ],
      "stateMutability": "view",
      "type": "function"
    },
    {
      "inputs": [],
      "name": "name",
      "outputs": [
        {
          "internalType": "string",
          "name": "",
          "type": "string"
        }
      ],
      "stateMutability": "view",
      "type": "function"
    },
    {
      "inputs": [],
      "name": "owner",
      "outputs": [
        {
          "internalType": "address",
          "name": "",
          "type": "address"
        }
      ],
      "stateMutability": "view",
      "type": "function"
    },
    {
      "inputs": [
        {
          "internalType": "uint256",
          "name": "tokenId",
          "type": "uint256"
        }
      ],
      "name": "ownerOf",
      "outputs": [
        {
          "internalType": "address",
          "name": "",
          "type": "address"
        }
      ],
      "stateMutability": "view",
      "type": "function"
    },
    {
      "inputs": [],
      "name": "paused",
      "outputs": [
        {
          "internalType": "bool",
          "name": "",
          "type": "bool"
        }
      ],
      "stateMutability": "view",
      "type": "function"
    },
    {
      "inputs": [
        {
          "internalType": "uint256",
          "name": "",
          "type": "uint256"
        }
      ],
      "name": "referendums",
      "outputs": [
        {
          "internalType": "string",
          "name": "title",
          "type": "string"
        },
        {
          "internalType": "string",
          "name": "description",
          "type": "string"
        },
        {
          "internalType": "bool",
          "name": "complete",
          "type": "bool"
        },
        {
          "internalType": "uint16",
          "name": "yesVotes",
          "type": "uint16"
        },
        {
          "internalType": "uint16",
          "name": "noVotes",
          "type": "uint16"
        },
        {
          "internalType": "bool",
          "name": "isAnonymous",
          "type": "bool"
        },
        {
          "internalType": "uint256",
          "name": "startTime",
          "type": "uint256"
        },
        {
          "internalType": "uint256",
          "name": "endTime",
          "type": "uint256"
        },
        {
          "internalType": "bool",
          "name": "isPrivate",
          "type": "bool"
        }
      ],
      "stateMutability": "view",
      "type": "function"
    },
    {
      "inputs": [],
      "name": "renounceOwnership",
      "outputs": [],
      "stateMutability": "nonpayable",
      "type": "function"
    },
    {
      "inputs": [
        {
          "internalType": "address",
          "name": "from",
          "type": "address"
        },
        {
          "internalType": "address",
          "name": "to",
          "type": "address"
        },
        {
          "internalType": "uint256",
          "name": "tokenId",
          "type": "uint256"
        }
      ],
      "name": "safeTransferFrom",
      "outputs": [],
      "stateMutability": "nonpayable",
      "type": "function"
    },
    {
      "inputs": [
        {
          "internalType": "address",
          "name": "from",
          "type": "address"
        },
        {
          "internalType": "address",
          "name": "to",
          "type": "address"
        },
        {
          "internalType": "uint256",
          "name": "tokenId",
          "type": "uint256"
        },
        {
          "internalType": "bytes",
          "name": "_data",
          "type": "bytes"
        }
      ],
      "name": "safeTransferFrom",
      "outputs": [],
      "stateMutability": "nonpayable",
      "type": "function"
    },
    {
      "inputs": [
        {
          "internalType": "address",
          "name": "operator",
          "type": "address"
        },
        {
          "internalType": "bool",
          "name": "approved",
          "type": "bool"
        }
      ],
      "name": "setApprovalForAll",
      "outputs": [],
      "stateMutability": "nonpayable",
      "type": "function"
    },
    {
      "inputs": [],
      "name": "symbol",
      "outputs": [
        {
          "internalType": "string",
          "name": "",
          "type": "string"
        }
      ],
      "stateMutability": "view",
      "type": "function"
    },
    {
      "inputs": [
        {
          "internalType": "uint256",
          "name": "index",
          "type": "uint256"
        }
      ],
      "name": "tokenByIndex",
      "outputs": [
        {
          "internalType": "uint256",
          "name": "",
          "type": "uint256"
        }
      ],
      "stateMutability": "view",
      "type": "function"
    },
    {
      "inputs": [
        {
          "internalType": "address",
          "name": "owner",
          "type": "address"
        },
        {
          "internalType": "uint256",
          "name": "index",
          "type": "uint256"
        }
      ],
      "name": "tokenOfOwnerByIndex",
      "outputs": [
        {
          "internalType": "uint256",
          "name": "",
          "type": "uint256"
        }
      ],
      "stateMutability": "view",
      "type": "function"
    },
    {
      "inputs": [],
      "name": "totalSupply",
      "outputs": [
        {
          "internalType": "uint256",
          "name": "",
          "type": "uint256"
        }
      ],
      "stateMutability": "view",
      "type": "function"
    },
    {
      "inputs": [
        {
          "internalType": "address",
          "name": "from",
          "type": "address"
        },
        {
          "internalType": "address",
          "name": "to",
          "type": "address"
        },
        {
          "internalType": "uint256",
          "name": "tokenId",
          "type": "uint256"
        }
      ],
      "name": "transferFrom",
      "outputs": [],
      "stateMutability": "nonpayable",
      "type": "function"
    },
    {
      "inputs": [
        {
          "internalType": "address",
          "name": "newOwner",
          "type": "address"
        }
      ],
      "name": "transferOwnership",
      "outputs": [],
      "stateMutability": "nonpayable",
      "type": "function"
    },
    {
      "inputs": [
        {
          "internalType": "address",
          "name": "",
          "type": "address"
        }
      ],
      "name": "voteCount",
      "outputs": [
        {
          "internalType": "uint256",
          "name": "",
          "type": "uint256"
        }
      ],
      "stateMutability": "view",
      "type": "function"
    },
    {
      "inputs": [
        {
          "internalType": "uint256",
          "name": "",
          "type": "uint256"
        }
      ],
      "name": "voters",
      "outputs": [
        {
          "internalType": "address",
          "name": "",
          "type": "address"
        }
      ],
      "stateMutability": "view",
      "type": "function"
    },
    {
      "inputs": [
        {
          "internalType": "string",
          "name": "title",
          "type": "string"
        },
        {
          "internalType": "string",
          "name": "description",
          "type": "string"
        },
        {
          "internalType": "bool",
          "name": "isAnonymous",
          "type": "bool"
        },
        {
          "internalType": "uint256",
          "name": "endTime",
          "type": "uint256"
        },
        {
          "internalType": "bool",
          "name": "isPrivate",
          "type": "bool"
        }
      ],
      "name": "createReferendum",
      "outputs": [],
      "stateMutability": "nonpayable",
      "type": "function"
    },
    {
      "inputs": [
        {
          "internalType": "uint256",
          "name": "id",
          "type": "uint256"
        },
        {
          "internalType": "bool",
          "name": "voteStatus",
          "type": "bool"
        }
      ],
      "name": "voteOnReferendum",
      "outputs": [],
      "stateMutability": "nonpayable",
      "type": "function"
    },
    {
      "inputs": [
        {
          "internalType": "uint256",
          "name": "id",
          "type": "uint256"
        }
      ],
      "name": "endReferendum",
      "outputs": [],
      "stateMutability": "nonpayable",
      "type": "function"
    },
    {
      "inputs": [],
      "name": "mint",
      "outputs": [],
      "stateMutability": "nonpayable",
      "type": "function"
    },
    {
      "inputs": [
        {
          "internalType": "address",
          "name": "receiver",
          "type": "address"
        }
      ],
      "name": "whitelist",
      "outputs": [],
      "stateMutability": "nonpayable",
      "type": "function"
    },
    {
      "inputs": [
        {
          "internalType": "address[]",
          "name": "addresses",
          "type": "address[]"
        }
      ],
      "name": "whitelistBatch",
      "outputs": [],
      "stateMutability": "nonpayable",
      "type": "function"
    },
    {
      "inputs": [],
      "name": "resetVoteCount",
      "outputs": [],
      "stateMutability": "nonpayable",
      "type": "function"
    },
    {
      "inputs": [],
      "name": "getVoters",
      "outputs": [
        {
          "internalType": "address[]",
          "name": "",
          "type": "address[]"
        }
      ],
      "stateMutability": "view",
      "type": "function"
    },
    {
      "inputs": [
        {
          "internalType": "uint256",
          "name": "refId",
          "type": "uint256"
        }
      ],
      "name": "getRefVoters",
      "outputs": [
        {
          "internalType": "address[]",
          "name": "",
          "type": "address[]"
        }
      ],
      "stateMutability": "view",
      "type": "function"
    },
    {
      "inputs": [
        {
          "internalType": "address",
          "name": "user",
          "type": "address"
        }
      ],
      "name": "getVoteCount",
      "outputs": [
        {
          "internalType": "uint256",
          "name": "",
          "type": "uint256"
        }
      ],
      "stateMutability": "view",
      "type": "function"
    },
    {
      "inputs": [
        {
          "internalType": "uint256",
          "name": "id",
          "type": "uint256"
        }
      ],
      "name": "viewVotes",
      "outputs": [
        {
          "internalType": "uint16[2]",
          "name": "",
          "type": "uint16[2]"
        }
      ],
      "stateMutability": "view",
      "type": "function"
    },
    {
      "inputs": [],
      "name": "pause",
      "outputs": [],
      "stateMutability": "nonpayable",
      "type": "function"
    },
    {
      "inputs": [],
      "name": "unpause",
      "outputs": [],
      "stateMutability": "nonpayable",
      "type": "function"
    },
    {
      "inputs": [
        {
          "internalType": "uint256",
          "name": "tokenId",
          "type": "uint256"
        }
      ],
      "name": "tokenURI",
      "outputs": [
        {
          "internalType": "string",
          "name": "",
          "type": "string"
        }
      ],
      "stateMutability": "view",
      "type": "function"
    },
    {
      "inputs": [
        {
          "internalType": "bytes4",
          "name": "interfaceId",
          "type": "bytes4"
        }
      ],
      "name": "supportsInterface",
      "outputs": [
        {
          "internalType": "bool",
          "name": "",
          "type": "bool"
        }
      ],
      "stateMutability": "view",
      "type": "function"
    }
  ],
  "bytecode": "0x60806040523480156200001157600080fd5b50604051620037813803806200378183398101604081905262000034916200027b565b8351849084906200004d90600090602085019062000105565b5080516200006390600190602084019062000105565b5050600b805460ff19169055506200007b33620000ab565b600d80546001600160a01b0319166001600160a01b038416179055620000a181620000ab565b505050506200035a565b600b80546001600160a01b03838116610100818102610100600160a81b031985161790945560405193909204169182907f8be0079c531659141344cd1fd0a4f28419497f9722a3daafe3b4186f6b6457e090600090a35050565b828054620001139062000307565b90600052602060002090601f01602090048101928262000137576000855562000182565b82601f106200015257805160ff191683800117855562000182565b8280016001018555821562000182579182015b828111156200018257825182559160200191906001019062000165565b506200019092915062000194565b5090565b5b8082111562000190576000815560010162000195565b80516001600160a01b0381168114620001c357600080fd5b919050565b600082601f830112620001d9578081fd5b81516001600160401b0380821115620001f657620001f662000344565b604051601f8301601f19908116603f0116810190828211818310171562000221576200022162000344565b816040528381526020925086838588010111156200023d578485fd5b8491505b8382101562000260578582018301518183018401529082019062000241565b838211156200027157848385830101525b9695505050505050565b6000806000806080858703121562000291578384fd5b84516001600160401b0380821115620002a8578586fd5b620002b688838901620001c8565b95506020870151915080821115620002cc578485fd5b50620002db87828801620001c8565b935050620002ec60408601620001ab565b9150620002fc60608601620001ab565b905092959194509250565b600181811c908216806200031c57607f821691505b602082108114156200033e57634e487b7160e01b600052602260045260246000fd5b50919050565b634e487b7160e01b600052604160045260246000fd5b613417806200036a6000396000f3fe608060405234801561001057600080fd5b50600436106102325760003560e01c806370a0823111610130578063b2636a50116100b8578063e652f4cc1161007c578063e652f4cc146104ba578063e985e9c5146104e3578063eaa535231461051f578063eaa7307c14610532578063f2fde38b1461054557600080fd5b8063b2636a5014610451578063b88d4fde14610479578063c87b56dd1461048c578063cdd722531461049f578063da58c7d9146104a757600080fd5b806395d89b41116100ff57806395d89b41146103f05780639b19251a146103f8578063a002f6ed1461040b578063a22cb4651461042b578063aecfe0651461043e57600080fd5b806370a08231146103b7578063715018a6146103ca5780638456cb59146103d25780638da5cb5b146103da57600080fd5b80632f745c59116101be5780634f6ccce7116101825780634f6ccce71461035357806354ac809d146103665780635c975abb146103795780635e3cd7bc146103845780636352211e146103a457600080fd5b80632f745c59146103095780633757afc21461031c5780633f4ba83a1461032557806342842e0e1461032d57806342966c681461034057600080fd5b8063095ea7b311610205578063095ea7b3146102a95780631249c58b146102bc57806318160ddd146102c457806323b872dd146102d657806326b90a9b146102e957600080fd5b806301ffc9a714610237578063039d60191461025f57806306fdde0314610269578063081812fc1461027e575b600080fd5b61024a610245366004612e41565b610558565b60405190151581526020015b60405180910390f35b610267610569565b005b610271610623565b6040516102569190613059565b61029161028c366004612f05565b6106b5565b6040516001600160a01b039091168152602001610256565b6102676102b7366004612da8565b61074a565b610267610860565b6008545b604051908152602001610256565b6102676102e4366004612ccb565b61091e565b6102fc6102f7366004612f05565b610950565b6040516102569190612fd7565b6102c8610317366004612da8565b610a72565b6102c860115481565b610267610b08565b61026761033b366004612ccb565b610b42565b61026761034e366004612f05565b610b5d565b6102c8610361366004612f05565b610bd7565b610267610374366004612e79565b610c78565b600b5460ff1661024a565b6102c8610392366004612c7f565b600f6020526000908152604090205481565b6102916103b2366004612f05565b610f17565b6102c86103c5366004612c7f565b610f8e565b610267611015565b61026761104f565b600b5461010090046001600160a01b0316610291565b610271611087565b610267610406366004612c7f565b611096565b61041e610419366004612f05565b61111d565b6040516102569190613024565b610267610439366004612d7f565b6111c9565b61026761044c366004612f05565b6111d4565b61046461045f366004612f05565b611345565b6040516102569998979695949392919061306c565b610267610487366004612d06565b6114c6565b61027161049a366004612f05565b6114fe565b6102fc611509565b6102916104b5366004612f05565b61156a565b6102c86104c8366004612c7f565b6001600160a01b03166000908152600f602052604090205490565b61024a6104f1366004612c99565b6001600160a01b03918216600090815260056020908152604080832093909416825291909152205460ff1690565b61026761052d366004612dd1565b611594565b610267610540366004612f1d565b611644565b610267610553366004612c7f565b6119ed565b600061056382611a8b565b92915050565b600b546001600160a01b036101009091041633146105a25760405162461bcd60e51b8152600401610599906131d7565b60405180910390fd5b60006105ac611509565b905060005b815181101561061f576000600f60008484815181106105e057634e487b7160e01b600052603260045260246000fd5b60200260200101516001600160a01b03166001600160a01b031681526020019081526020016000208190555080806106179061335a565b9150506105b1565b5050565b6060600080546106329061331f565b80601f016020809104026020016040519081016040528092919081815260200182805461065e9061331f565b80156106ab5780601f10610680576101008083540402835291602001916106ab565b820191906000526020600020905b81548152906001019060200180831161068e57829003601f168201915b5050505050905090565b6000818152600260205260408120546001600160a01b031661072e5760405162461bcd60e51b815260206004820152602c60248201527f4552433732313a20617070726f76656420717565727920666f72206e6f6e657860448201526b34b9ba32b73a103a37b5b2b760a11b6064820152608401610599565b506000908152600460205260409020546001600160a01b031690565b600061075582610f17565b9050806001600160a01b0316836001600160a01b031614156107c35760405162461bcd60e51b815260206004820152602160248201527f4552433732313a20617070726f76616c20746f2063757272656e74206f776e656044820152603960f91b6064820152608401610599565b336001600160a01b03821614806107df57506107df81336104f1565b6108515760405162461bcd60e51b815260206004820152603860248201527f4552433732313a20617070726f76652063616c6c6572206973206e6f74206f7760448201527f6e6572206e6f7220617070726f76656420666f7220616c6c00000000000000006064820152608401610599565b61085b8383611ab0565b505050565b600161086b33610f8e565b1061087557600080fd5b6000610880600c5490565b9050610890600c80546001019055565b61089a3382611b1e565b336000818152600e602052604090819020805460ff19166001908117909155600d5491516340c10f1960e01b8152600481019390935260248301526001600160a01b0316906340c10f19906044015b600060405180830381600087803b15801561090357600080fd5b505af1158015610917573d6000803e3d6000fd5b5050505050565b610929335b82611b38565b6109455760405162461bcd60e51b81526004016105999061320c565b61085b838383611c2f565b60606010828154811061097357634e487b7160e01b600052603260045260246000fd5b600091825260209091206007909102016002015465010000000000900460ff16156109e05760405162461bcd60e51b815260206004820152601c60248201527f54686973205265666572656e64756d20497320416e6f6e796d6f7573000000006044820152606401610599565b60108281548110610a0157634e487b7160e01b600052603260045260246000fd5b9060005260206000209060070201600601805480602002602001604051908101604052809291908181526020018280548015610a6657602002820191906000526020600020905b81546001600160a01b03168152600190910190602001808311610a48575b50505050509050919050565b6000610a7d83610f8e565b8210610adf5760405162461bcd60e51b815260206004820152602b60248201527f455243373231456e756d657261626c653a206f776e657220696e646578206f7560448201526a74206f6620626f756e647360a81b6064820152608401610599565b506001600160a01b03919091166000908152600660209081526040808320938352929052205490565b600b546001600160a01b03610100909104163314610b385760405162461bcd60e51b8152600401610599906131d7565b610b40611dd6565b565b61085b838383604051806020016040528060008152506114c6565b610b6633610923565b610bcb5760405162461bcd60e51b815260206004820152603060248201527f4552433732314275726e61626c653a2063616c6c6572206973206e6f74206f7760448201526f1b995c881b9bdc88185c1c1c9bdd995960821b6064820152608401610599565b610bd481611e69565b50565b6000610be260085490565b8210610c455760405162461bcd60e51b815260206004820152602c60248201527f455243373231456e756d657261626c653a20676c6f62616c20696e646578206f60448201526b7574206f6620626f756e647360a01b6064820152608401610599565b60088281548110610c6657634e487b7160e01b600052603260045260246000fd5b90600052602060002001549050919050565b600b546001600160a01b03610100909104163314610ca85760405162461bcd60e51b8152600401610599906131d7565b6000610cb4834261327a565b610cc190620151806132a6565b604080516101408101825288815260208082018990526000828401819052606083018190526080830181905288151560a08401524260c084015260e08301859052861515610100840152835181815280830190945261012083019390935260108054600181018255935281518051949550919384936007027f1b6847dc741a1b0cd08d278845f9d819d87b734759afb55fe2de5cb82a9ae6720192610d6a928492910190612a7c565b506020828101518051610d839260018501920190612a7c565b5060408201516002820180546060850151608086015160a08701511515650100000000000265ff00000000001961ffff9283166301000000021665ffffff000000199290931661010090810262ffff00199715159790971662ffffff199095169490941795909517161792909217905560c0830151600383015560e0830151600483015582015160058201805491151560ff19929092169190911790556101208201518051610e3c916006840191602090910190612b00565b50506011805491506000610e4f8361335a565b919050555060005b601254811015610f0d57600060128281548110610e8457634e487b7160e01b600052603260045260246000fd5b600091825260209091200154600d546040516340c10f1960e01b81526001600160a01b03928316600482018190526001602483015293509116906340c10f1990604401600060405180830381600087803b158015610ee157600080fd5b505af1158015610ef5573d6000803e3d6000fd5b50505050508080610f059061335a565b915050610e57565b5050505050505050565b6000818152600260205260408120546001600160a01b0316806105635760405162461bcd60e51b815260206004820152602960248201527f4552433732313a206f776e657220717565727920666f72206e6f6e657869737460448201526832b73a103a37b5b2b760b91b6064820152608401610599565b60006001600160a01b038216610ff95760405162461bcd60e51b815260206004820152602a60248201527f4552433732313a2062616c616e636520717565727920666f7220746865207a65604482015269726f206164647265737360b01b6064820152608401610599565b506001600160a01b031660009081526003602052604090205490565b600b546001600160a01b036101009091041633146110455760405162461bcd60e51b8152600401610599906131d7565b610b406000611e72565b600b546001600160a01b0361010090910416331461107f5760405162461bcd60e51b8152600401610599906131d7565b610b40611ecc565b6060600180546106329061331f565b600b546001600160a01b036101009091041633146110c65760405162461bcd60e51b8152600401610599906131d7565b6001600160a01b038181166000818152600e602052604090819020805460ff19166001908117909155600d5491516340c10f1960e01b815260048101939093526024830152909116906340c10f19906044016108e9565b611125612b55565b600060405180604001604052806010858154811061115357634e487b7160e01b600052603260045260246000fd5b906000526020600020906007020160020160019054906101000a900461ffff1661ffff1661ffff168152602001601085815481106111a157634e487b7160e01b600052603260045260246000fd5b60009182526020909120600790910201600201546301000000900461ffff1690529392505050565b61061f338383611f24565b600b546001600160a01b036101009091041633146112045760405162461bcd60e51b8152600401610599906131d7565b806010818154811061122657634e487b7160e01b600052603260045260246000fd5b600091825260209091206002600790920201015460ff161561125a5760405162461bcd60e51b815260040161059990613169565b426010828154811061127c57634e487b7160e01b600052603260045260246000fd5b906000526020600020906007020160030154601083815481106112af57634e487b7160e01b600052603260045260246000fd5b9060005260206000209060070201600401546112cb919061327a565b116112e85760405162461bcd60e51b8152600401610599906130d4565b60016010838154811061130b57634e487b7160e01b600052603260045260246000fd5b60009182526020822060079190910201600201805460ff191692151592909217909155601180549161133c83613308565b91905055505050565b6010818154811061135557600080fd5b90600052602060002090600702016000915090508060000180546113789061331f565b80601f01602080910402602001604051908101604052809291908181526020018280546113a49061331f565b80156113f15780601f106113c6576101008083540402835291602001916113f1565b820191906000526020600020905b8154815290600101906020018083116113d457829003601f168201915b5050505050908060010180546114069061331f565b80601f01602080910402602001604051908101604052809291908181526020018280546114329061331f565b801561147f5780601f106114545761010080835404028352916020019161147f565b820191906000526020600020905b81548152906001019060200180831161146257829003601f168201915b505050600284015460038501546004860154600590960154949560ff8084169661ffff61010086048116975063010000008604169550650100000000009094048116931689565b6114d03383611b38565b6114ec5760405162461bcd60e51b81526004016105999061320c565b6114f884848484611ff3565b50505050565b606061056382612026565b606060128054806020026020016040519081016040528092919081815260200182805480156106ab57602002820191906000526020600020905b81546001600160a01b03168152600190910190602001808311611543575050505050905090565b6012818154811061157a57600080fd5b6000918252602090912001546001600160a01b0316905081565b600b546001600160a01b036101009091041633146115c45760405162461bcd60e51b8152600401610599906131d7565b60005b8181101561085b576001600e60008585858181106115f557634e487b7160e01b600052603260045260246000fd5b905060200201602081019061160a9190612c7f565b6001600160a01b031681526020810191909152604001600020805460ff19169115159190911790558061163c8161335a565b9150506115c7565b816010818154811061166657634e487b7160e01b600052603260045260246000fd5b600091825260209091206002600790920201015460ff161561169a5760405162461bcd60e51b815260040161059990613169565b42601082815481106116bc57634e487b7160e01b600052603260045260246000fd5b906000526020600020906007020160030154601083815481106116ef57634e487b7160e01b600052603260045260246000fd5b90600052602060002090600702016004015461170b919061327a565b116117285760405162461bcd60e51b8152600401610599906130d4565b600b5460ff161561174b5760405162461bcd60e51b8152600401610599906131ad565b336000908152600e602052604090205460ff166117b85760405162461bcd60e51b815260206004820152602560248201527f55736572206973206e6f742070617274206f66207468697320536f6369616c20604482015264047726f75760dc1b6064820152608401610599565b6000601084815481106117db57634e487b7160e01b600052603260045260246000fd5b6000918252602090912060056007909202019081015490915060ff16151560011415611872576118096121a5565b6118725760405162461bcd60e51b815260206004820152603460248201527f596f75204d757374204d696e74204265666f726520596f752043616e20566f7460448201527365204f6e2054686973205265666572656e64756d60601b6064820152608401610599565b600183151514156118be5760018160020160018282829054906101000a900461ffff1661189f919061325d565b92506101000a81548161ffff021916908361ffff1602179055506118fb565b60018160020160038282829054906101000a900461ffff166118e0919061325d565b92506101000a81548161ffff021916908361ffff1602179055505b6012805460018082019092557fbb8a6a4669ba250d26cd7a459eca9d215f8307e33aebe50379bc5a3617ec3444018054336001600160a01b0319918216811790925560068401805480850182556000918252602080832090910180549093168417909255918252600f905260408120805490919061197a90849061327a565b9091555050600d546001600160a01b0316639dc29fac336040516001600160e01b031960e084901b1681526001600160a01b03909116600482015260016024820152604401600060405180830381600087803b1580156119d957600080fd5b505af1158015610f0d573d6000803e3d6000fd5b600b546001600160a01b03610100909104163314611a1d5760405162461bcd60e51b8152600401610599906131d7565b6001600160a01b038116611a825760405162461bcd60e51b815260206004820152602660248201527f4f776e61626c653a206e6577206f776e657220697320746865207a65726f206160448201526564647265737360d01b6064820152608401610599565b610bd481611e72565b60006001600160e01b0319821663780e9d6360e01b1480610563575061056382612215565b600081815260046020526040902080546001600160a01b0319166001600160a01b0384169081179091558190611ae582610f17565b6001600160a01b03167f8c5be1e5ebec7d5bd14f71427d1e84f3dd0314c0f7b2291e5b200ac8c7c3b92560405160405180910390a45050565b61061f828260405180602001604052806000815250612265565b6000818152600260205260408120546001600160a01b0316611bb15760405162461bcd60e51b815260206004820152602c60248201527f4552433732313a206f70657261746f7220717565727920666f72206e6f6e657860448201526b34b9ba32b73a103a37b5b2b760a11b6064820152608401610599565b6000611bbc83610f17565b9050806001600160a01b0316846001600160a01b03161480611bf75750836001600160a01b0316611bec846106b5565b6001600160a01b0316145b80611c2757506001600160a01b0380821660009081526005602090815260408083209388168352929052205460ff165b949350505050565b826001600160a01b0316611c4282610f17565b6001600160a01b031614611ca65760405162461bcd60e51b815260206004820152602560248201527f4552433732313a207472616e736665722066726f6d20696e636f72726563742060448201526437bbb732b960d91b6064820152608401610599565b6001600160a01b038216611d085760405162461bcd60e51b8152602060048201526024808201527f4552433732313a207472616e7366657220746f20746865207a65726f206164646044820152637265737360e01b6064820152608401610599565b611d13838383612298565b611d1e600082611ab0565b6001600160a01b0383166000908152600360205260408120805460019290611d479084906132c5565b90915550506001600160a01b0382166000908152600360205260408120805460019290611d7590849061327a565b909155505060008181526002602052604080822080546001600160a01b0319166001600160a01b0386811691821790925591518493918716917fddf252ad1be2c89b69c2b068fc378daa952ba7f163c4a11628f55a4df523b3ef91a4505050565b600b5460ff16611e1f5760405162461bcd60e51b815260206004820152601460248201527314185d5cd8589b194e881b9bdd081c185d5cd95960621b6044820152606401610599565b600b805460ff191690557f5db9ee0a495bf2e6ff9c91a7834c1ba4fdd244a5e8aa4e537bd38aeae4b073aa335b6040516001600160a01b03909116815260200160405180910390a1565b610bd4816122c6565b600b80546001600160a01b03838116610100818102610100600160a81b031985161790945560405193909204169182907f8be0079c531659141344cd1fd0a4f28419497f9722a3daafe3b4186f6b6457e090600090a35050565b600b5460ff1615611eef5760405162461bcd60e51b8152600401610599906131ad565b600b805460ff191660011790557f62e78cea01bee320cd4e420270b5ea74000d11b0c9f74754ebdbfc544b05a258611e4c3390565b816001600160a01b0316836001600160a01b03161415611f865760405162461bcd60e51b815260206004820152601960248201527f4552433732313a20617070726f766520746f2063616c6c6572000000000000006044820152606401610599565b6001600160a01b03838116600081815260056020908152604080832094871680845294825291829020805460ff191686151590811790915591519182527f17307eab39ab6107e8899845ad3d59bd9653f200f220920489ca2b5937696c31910160405180910390a3505050565b611ffe848484611c2f565b61200a84848484612306565b6114f85760405162461bcd60e51b815260040161059990613117565b6000818152600260205260409020546060906001600160a01b03166120a75760405162461bcd60e51b815260206004820152603160248201527f45524337323155524953746f726167653a2055524920717565727920666f72206044820152703737b732bc34b9ba32b73a103a37b5b2b760791b6064820152608401610599565b6000828152600a6020526040812080546120c09061331f565b80601f01602080910402602001604051908101604052809291908181526020018280546120ec9061331f565b80156121395780601f1061210e57610100808354040283529160200191612139565b820191906000526020600020905b81548152906001019060200180831161211c57829003601f168201915b50505050509050600061215760408051602081019091526000815290565b905080516000141561216a575092915050565b81511561219c578082604051602001612184929190612f6b565b60405160208183030381529060405292505050919050565b611c2784612413565b6000806121b133610f8e565b1161220f5760405162461bcd60e51b815260206004820152602860248201527f536f6369616c47726f75704e46543a2063616c6c6572206973206e6f742061756044820152671d1a1bdc9a5cd95960c21b6064820152608401610599565b50600190565b60006001600160e01b031982166380ac58cd60e01b148061224657506001600160e01b03198216635b5e139f60e01b145b8061056357506301ffc9a760e01b6001600160e01b0319831614610563565b61226f83836124fb565b61227c6000848484612306565b61085b5760405162461bcd60e51b815260040161059990613117565b600b5460ff16156122bb5760405162461bcd60e51b8152600401610599906131ad565b61085b838383612649565b6122cf81612701565b6000818152600a6020526040902080546122e89061331f565b159050610bd4576000818152600a60205260408120610bd491612b73565b60006001600160a01b0384163b1561240857604051630a85bd0160e11b81526001600160a01b0385169063150b7a029061234a903390899088908890600401612f9a565b602060405180830381600087803b15801561236457600080fd5b505af1925050508015612394575060408051601f3d908101601f1916820190925261239191810190612e5d565b60015b6123ee573d8080156123c2576040519150601f19603f3d011682016040523d82523d6000602084013e6123c7565b606091505b5080516123e65760405162461bcd60e51b815260040161059990613117565b805181602001fd5b6001600160e01b031916630a85bd0160e11b149050611c27565b506001949350505050565b6000818152600260205260409020546060906001600160a01b03166124925760405162461bcd60e51b815260206004820152602f60248201527f4552433732314d657461646174613a2055524920717565727920666f72206e6f60448201526e3732bc34b9ba32b73a103a37b5b2b760891b6064820152608401610599565b60006124a960408051602081019091526000815290565b905060008151116124c957604051806020016040528060008152506124f4565b806124d3846127a8565b6040516020016124e4929190612f6b565b6040516020818303038152906040525b9392505050565b6001600160a01b0382166125515760405162461bcd60e51b815260206004820181905260248201527f4552433732313a206d696e7420746f20746865207a65726f20616464726573736044820152606401610599565b6000818152600260205260409020546001600160a01b0316156125b65760405162461bcd60e51b815260206004820152601c60248201527f4552433732313a20746f6b656e20616c7265616479206d696e746564000000006044820152606401610599565b6125c260008383612298565b6001600160a01b03821660009081526003602052604081208054600192906125eb90849061327a565b909155505060008181526002602052604080822080546001600160a01b0319166001600160a01b03861690811790915590518392907fddf252ad1be2c89b69c2b068fc378daa952ba7f163c4a11628f55a4df523b3ef908290a45050565b6001600160a01b0383166126a45761269f81600880546000838152600960205260408120829055600182018355919091527ff3f7a9fe364faab93b216da50a3214154f22a0a2b415b23a84c8169e8b636ee30155565b6126c7565b816001600160a01b0316836001600160a01b0316146126c7576126c783826128c2565b6001600160a01b0382166126de5761085b8161295f565b826001600160a01b0316826001600160a01b03161461085b5761085b8282612a38565b600061270c82610f17565b905061271a81600084612298565b612725600083611ab0565b6001600160a01b038116600090815260036020526040812080546001929061274e9084906132c5565b909155505060008281526002602052604080822080546001600160a01b0319169055518391906001600160a01b038416907fddf252ad1be2c89b69c2b068fc378daa952ba7f163c4a11628f55a4df523b3ef908390a45050565b6060816127cc5750506040805180820190915260018152600360fc1b602082015290565b8160005b81156127f657806127e08161335a565b91506127ef9050600a83613292565b91506127d0565b60008167ffffffffffffffff81111561281f57634e487b7160e01b600052604160045260246000fd5b6040519080825280601f01601f191660200182016040528015612849576020820181803683370190505b5090505b8415611c275761285e6001836132c5565b915061286b600a86613375565b61287690603061327a565b60f81b81838151811061289957634e487b7160e01b600052603260045260246000fd5b60200101906001600160f81b031916908160001a9053506128bb600a86613292565b945061284d565b600060016128cf84610f8e565b6128d991906132c5565b60008381526007602052604090205490915080821461292c576001600160a01b03841660009081526006602090815260408083208584528252808320548484528184208190558352600790915290208190555b5060009182526007602090815260408084208490556001600160a01b039094168352600681528383209183525290812055565b600854600090612971906001906132c5565b600083815260096020526040812054600880549394509092849081106129a757634e487b7160e01b600052603260045260246000fd5b9060005260206000200154905080600883815481106129d657634e487b7160e01b600052603260045260246000fd5b6000918252602080832090910192909255828152600990915260408082208490558582528120556008805480612a1c57634e487b7160e01b600052603160045260246000fd5b6001900381819060005260206000200160009055905550505050565b6000612a4383610f8e565b6001600160a01b039093166000908152600660209081526040808320868452825280832085905593825260079052919091209190915550565b828054612a889061331f565b90600052602060002090601f016020900481019282612aaa5760008555612af0565b82601f10612ac357805160ff1916838001178555612af0565b82800160010185558215612af0579182015b82811115612af0578251825591602001919060010190612ad5565b50612afc929150612ba9565b5090565b828054828255906000526020600020908101928215612af0579160200282015b82811115612af057825182546001600160a01b0319166001600160a01b03909116178255602090920191600190910190612b20565b60405180604001604052806002906020820280368337509192915050565b508054612b7f9061331f565b6000825580601f10612b8f575050565b601f016020900490600052602060002090810190610bd491905b5b80821115612afc5760008155600101612baa565b600067ffffffffffffffff80841115612bd957612bd96133b5565b604051601f8501601f19908116603f01168101908282118183101715612c0157612c016133b5565b81604052809350858152868686011115612c1a57600080fd5b858560208301376000602087830101525050509392505050565b80356001600160a01b0381168114612c4b57600080fd5b919050565b80358015158114612c4b57600080fd5b600082601f830112612c70578081fd5b6124f483833560208501612bbe565b600060208284031215612c90578081fd5b6124f482612c34565b60008060408385031215612cab578081fd5b612cb483612c34565b9150612cc260208401612c34565b90509250929050565b600080600060608486031215612cdf578081fd5b612ce884612c34565b9250612cf660208501612c34565b9150604084013590509250925092565b60008060008060808587031215612d1b578081fd5b612d2485612c34565b9350612d3260208601612c34565b925060408501359150606085013567ffffffffffffffff811115612d54578182fd5b8501601f81018713612d64578182fd5b612d7387823560208401612bbe565b91505092959194509250565b60008060408385031215612d91578182fd5b612d9a83612c34565b9150612cc260208401612c50565b60008060408385031215612dba578182fd5b612dc383612c34565b946020939093013593505050565b60008060208385031215612de3578182fd5b823567ffffffffffffffff80821115612dfa578384fd5b818501915085601f830112612e0d578384fd5b813581811115612e1b578485fd5b8660208260051b8501011115612e2f578485fd5b60209290920196919550909350505050565b600060208284031215612e52578081fd5b81356124f4816133cb565b600060208284031215612e6e578081fd5b81516124f4816133cb565b600080600080600060a08688031215612e90578081fd5b853567ffffffffffffffff80821115612ea7578283fd5b612eb389838a01612c60565b96506020880135915080821115612ec8578283fd5b50612ed588828901612c60565b945050612ee460408701612c50565b925060608601359150612ef960808701612c50565b90509295509295909350565b600060208284031215612f16578081fd5b5035919050565b60008060408385031215612f2f578182fd5b82359150612cc260208401612c50565b60008151808452612f578160208601602086016132dc565b601f01601f19169290920160200192915050565b60008351612f7d8184602088016132dc565b835190830190612f918183602088016132dc565b01949350505050565b6001600160a01b0385811682528416602082015260408101839052608060608201819052600090612fcd90830184612f3f565b9695505050505050565b6020808252825182820181905260009190848201906040850190845b818110156130185783516001600160a01b031683529284019291840191600101612ff3565b50909695505050505050565b60408101818360005b600281101561305057815161ffff1683526020928301929091019060010161302d565b50505092915050565b6020815260006124f46020830184612f3f565b60006101208083526130808184018d612f3f565b90508281036020840152613094818c612f3f565b9915156040840152505061ffff968716606082015294909516608085015291151560a084015260c083015260e08201529015156101009091015292915050565b60208082526023908201527f536f6369616c47726f75703a205265666572656e64756d20697320657870697260408201526265642160e81b606082015260800190565b60208082526032908201527f4552433732313a207472616e7366657220746f206e6f6e20455243373231526560408201527131b2b4bb32b91034b6b83632b6b2b73a32b960711b606082015260800190565b60208082526024908201527f536f6369616c47726f75703a205265666572656e64756d20697320636f6d706c6040820152636574652160e01b606082015260800190565b60208082526010908201526f14185d5cd8589b194e881c185d5cd95960821b604082015260600190565b6020808252818101527f4f776e61626c653a2063616c6c6572206973206e6f7420746865206f776e6572604082015260600190565b60208082526031908201527f4552433732313a207472616e736665722063616c6c6572206973206e6f74206f6040820152701ddb995c881b9bdc88185c1c1c9bdd9959607a1b606082015260800190565b600061ffff808316818516808303821115612f9157612f91613389565b6000821982111561328d5761328d613389565b500190565b6000826132a1576132a161339f565b500490565b60008160001904831182151516156132c0576132c0613389565b500290565b6000828210156132d7576132d7613389565b500390565b60005b838110156132f75781810151838201526020016132df565b838111156114f85750506000910152565b60008161331757613317613389565b506000190190565b600181811c9082168061333357607f821691505b6020821081141561335457634e487b7160e01b600052602260045260246000fd5b50919050565b600060001982141561336e5761336e613389565b5060010190565b6000826133845761338461339f565b500690565b634e487b7160e01b600052601160045260246000fd5b634e487b7160e01b600052601260045260246000fd5b634e487b7160e01b600052604160045260246000fd5b6001600160e01b031981168114610bd457600080fdfea2646970667358221220d2d1791177f5bb2a4e7ae2253279a8ed70ede0eec38e30ec09996fa329af614464736f6c63430008040033",
  "immutableReferences": {},
  "source": "// SPDX-License-Identifier: MIT\r\npragma solidity ^0.8.4;\r\n\r\nimport \"@openzeppelin/contracts/token/ERC721/ERC721.sol\";\r\nimport \"@openzeppelin/contracts/token/ERC721/extensions/ERC721Enumerable.sol\";\r\nimport \"@openzeppelin/contracts/token/ERC721/extensions/ERC721URIStorage.sol\";\r\nimport \"@openzeppelin/contracts/security/Pausable.sol\";\r\nimport \"@openzeppelin/contracts/access/Ownable.sol\";\r\nimport \"@openzeppelin/contracts/token/ERC721/extensions/ERC721Burnable.sol\";\r\nimport \"@openzeppelin/contracts/utils/Counters.sol\";\r\nimport \"./interfaces/ISocialToken.sol\";\r\n\r\ncontract SocialGroupNFT is ERC721, ERC721Enumerable, ERC721URIStorage, Pausable, Ownable, ERC721Burnable {\r\n    using Counters for Counters.Counter;\r\n\r\n    Counters.Counter private _tokenIdCounter;\r\n\r\n    //Create Interface\r\n    ISocialToken socialToken;\r\n\r\n    //Whitelist - address and max minting amount\r\n    mapping (address => bool) private _members;\r\n\r\n    //Votes Per User\r\n    mapping (address => uint256) public voteCount;\r\n\r\n    //Track Created Referendums In This Group\r\n    Referendum[] public referendums;\r\n\r\n    uint256 public activeReferendums;\r\n\r\n    //Track Voters\r\n    address[] public voters;\r\n\r\n    struct Referendum {\r\n        string title;\r\n        string description;\r\n        bool complete;\r\n        uint16 yesVotes;\r\n        uint16 noVotes;\r\n        bool isAnonymous;\r\n        uint256 startTime;\r\n        uint256 endTime;\r\n        bool isPrivate;\r\n        address[] refVoters;\r\n    }\r\n\r\n    modifier isActive(uint id) {\r\n        require(\r\n            referendums[id].complete == false, \r\n            \"SocialGroup: Referendum is complete!\"\r\n        );\r\n        require(\r\n            referendums[id].endTime + referendums[id].startTime > block.timestamp,\r\n            \"SocialGroup: Referendum is expired!\"\r\n        );\r\n        _;\r\n    }\r\n\r\n    constructor(\r\n        string memory _name,\r\n        string memory _symbol,\r\n        address _socialToken,\r\n        address newOwner\r\n    ) ERC721(_name, _symbol) {\r\n        socialToken = ISocialToken(_socialToken);\r\n        _transferOwnership(newOwner);\r\n    }\r\n\r\n    /* Voting Functions */\r\n\r\n    //Create Referendum\r\n    function createReferendum(\r\n        string memory title,\r\n        string memory description,\r\n        bool isAnonymous,\r\n        uint256 endTime, //days\r\n        bool isPrivate\r\n    ) public onlyOwner {\r\n        uint256 lastVote = (block.timestamp + endTime) * 86400;\r\n        Referendum memory newReferendum = Referendum({\r\n            title: title,\r\n            description: description,\r\n            complete: false,\r\n            yesVotes: 0,\r\n            noVotes: 0,\r\n            isAnonymous: isAnonymous,\r\n            startTime: block.timestamp,\r\n            endTime: lastVote,\r\n            isPrivate: isPrivate,\r\n            refVoters: new address[](0)\r\n        });\r\n        \r\n        referendums.push(newReferendum);\r\n        activeReferendums++;\r\n        \r\n        for(uint256 i = 0; i < voters.length; i++){\r\n            address current = voters[i];\r\n            socialToken.mint(current, 1);\r\n        }\r\n    }\r\n\r\n    function voteOnReferendum(\r\n        uint id,\r\n        bool voteStatus\r\n    ) public isActive(id) whenNotPaused {\r\n        require(_members[msg.sender], \"User is not part of this Social Group\");\r\n\r\n        Referendum storage referendum = referendums[id];\r\n        \r\n        if (referendum.isPrivate == true){\r\n            require(isHolder(), \"You Must Mint Before You Can Vote On This Referendum\"); \r\n        }\r\n        \r\n        if (voteStatus == true) {\r\n            referendum.yesVotes+=1;\r\n        }else {\r\n            referendum.noVotes+=1;\r\n        }\r\n\r\n        voters.push(_msgSender());\r\n        referendum.refVoters.push(msg.sender);\r\n        voteCount[msg.sender]+=1;\r\n        socialToken.burn(_msgSender(), 1);\r\n    }\r\n\r\n    function endReferendum(uint id) external onlyOwner isActive(id) {\r\n        referendums[id].complete = true;\r\n        activeReferendums--;\r\n    }\r\n\r\n    /*\r\n    * Mint NFT for Access to Private Proposals\r\n    */\r\n\r\n    function mint() external {\r\n        require(balanceOf(msg.sender) < 1);\r\n\r\n        uint256 tokenId = _tokenIdCounter.current();\r\n        _tokenIdCounter.increment();\r\n        _safeMint(_msgSender(), tokenId);\r\n        _members[_msgSender()] = true;\r\n        socialToken.mint(_msgSender(), 1);\r\n    }\r\n    \r\n    /*\r\n    * Whitelist Gives Access To Public Proposals Created\r\n    */\r\n\r\n    function whitelist(address receiver) external onlyOwner {\r\n        _members[receiver] = true;\r\n        socialToken.mint(receiver, 1);\r\n    }\r\n  \r\n    //Batch Address Whitelist\r\n    function whitelistBatch(address[] calldata addresses) external onlyOwner {\r\n        for (uint256 i = 0; i < addresses.length; i++){\r\n            _members[addresses[i]] = true;\r\n        }\r\n    }\r\n\r\n    function resetVoteCount() external onlyOwner {\r\n        address[] memory votersList = getVoters();\r\n        for (uint256 i = 0; i < votersList.length; i++){\r\n            voteCount[votersList[i]] = 0;\r\n        }\r\n\r\n    }\r\n\r\n    /* View / Pure Functions */\r\n\r\n    function getVoters() public view returns (address[] memory){\r\n        return voters;\r\n    }\r\n\r\n    function getRefVoters(uint256 refId) external view returns (address[] memory){\r\n        require(referendums[refId].isAnonymous == false, \"This Referendum Is Anonymous\");\r\n        return referendums[refId].refVoters;\r\n    }\r\n\r\n    function getVoteCount(address user) external view returns(uint256) {\r\n        return voteCount[user];\r\n    }\r\n\r\n    function isHolder() internal view returns (bool) {\r\n        require(balanceOf(msg.sender) > 0, \"SocialGroupNFT: caller is not authorised\");\r\n        return true;\r\n    }\r\n\r\n    function viewVotes(uint id) external view returns (uint16[2] memory) {\r\n        uint16[2] memory votes = [referendums[id].yesVotes, referendums[id].noVotes];  \r\n        return votes;\r\n    } \r\n\r\n    /* State Functions */\r\n    \r\n    function pause() public onlyOwner {\r\n        _pause();\r\n    }\r\n\r\n    function unpause() public onlyOwner {\r\n        _unpause();\r\n    }\r\n\r\n    /* Inherited Functions */\r\n\r\n    function _beforeTokenTransfer(address from, address to, uint256 tokenId)\r\n        internal\r\n        whenNotPaused\r\n        override(ERC721, ERC721Enumerable)\r\n    {\r\n        super._beforeTokenTransfer(from, to, tokenId);\r\n    }\r\n\r\n    function _burn(uint256 tokenId) internal override(ERC721, ERC721URIStorage) {\r\n        super._burn(tokenId);\r\n    }\r\n\r\n    function tokenURI(uint256 tokenId)\r\n        public\r\n        view\r\n        override(ERC721, ERC721URIStorage)\r\n        returns (string memory)\r\n    {\r\n        return super.tokenURI(tokenId);\r\n    }\r\n\r\n    function supportsInterface(bytes4 interfaceId)\r\n        public\r\n        view\r\n        override(ERC721, ERC721Enumerable)\r\n        returns (bool)\r\n    {\r\n        return super.supportsInterface(interfaceId);\r\n    }\r\n}",
  "sourcePath": "C:\\Users\\nogazi\\univote\\contracts\\SocialGroupNFT.sol",
  "compiler": {
    "name": "solc",
    "version": "0.8.4+commit.c7e474f2.Emscripten.clang"
  },
  "schemaVersion": "3.4.7",
  "updatedAt": "2022-08-08T15:06:18.395Z",
  "devdoc": {
    "kind": "dev",
    "methods": {
      "approve(address,uint256)": {
        "details": "See {IERC721-approve}."
      },
      "balanceOf(address)": {
        "details": "See {IERC721-balanceOf}."
      },
      "burn(uint256)": {
        "details": "Burns `tokenId`. See {ERC721-_burn}. Requirements: - The caller must own `tokenId` or be an approved operator."
      },
      "getApproved(uint256)": {
        "details": "See {IERC721-getApproved}."
      },
      "isApprovedForAll(address,address)": {
        "details": "See {IERC721-isApprovedForAll}."
      },
      "name()": {
        "details": "See {IERC721Metadata-name}."
      },
      "owner()": {
        "details": "Returns the address of the current owner."
      },
      "ownerOf(uint256)": {
        "details": "See {IERC721-ownerOf}."
      },
      "paused()": {
        "details": "Returns true if the contract is paused, and false otherwise."
      },
      "renounceOwnership()": {
        "details": "Leaves the contract without owner. It will not be possible to call `onlyOwner` functions anymore. Can only be called by the current owner. NOTE: Renouncing ownership will leave the contract without an owner, thereby removing any functionality that is only available to the owner."
      },
      "safeTransferFrom(address,address,uint256)": {
        "details": "See {IERC721-safeTransferFrom}."
      },
      "safeTransferFrom(address,address,uint256,bytes)": {
        "details": "See {IERC721-safeTransferFrom}."
      },
      "setApprovalForAll(address,bool)": {
        "details": "See {IERC721-setApprovalForAll}."
      },
      "symbol()": {
        "details": "See {IERC721Metadata-symbol}."
      },
      "tokenByIndex(uint256)": {
        "details": "See {IERC721Enumerable-tokenByIndex}."
      },
      "tokenOfOwnerByIndex(address,uint256)": {
        "details": "See {IERC721Enumerable-tokenOfOwnerByIndex}."
      },
      "totalSupply()": {
        "details": "See {IERC721Enumerable-totalSupply}."
      },
      "transferFrom(address,address,uint256)": {
        "details": "See {IERC721-transferFrom}."
      },
      "transferOwnership(address)": {
        "details": "Transfers ownership of the contract to a new account (`newOwner`). Can only be called by the current owner."
      }
    },
    "version": 1
  },
  "userdoc": {
    "kind": "user",
    "methods": {},
    "version": 1
  }
}