{
  "contractName": "SocialGroupNFT",
  "abi": [
    {
      "inputs": [
        {
          "internalType": "string",
          "name": "_name",
          "type": "string"
        },
        {
          "internalType": "string",
          "name": "_symbol",
          "type": "string"
        },
        {
          "internalType": "address",
          "name": "_socialToken",
          "type": "address"
        },
        {
          "internalType": "address",
          "name": "newOwner",
          "type": "address"
        }
      ],
      "stateMutability": "nonpayable",
      "type": "constructor"
    },
    {
      "anonymous": false,
      "inputs": [
        {
          "indexed": true,
          "internalType": "address",
          "name": "owner",
          "type": "address"
        },
        {
          "indexed": true,
          "internalType": "address",
          "name": "approved",
          "type": "address"
        },
        {
          "indexed": true,
          "internalType": "uint256",
          "name": "tokenId",
          "type": "uint256"
        }
      ],
      "name": "Approval",
      "type": "event"
    },
    {
      "anonymous": false,
      "inputs": [
        {
          "indexed": true,
          "internalType": "address",
          "name": "owner",
          "type": "address"
        },
        {
          "indexed": true,
          "internalType": "address",
          "name": "operator",
          "type": "address"
        },
        {
          "indexed": false,
          "internalType": "bool",
          "name": "approved",
          "type": "bool"
        }
      ],
      "name": "ApprovalForAll",
      "type": "event"
    },
    {
      "anonymous": false,
      "inputs": [
        {
          "indexed": true,
          "internalType": "address",
          "name": "previousOwner",
          "type": "address"
        },
        {
          "indexed": true,
          "internalType": "address",
          "name": "newOwner",
          "type": "address"
        }
      ],
      "name": "OwnershipTransferred",
      "type": "event"
    },
    {
      "anonymous": false,
      "inputs": [
        {
          "indexed": false,
          "internalType": "address",
          "name": "account",
          "type": "address"
        }
      ],
      "name": "Paused",
      "type": "event"
    },
    {
      "anonymous": false,
      "inputs": [
        {
          "indexed": true,
          "internalType": "address",
          "name": "from",
          "type": "address"
        },
        {
          "indexed": true,
          "internalType": "address",
          "name": "to",
          "type": "address"
        },
        {
          "indexed": true,
          "internalType": "uint256",
          "name": "tokenId",
          "type": "uint256"
        }
      ],
      "name": "Transfer",
      "type": "event"
    },
    {
      "anonymous": false,
      "inputs": [
        {
          "indexed": false,
          "internalType": "address",
          "name": "account",
          "type": "address"
        }
      ],
      "name": "Unpaused",
      "type": "event"
    },
    {
      "inputs": [],
      "name": "activeReferendums",
      "outputs": [
        {
          "internalType": "uint256",
          "name": "",
          "type": "uint256"
        }
      ],
      "stateMutability": "view",
      "type": "function"
    },
    {
      "inputs": [
        {
          "internalType": "address",
          "name": "to",
          "type": "address"
        },
        {
          "internalType": "uint256",
          "name": "tokenId",
          "type": "uint256"
        }
      ],
      "name": "approve",
      "outputs": [],
      "stateMutability": "nonpayable",
      "type": "function"
    },
    {
      "inputs": [
        {
          "internalType": "address",
          "name": "owner",
          "type": "address"
        }
      ],
      "name": "balanceOf",
      "outputs": [
        {
          "internalType": "uint256",
          "name": "",
          "type": "uint256"
        }
      ],
      "stateMutability": "view",
      "type": "function"
    },
    {
      "inputs": [
        {
          "internalType": "uint256",
          "name": "tokenId",
          "type": "uint256"
        }
      ],
      "name": "burn",
      "outputs": [],
      "stateMutability": "nonpayable",
      "type": "function"
    },
    {
      "inputs": [
        {
          "internalType": "uint256",
          "name": "tokenId",
          "type": "uint256"
        }
      ],
      "name": "getApproved",
      "outputs": [
        {
          "internalType": "address",
          "name": "",
          "type": "address"
        }
      ],
      "stateMutability": "view",
      "type": "function"
    },
    {
      "inputs": [
        {
          "internalType": "address",
          "name": "owner",
          "type": "address"
        },
        {
          "internalType": "address",
          "name": "operator",
          "type": "address"
        }
      ],
      "name": "isApprovedForAll",
      "outputs": [
        {
          "internalType": "bool",
          "name": "",
          "type": "bool"
        }
      ],
      "stateMutability": "view",
      "type": "function"
    },
    {
      "inputs": [],
      "name": "name",
      "outputs": [
        {
          "internalType": "string",
          "name": "",
          "type": "string"
        }
      ],
      "stateMutability": "view",
      "type": "function"
    },
    {
      "inputs": [],
      "name": "owner",
      "outputs": [
        {
          "internalType": "address",
          "name": "",
          "type": "address"
        }
      ],
      "stateMutability": "view",
      "type": "function"
    },
    {
      "inputs": [
        {
          "internalType": "uint256",
          "name": "tokenId",
          "type": "uint256"
        }
      ],
      "name": "ownerOf",
      "outputs": [
        {
          "internalType": "address",
          "name": "",
          "type": "address"
        }
      ],
      "stateMutability": "view",
      "type": "function"
    },
    {
      "inputs": [],
      "name": "paused",
      "outputs": [
        {
          "internalType": "bool",
          "name": "",
          "type": "bool"
        }
      ],
      "stateMutability": "view",
      "type": "function"
    },
    {
      "inputs": [
        {
          "internalType": "uint256",
          "name": "",
          "type": "uint256"
        }
      ],
      "name": "referendums",
      "outputs": [
        {
          "internalType": "string",
          "name": "title",
          "type": "string"
        },
        {
          "internalType": "string",
          "name": "description",
          "type": "string"
        },
        {
          "internalType": "bool",
          "name": "complete",
          "type": "bool"
        },
        {
          "internalType": "uint16",
          "name": "yesVotes",
          "type": "uint16"
        },
        {
          "internalType": "uint16",
          "name": "noVotes",
          "type": "uint16"
        },
        {
          "internalType": "bool",
          "name": "isAnonymous",
          "type": "bool"
        },
        {
          "internalType": "uint256",
          "name": "startTime",
          "type": "uint256"
        },
        {
          "internalType": "uint256",
          "name": "endTime",
          "type": "uint256"
        },
        {
          "internalType": "bool",
          "name": "isPrivate",
          "type": "bool"
        },
        {
          "internalType": "address",
          "name": "origin",
          "type": "address"
        }
      ],
      "stateMutability": "view",
      "type": "function"
    },
    {
      "inputs": [
        {
          "internalType": "address",
          "name": "",
          "type": "address"
        },
        {
          "internalType": "uint256",
          "name": "",
          "type": "uint256"
        }
      ],
      "name": "referendumsVoteStatus",
      "outputs": [
        {
          "internalType": "bool",
          "name": "",
          "type": "bool"
        }
      ],
      "stateMutability": "view",
      "type": "function"
    },
    {
      "inputs": [],
      "name": "renounceOwnership",
      "outputs": [],
      "stateMutability": "nonpayable",
      "type": "function"
    },
    {
      "inputs": [
        {
          "internalType": "address",
          "name": "from",
          "type": "address"
        },
        {
          "internalType": "address",
          "name": "to",
          "type": "address"
        },
        {
          "internalType": "uint256",
          "name": "tokenId",
          "type": "uint256"
        }
      ],
      "name": "safeTransferFrom",
      "outputs": [],
      "stateMutability": "nonpayable",
      "type": "function"
    },
    {
      "inputs": [
        {
          "internalType": "address",
          "name": "from",
          "type": "address"
        },
        {
          "internalType": "address",
          "name": "to",
          "type": "address"
        },
        {
          "internalType": "uint256",
          "name": "tokenId",
          "type": "uint256"
        },
        {
          "internalType": "bytes",
          "name": "_data",
          "type": "bytes"
        }
      ],
      "name": "safeTransferFrom",
      "outputs": [],
      "stateMutability": "nonpayable",
      "type": "function"
    },
    {
      "inputs": [
        {
          "internalType": "address",
          "name": "operator",
          "type": "address"
        },
        {
          "internalType": "bool",
          "name": "approved",
          "type": "bool"
        }
      ],
      "name": "setApprovalForAll",
      "outputs": [],
      "stateMutability": "nonpayable",
      "type": "function"
    },
    {
      "inputs": [],
      "name": "symbol",
      "outputs": [
        {
          "internalType": "string",
          "name": "",
          "type": "string"
        }
      ],
      "stateMutability": "view",
      "type": "function"
    },
    {
      "inputs": [
        {
          "internalType": "uint256",
          "name": "index",
          "type": "uint256"
        }
      ],
      "name": "tokenByIndex",
      "outputs": [
        {
          "internalType": "uint256",
          "name": "",
          "type": "uint256"
        }
      ],
      "stateMutability": "view",
      "type": "function"
    },
    {
      "inputs": [
        {
          "internalType": "address",
          "name": "owner",
          "type": "address"
        },
        {
          "internalType": "uint256",
          "name": "index",
          "type": "uint256"
        }
      ],
      "name": "tokenOfOwnerByIndex",
      "outputs": [
        {
          "internalType": "uint256",
          "name": "",
          "type": "uint256"
        }
      ],
      "stateMutability": "view",
      "type": "function"
    },
    {
      "inputs": [],
      "name": "totalReferendums",
      "outputs": [
        {
          "internalType": "uint256",
          "name": "",
          "type": "uint256"
        }
      ],
      "stateMutability": "view",
      "type": "function"
    },
    {
      "inputs": [],
      "name": "totalSupply",
      "outputs": [
        {
          "internalType": "uint256",
          "name": "",
          "type": "uint256"
        }
      ],
      "stateMutability": "view",
      "type": "function"
    },
    {
      "inputs": [
        {
          "internalType": "address",
          "name": "from",
          "type": "address"
        },
        {
          "internalType": "address",
          "name": "to",
          "type": "address"
        },
        {
          "internalType": "uint256",
          "name": "tokenId",
          "type": "uint256"
        }
      ],
      "name": "transferFrom",
      "outputs": [],
      "stateMutability": "nonpayable",
      "type": "function"
    },
    {
      "inputs": [
        {
          "internalType": "address",
          "name": "newOwner",
          "type": "address"
        }
      ],
      "name": "transferOwnership",
      "outputs": [],
      "stateMutability": "nonpayable",
      "type": "function"
    },
    {
      "inputs": [
        {
          "internalType": "address",
          "name": "",
          "type": "address"
        }
      ],
      "name": "voteCount",
      "outputs": [
        {
          "internalType": "uint256",
          "name": "",
          "type": "uint256"
        }
      ],
      "stateMutability": "view",
      "type": "function"
    },
    {
      "inputs": [
        {
          "internalType": "uint256",
          "name": "",
          "type": "uint256"
        }
      ],
      "name": "voters",
      "outputs": [
        {
          "internalType": "address",
          "name": "",
          "type": "address"
        }
      ],
      "stateMutability": "view",
      "type": "function"
    },
    {
      "inputs": [
        {
          "internalType": "string",
          "name": "title",
          "type": "string"
        },
        {
          "internalType": "string",
          "name": "description",
          "type": "string"
        },
        {
          "internalType": "bool",
          "name": "isAnonymous",
          "type": "bool"
        },
        {
          "internalType": "uint256",
          "name": "endTime",
          "type": "uint256"
        },
        {
          "internalType": "bool",
          "name": "isPrivate",
          "type": "bool"
        }
      ],
      "name": "createReferendum",
      "outputs": [],
      "stateMutability": "nonpayable",
      "type": "function"
    },
    {
      "inputs": [
        {
          "internalType": "uint256",
          "name": "id",
          "type": "uint256"
        },
        {
          "internalType": "bool",
          "name": "voteStatus",
          "type": "bool"
        }
      ],
      "name": "voteOnReferendum",
      "outputs": [],
      "stateMutability": "nonpayable",
      "type": "function"
    },
    {
      "inputs": [
        {
          "internalType": "uint256",
          "name": "id",
          "type": "uint256"
        }
      ],
      "name": "endReferendum",
      "outputs": [],
      "stateMutability": "nonpayable",
      "type": "function"
    },
    {
      "inputs": [],
      "name": "mint",
      "outputs": [],
      "stateMutability": "nonpayable",
      "type": "function"
    },
    {
      "inputs": [
        {
          "internalType": "address",
          "name": "receiver",
          "type": "address"
        }
      ],
      "name": "whitelist",
      "outputs": [],
      "stateMutability": "nonpayable",
      "type": "function"
    },
    {
      "inputs": [
        {
          "internalType": "address[]",
          "name": "addresses",
          "type": "address[]"
        }
      ],
      "name": "whitelistBatch",
      "outputs": [],
      "stateMutability": "nonpayable",
      "type": "function"
    },
    {
      "inputs": [],
      "name": "resetVoteCount",
      "outputs": [],
      "stateMutability": "nonpayable",
      "type": "function"
    },
    {
      "inputs": [],
      "name": "getVoters",
      "outputs": [
        {
          "internalType": "address[]",
          "name": "",
          "type": "address[]"
        }
      ],
      "stateMutability": "view",
      "type": "function"
    },
    {
      "inputs": [
        {
          "internalType": "uint256",
          "name": "refId",
          "type": "uint256"
        }
      ],
      "name": "getRefVoters",
      "outputs": [
        {
          "internalType": "address[]",
          "name": "",
          "type": "address[]"
        }
      ],
      "stateMutability": "view",
      "type": "function"
    },
    {
      "inputs": [
        {
          "internalType": "address",
          "name": "user",
          "type": "address"
        }
      ],
      "name": "getVoteCount",
      "outputs": [
        {
          "internalType": "uint256",
          "name": "",
          "type": "uint256"
        }
      ],
      "stateMutability": "view",
      "type": "function"
    },
    {
      "inputs": [
        {
          "internalType": "uint256",
          "name": "id",
          "type": "uint256"
        }
      ],
      "name": "viewVotes",
      "outputs": [
        {
          "internalType": "uint16[2]",
          "name": "",
          "type": "uint16[2]"
        }
      ],
      "stateMutability": "view",
      "type": "function"
    },
    {
      "inputs": [],
      "name": "pause",
      "outputs": [],
      "stateMutability": "nonpayable",
      "type": "function"
    },
    {
      "inputs": [],
      "name": "unpause",
      "outputs": [],
      "stateMutability": "nonpayable",
      "type": "function"
    },
    {
      "inputs": [
        {
          "internalType": "uint256",
          "name": "tokenId",
          "type": "uint256"
        }
      ],
      "name": "tokenURI",
      "outputs": [
        {
          "internalType": "string",
          "name": "",
          "type": "string"
        }
      ],
      "stateMutability": "view",
      "type": "function"
    },
    {
      "inputs": [
        {
          "internalType": "bytes4",
          "name": "interfaceId",
          "type": "bytes4"
        }
      ],
      "name": "supportsInterface",
      "outputs": [
        {
          "internalType": "bool",
          "name": "",
          "type": "bool"
        }
      ],
      "stateMutability": "view",
      "type": "function"
    }
  ],
  "bytecode": "0x60806040523480156200001157600080fd5b50604051620038523803806200385283398101604081905262000034916200027b565b8351849084906200004d90600090602085019062000105565b5080516200006390600190602084019062000105565b5050600b805460ff19169055506200007b33620000ab565b600d80546001600160a01b0319166001600160a01b038416179055620000a181620000ab565b505050506200035a565b600b80546001600160a01b03838116610100818102610100600160a81b031985161790945560405193909204169182907f8be0079c531659141344cd1fd0a4f28419497f9722a3daafe3b4186f6b6457e090600090a35050565b828054620001139062000307565b90600052602060002090601f01602090048101928262000137576000855562000182565b82601f106200015257805160ff191683800117855562000182565b8280016001018555821562000182579182015b828111156200018257825182559160200191906001019062000165565b506200019092915062000194565b5090565b5b8082111562000190576000815560010162000195565b80516001600160a01b0381168114620001c357600080fd5b919050565b600082601f830112620001d9578081fd5b81516001600160401b0380821115620001f657620001f662000344565b604051601f8301601f19908116603f0116810190828211818310171562000221576200022162000344565b816040528381526020925086838588010111156200023d578485fd5b8491505b8382101562000260578582018301518183018401529082019062000241565b838211156200027157848385830101525b9695505050505050565b6000806000806080858703121562000291578384fd5b84516001600160401b0380821115620002a8578586fd5b620002b688838901620001c8565b95506020870151915080821115620002cc578485fd5b50620002db87828801620001c8565b935050620002ec60408601620001ab565b9150620002fc60608601620001ab565b905092959194509250565b600181811c908216806200031c57607f821691505b602082108114156200033e57634e487b7160e01b600052602260045260246000fd5b50919050565b634e487b7160e01b600052604160045260246000fd5b6134e8806200036a6000396000f3fe608060405234801561001057600080fd5b50600436106102485760003560e01c806370a082311161013b578063b2636a50116100b8578063e652f4cc1161007c578063e652f4cc14610508578063e985e9c514610531578063eaa535231461056d578063eaa7307c14610580578063f2fde38b1461059357600080fd5b8063b2636a501461049e578063b88d4fde146104c7578063c87b56dd146104da578063cdd72253146104ed578063da58c7d9146104f557600080fd5b80639b19251a116100ff5780639b19251a1461043c578063a002f6ed1461044f578063a22cb4651461046f578063a5ab3b8c14610482578063aecfe0651461048b57600080fd5b806370a08231146103fb578063715018a61461040e5780638456cb59146104165780638da5cb5b1461041e57806395d89b411461043457600080fd5b806334ea294e116101c95780634f6ccce71161018d5780634f6ccce71461039757806354ac809d146103aa5780635c975abb146103bd5780635e3cd7bc146103c85780636352211e146103e857600080fd5b806334ea294e146103325780633757afc2146103605780633f4ba83a1461036957806342842e0e1461037157806342966c681461038457600080fd5b80631249c58b116102105780631249c58b146102d257806318160ddd146102da57806323b872dd146102ec57806326b90a9b146102ff5780632f745c591461031f57600080fd5b806301ffc9a71461024d578063039d60191461027557806306fdde031461027f578063081812fc14610294578063095ea7b3146102bf575b600080fd5b61026061025b366004612eff565b6105a6565b60405190151581526020015b60405180910390f35b61027d6105b7565b005b610287610671565b60405161026c9190613117565b6102a76102a2366004612fc3565b610703565b6040516001600160a01b03909116815260200161026c565b61027d6102cd366004612e66565b610798565b61027d6108ae565b6008545b60405190815260200161026c565b61027d6102fa366004612d89565b61096c565b61031261030d366004612fc3565b61099e565b60405161026c9190613095565b6102de61032d366004612e66565b610ac0565b610260610340366004612e66565b601460209081526000928352604080842090915290825290205460ff1681565b6102de60115481565b61027d610b56565b61027d61037f366004612d89565b610b90565b61027d610392366004612fc3565b610bab565b6102de6103a5366004612fc3565b610c25565b61027d6103b8366004612f37565b610cc6565b600b5460ff16610260565b6102de6103d6366004612d3d565b600f6020526000908152604090205481565b6102a76103f6366004612fc3565b610f8e565b6102de610409366004612d3d565b611005565b61027d61108c565b61027d6110c6565b600b5461010090046001600160a01b03166102a7565b6102876110fe565b61027d61044a366004612d3d565b61110d565b61046261045d366004612fc3565b611194565b60405161026c91906130e2565b61027d61047d366004612e3d565b611240565b6102de60125481565b61027d610499366004612fc3565b61124b565b6104b16104ac366004612fc3565b6113bc565b60405161026c9a9998979695949392919061312a565b61027d6104d5366004612dc4565b61154d565b6102876104e8366004612fc3565b611585565b610312611590565b6102a7610503366004612fc3565b6115f1565b6102de610516366004612d3d565b6001600160a01b03166000908152600f602052604090205490565b61026061053f366004612d57565b6001600160a01b03918216600090815260056020908152604080832093909416825291909152205460ff1690565b61027d61057b366004612e8f565b61161b565b61027d61058e366004612fdb565b6116cb565b61027d6105a1366004612d3d565b611aab565b60006105b182611b49565b92915050565b600b546001600160a01b036101009091041633146105f05760405162461bcd60e51b81526004016105e7906132a8565b60405180910390fd5b60006105fa611590565b905060005b815181101561066d576000600f600084848151811061062e57634e487b7160e01b600052603260045260246000fd5b60200260200101516001600160a01b03166001600160a01b031681526020019081526020016000208190555080806106659061342b565b9150506105ff565b5050565b606060008054610680906133f0565b80601f01602080910402602001604051908101604052809291908181526020018280546106ac906133f0565b80156106f95780601f106106ce576101008083540402835291602001916106f9565b820191906000526020600020905b8154815290600101906020018083116106dc57829003601f168201915b5050505050905090565b6000818152600260205260408120546001600160a01b031661077c5760405162461bcd60e51b815260206004820152602c60248201527f4552433732313a20617070726f76656420717565727920666f72206e6f6e657860448201526b34b9ba32b73a103a37b5b2b760a11b60648201526084016105e7565b506000908152600460205260409020546001600160a01b031690565b60006107a382610f8e565b9050806001600160a01b0316836001600160a01b031614156108115760405162461bcd60e51b815260206004820152602160248201527f4552433732313a20617070726f76616c20746f2063757272656e74206f776e656044820152603960f91b60648201526084016105e7565b336001600160a01b038216148061082d575061082d813361053f565b61089f5760405162461bcd60e51b815260206004820152603860248201527f4552433732313a20617070726f76652063616c6c6572206973206e6f74206f7760448201527f6e6572206e6f7220617070726f76656420666f7220616c6c000000000000000060648201526084016105e7565b6108a98383611b6e565b505050565b60016108b933611005565b106108c357600080fd5b60006108ce600c5490565b90506108de600c80546001019055565b6108e83382611bdc565b336000818152600e602052604090819020805460ff19166001908117909155600d5491516340c10f1960e01b8152600481019390935260248301526001600160a01b0316906340c10f19906044015b600060405180830381600087803b15801561095157600080fd5b505af1158015610965573d6000803e3d6000fd5b5050505050565b610977335b82611bf6565b6109935760405162461bcd60e51b81526004016105e7906132dd565b6108a9838383611ced565b6060601082815481106109c157634e487b7160e01b600052603260045260246000fd5b600091825260209091206008909102016002015465010000000000900460ff1615610a2e5760405162461bcd60e51b815260206004820152601c60248201527f54686973205265666572656e64756d20497320416e6f6e796d6f75730000000060448201526064016105e7565b60108281548110610a4f57634e487b7160e01b600052603260045260246000fd5b9060005260206000209060080201600601805480602002602001604051908101604052809291908181526020018280548015610ab457602002820191906000526020600020905b81546001600160a01b03168152600190910190602001808311610a96575b50505050509050919050565b6000610acb83611005565b8210610b2d5760405162461bcd60e51b815260206004820152602b60248201527f455243373231456e756d657261626c653a206f776e657220696e646578206f7560448201526a74206f6620626f756e647360a81b60648201526084016105e7565b506001600160a01b03919091166000908152600660209081526040808320938352929052205490565b600b546001600160a01b03610100909104163314610b865760405162461bcd60e51b81526004016105e7906132a8565b610b8e611e94565b565b6108a98383836040518060200160405280600081525061154d565b610bb433610971565b610c195760405162461bcd60e51b815260206004820152603060248201527f4552433732314275726e61626c653a2063616c6c6572206973206e6f74206f7760448201526f1b995c881b9bdc88185c1c1c9bdd995960821b60648201526084016105e7565b610c2281611f27565b50565b6000610c3060085490565b8210610c935760405162461bcd60e51b815260206004820152602c60248201527f455243373231456e756d657261626c653a20676c6f62616c20696e646578206f60448201526b7574206f6620626f756e647360a01b60648201526084016105e7565b60088281548110610cb457634e487b7160e01b600052603260045260246000fd5b90600052602060002001549050919050565b6000610cd133611005565b11610cdb57600080fd5b6000610ce7834261334b565b610cf49062015180613377565b604080516101608101825288815260208082018990526000828401819052606083018190526080830181905288151560a08401524260c084015260e0830185905286151561010084015283518181528083019094526101208301939093523061014083015260108054600181018255935281518051949550919384936008027f1b6847dc741a1b0cd08d278845f9d819d87b734759afb55fe2de5cb82a9ae6720192610da4928492910190612b3a565b506020828101518051610dbd9260018501920190612b3a565b5060408201516002820180546060850151608086015160a08701511515650100000000000265ff00000000001961ffff9283166301000000021665ffffff000000199290931661010090810262ffff00199715159790971662ffffff199095169490941795909517161792909217905560c0830151600383015560e0830151600483015582015160058201805491151560ff19929092169190911790556101208201518051610e76916006840191602090910190612bbe565b506101409190910151600790910180546001600160a01b0319166001600160a01b0390921691909117905560118054906000610eb18361342b565b909155505060128054906000610ec68361342b565b919050555060005b601354811015610f8457600060138281548110610efb57634e487b7160e01b600052603260045260246000fd5b600091825260209091200154600d546040516340c10f1960e01b81526001600160a01b03928316600482018190526001602483015293509116906340c10f1990604401600060405180830381600087803b158015610f5857600080fd5b505af1158015610f6c573d6000803e3d6000fd5b50505050508080610f7c9061342b565b915050610ece565b5050505050505050565b6000818152600260205260408120546001600160a01b0316806105b15760405162461bcd60e51b815260206004820152602960248201527f4552433732313a206f776e657220717565727920666f72206e6f6e657869737460448201526832b73a103a37b5b2b760b91b60648201526084016105e7565b60006001600160a01b0382166110705760405162461bcd60e51b815260206004820152602a60248201527f4552433732313a2062616c616e636520717565727920666f7220746865207a65604482015269726f206164647265737360b01b60648201526084016105e7565b506001600160a01b031660009081526003602052604090205490565b600b546001600160a01b036101009091041633146110bc5760405162461bcd60e51b81526004016105e7906132a8565b610b8e6000611f30565b600b546001600160a01b036101009091041633146110f65760405162461bcd60e51b81526004016105e7906132a8565b610b8e611f8a565b606060018054610680906133f0565b600b546001600160a01b0361010090910416331461113d5760405162461bcd60e51b81526004016105e7906132a8565b6001600160a01b038181166000818152600e602052604090819020805460ff19166001908117909155600d5491516340c10f1960e01b815260048101939093526024830152909116906340c10f1990604401610937565b61119c612c13565b60006040518060400160405280601085815481106111ca57634e487b7160e01b600052603260045260246000fd5b906000526020600020906008020160020160019054906101000a900461ffff1661ffff1661ffff1681526020016010858154811061121857634e487b7160e01b600052603260045260246000fd5b60009182526020909120600890910201600201546301000000900461ffff1690529392505050565b61066d338383611fe2565b600b546001600160a01b0361010090910416331461127b5760405162461bcd60e51b81526004016105e7906132a8565b806010818154811061129d57634e487b7160e01b600052603260045260246000fd5b600091825260209091206002600890920201015460ff16156112d15760405162461bcd60e51b81526004016105e79061323a565b42601082815481106112f357634e487b7160e01b600052603260045260246000fd5b9060005260206000209060080201600301546010838154811061132657634e487b7160e01b600052603260045260246000fd5b906000526020600020906008020160040154611342919061334b565b1161135f5760405162461bcd60e51b81526004016105e7906131a5565b60016010838154811061138257634e487b7160e01b600052603260045260246000fd5b60009182526020822060089190910201600201805460ff19169215159290921790915560118054916113b3836133d9565b91905055505050565b601081815481106113cc57600080fd5b90600052602060002090600802016000915090508060000180546113ef906133f0565b80601f016020809104026020016040519081016040528092919081815260200182805461141b906133f0565b80156114685780601f1061143d57610100808354040283529160200191611468565b820191906000526020600020905b81548152906001019060200180831161144b57829003601f168201915b50505050509080600101805461147d906133f0565b80601f01602080910402602001604051908101604052809291908181526020018280546114a9906133f0565b80156114f65780601f106114cb576101008083540402835291602001916114f6565b820191906000526020600020905b8154815290600101906020018083116114d957829003601f168201915b5050506002840154600385015460048601546005870154600790970154959660ff8085169761ffff61010087048116985063010000008704169650650100000000009095048116949116906001600160a01b03168a565b6115573383611bf6565b6115735760405162461bcd60e51b81526004016105e7906132dd565b61157f848484846120b1565b50505050565b60606105b1826120e4565b606060138054806020026020016040519081016040528092919081815260200182805480156106f957602002820191906000526020600020905b81546001600160a01b031681526001909101906020018083116115ca575050505050905090565b6013818154811061160157600080fd5b6000918252602090912001546001600160a01b0316905081565b600b546001600160a01b0361010090910416331461164b5760405162461bcd60e51b81526004016105e7906132a8565b60005b818110156108a9576001600e600085858581811061167c57634e487b7160e01b600052603260045260246000fd5b90506020020160208101906116919190612d3d565b6001600160a01b031681526020810191909152604001600020805460ff1916911515919091179055806116c38161342b565b91505061164e565b81601081815481106116ed57634e487b7160e01b600052603260045260246000fd5b600091825260209091206002600890920201015460ff16156117215760405162461bcd60e51b81526004016105e79061323a565b426010828154811061174357634e487b7160e01b600052603260045260246000fd5b9060005260206000209060080201600301546010838154811061177657634e487b7160e01b600052603260045260246000fd5b906000526020600020906008020160040154611792919061334b565b116117af5760405162461bcd60e51b81526004016105e7906131a5565b600b5460ff16156117d25760405162461bcd60e51b81526004016105e79061327e565b336000908152600e602052604090205460ff1661183f5760405162461bcd60e51b815260206004820152602560248201527f55736572206973206e6f742070617274206f66207468697320536f6369616c20604482015264047726f75760dc1b60648201526084016105e7565b33600090815260146020908152604080832086845290915290205460ff161561186757600080fd5b60006010848154811061188a57634e487b7160e01b600052603260045260246000fd5b6000918252602090912060056008909202019081015490915060ff16151560011415611921576118b8612263565b6119215760405162461bcd60e51b815260206004820152603460248201527f596f75204d757374204d696e74204265666f726520596f752043616e20566f7460448201527365204f6e2054686973205265666572656e64756d60601b60648201526084016105e7565b6001831515141561196d5760018160020160018282829054906101000a900461ffff1661194e919061332e565b92506101000a81548161ffff021916908361ffff1602179055506119aa565b60018160020160038282829054906101000a900461ffff1661198f919061332e565b92506101000a81548161ffff021916908361ffff1602179055505b3360008181526014602090815260408083208884528252808320805460ff19166001908117909155601380548083019091557f66de8ffda797e3de9c05e8fc57b3bf0ec28a930d40b0d285d93c06501cf6a0900180546001600160a01b03199081168717909155600687018054808401825590865284862001805490911686179055938352600f90915281208054909190611a4690849061334b565b9091555050600d54604051632770a7eb60e21b8152336004820152600160248201526001600160a01b0390911690639dc29fac90604401600060405180830381600087803b158015611a9757600080fd5b505af1158015610f84573d6000803e3d6000fd5b600b546001600160a01b03610100909104163314611adb5760405162461bcd60e51b81526004016105e7906132a8565b6001600160a01b038116611b405760405162461bcd60e51b815260206004820152602660248201527f4f776e61626c653a206e6577206f776e657220697320746865207a65726f206160448201526564647265737360d01b60648201526084016105e7565b610c2281611f30565b60006001600160e01b0319821663780e9d6360e01b14806105b157506105b1826122d3565b600081815260046020526040902080546001600160a01b0319166001600160a01b0384169081179091558190611ba382610f8e565b6001600160a01b03167f8c5be1e5ebec7d5bd14f71427d1e84f3dd0314c0f7b2291e5b200ac8c7c3b92560405160405180910390a45050565b61066d828260405180602001604052806000815250612323565b6000818152600260205260408120546001600160a01b0316611c6f5760405162461bcd60e51b815260206004820152602c60248201527f4552433732313a206f70657261746f7220717565727920666f72206e6f6e657860448201526b34b9ba32b73a103a37b5b2b760a11b60648201526084016105e7565b6000611c7a83610f8e565b9050806001600160a01b0316846001600160a01b03161480611cb55750836001600160a01b0316611caa84610703565b6001600160a01b0316145b80611ce557506001600160a01b0380821660009081526005602090815260408083209388168352929052205460ff165b949350505050565b826001600160a01b0316611d0082610f8e565b6001600160a01b031614611d645760405162461bcd60e51b815260206004820152602560248201527f4552433732313a207472616e736665722066726f6d20696e636f72726563742060448201526437bbb732b960d91b60648201526084016105e7565b6001600160a01b038216611dc65760405162461bcd60e51b8152602060048201526024808201527f4552433732313a207472616e7366657220746f20746865207a65726f206164646044820152637265737360e01b60648201526084016105e7565b611dd1838383612356565b611ddc600082611b6e565b6001600160a01b0383166000908152600360205260408120805460019290611e05908490613396565b90915550506001600160a01b0382166000908152600360205260408120805460019290611e3390849061334b565b909155505060008181526002602052604080822080546001600160a01b0319166001600160a01b0386811691821790925591518493918716917fddf252ad1be2c89b69c2b068fc378daa952ba7f163c4a11628f55a4df523b3ef91a4505050565b600b5460ff16611edd5760405162461bcd60e51b815260206004820152601460248201527314185d5cd8589b194e881b9bdd081c185d5cd95960621b60448201526064016105e7565b600b805460ff191690557f5db9ee0a495bf2e6ff9c91a7834c1ba4fdd244a5e8aa4e537bd38aeae4b073aa335b6040516001600160a01b03909116815260200160405180910390a1565b610c2281612384565b600b80546001600160a01b03838116610100818102610100600160a81b031985161790945560405193909204169182907f8be0079c531659141344cd1fd0a4f28419497f9722a3daafe3b4186f6b6457e090600090a35050565b600b5460ff1615611fad5760405162461bcd60e51b81526004016105e79061327e565b600b805460ff191660011790557f62e78cea01bee320cd4e420270b5ea74000d11b0c9f74754ebdbfc544b05a258611f0a3390565b816001600160a01b0316836001600160a01b031614156120445760405162461bcd60e51b815260206004820152601960248201527f4552433732313a20617070726f766520746f2063616c6c65720000000000000060448201526064016105e7565b6001600160a01b03838116600081815260056020908152604080832094871680845294825291829020805460ff191686151590811790915591519182527f17307eab39ab6107e8899845ad3d59bd9653f200f220920489ca2b5937696c31910160405180910390a3505050565b6120bc848484611ced565b6120c8848484846123c4565b61157f5760405162461bcd60e51b81526004016105e7906131e8565b6000818152600260205260409020546060906001600160a01b03166121655760405162461bcd60e51b815260206004820152603160248201527f45524337323155524953746f726167653a2055524920717565727920666f72206044820152703737b732bc34b9ba32b73a103a37b5b2b760791b60648201526084016105e7565b6000828152600a60205260408120805461217e906133f0565b80601f01602080910402602001604051908101604052809291908181526020018280546121aa906133f0565b80156121f75780601f106121cc576101008083540402835291602001916121f7565b820191906000526020600020905b8154815290600101906020018083116121da57829003601f168201915b50505050509050600061221560408051602081019091526000815290565b9050805160001415612228575092915050565b81511561225a578082604051602001612242929190613029565b60405160208183030381529060405292505050919050565b611ce5846124d1565b60008061226f33611005565b116122cd5760405162461bcd60e51b815260206004820152602860248201527f536f6369616c47726f75704e46543a2063616c6c6572206973206e6f742061756044820152671d1a1bdc9a5cd95960c21b60648201526084016105e7565b50600190565b60006001600160e01b031982166380ac58cd60e01b148061230457506001600160e01b03198216635b5e139f60e01b145b806105b157506301ffc9a760e01b6001600160e01b03198316146105b1565b61232d83836125b9565b61233a60008484846123c4565b6108a95760405162461bcd60e51b81526004016105e7906131e8565b600b5460ff16156123795760405162461bcd60e51b81526004016105e79061327e565b6108a9838383612707565b61238d816127bf565b6000818152600a6020526040902080546123a6906133f0565b159050610c22576000818152600a60205260408120610c2291612c31565b60006001600160a01b0384163b156124c657604051630a85bd0160e11b81526001600160a01b0385169063150b7a0290612408903390899088908890600401613058565b602060405180830381600087803b15801561242257600080fd5b505af1925050508015612452575060408051601f3d908101601f1916820190925261244f91810190612f1b565b60015b6124ac573d808015612480576040519150601f19603f3d011682016040523d82523d6000602084013e612485565b606091505b5080516124a45760405162461bcd60e51b81526004016105e7906131e8565b805181602001fd5b6001600160e01b031916630a85bd0160e11b149050611ce5565b506001949350505050565b6000818152600260205260409020546060906001600160a01b03166125505760405162461bcd60e51b815260206004820152602f60248201527f4552433732314d657461646174613a2055524920717565727920666f72206e6f60448201526e3732bc34b9ba32b73a103a37b5b2b760891b60648201526084016105e7565b600061256760408051602081019091526000815290565b9050600081511161258757604051806020016040528060008152506125b2565b8061259184612866565b6040516020016125a2929190613029565b6040516020818303038152906040525b9392505050565b6001600160a01b03821661260f5760405162461bcd60e51b815260206004820181905260248201527f4552433732313a206d696e7420746f20746865207a65726f206164647265737360448201526064016105e7565b6000818152600260205260409020546001600160a01b0316156126745760405162461bcd60e51b815260206004820152601c60248201527f4552433732313a20746f6b656e20616c7265616479206d696e7465640000000060448201526064016105e7565b61268060008383612356565b6001600160a01b03821660009081526003602052604081208054600192906126a990849061334b565b909155505060008181526002602052604080822080546001600160a01b0319166001600160a01b03861690811790915590518392907fddf252ad1be2c89b69c2b068fc378daa952ba7f163c4a11628f55a4df523b3ef908290a45050565b6001600160a01b0383166127625761275d81600880546000838152600960205260408120829055600182018355919091527ff3f7a9fe364faab93b216da50a3214154f22a0a2b415b23a84c8169e8b636ee30155565b612785565b816001600160a01b0316836001600160a01b031614612785576127858382612980565b6001600160a01b03821661279c576108a981612a1d565b826001600160a01b0316826001600160a01b0316146108a9576108a98282612af6565b60006127ca82610f8e565b90506127d881600084612356565b6127e3600083611b6e565b6001600160a01b038116600090815260036020526040812080546001929061280c908490613396565b909155505060008281526002602052604080822080546001600160a01b0319169055518391906001600160a01b038416907fddf252ad1be2c89b69c2b068fc378daa952ba7f163c4a11628f55a4df523b3ef908390a45050565b60608161288a5750506040805180820190915260018152600360fc1b602082015290565b8160005b81156128b4578061289e8161342b565b91506128ad9050600a83613363565b915061288e565b60008167ffffffffffffffff8111156128dd57634e487b7160e01b600052604160045260246000fd5b6040519080825280601f01601f191660200182016040528015612907576020820181803683370190505b5090505b8415611ce55761291c600183613396565b9150612929600a86613446565b61293490603061334b565b60f81b81838151811061295757634e487b7160e01b600052603260045260246000fd5b60200101906001600160f81b031916908160001a905350612979600a86613363565b945061290b565b6000600161298d84611005565b6129979190613396565b6000838152600760205260409020549091508082146129ea576001600160a01b03841660009081526006602090815260408083208584528252808320548484528184208190558352600790915290208190555b5060009182526007602090815260408084208490556001600160a01b039094168352600681528383209183525290812055565b600854600090612a2f90600190613396565b60008381526009602052604081205460088054939450909284908110612a6557634e487b7160e01b600052603260045260246000fd5b906000526020600020015490508060088381548110612a9457634e487b7160e01b600052603260045260246000fd5b6000918252602080832090910192909255828152600990915260408082208490558582528120556008805480612ada57634e487b7160e01b600052603160045260246000fd5b6001900381819060005260206000200160009055905550505050565b6000612b0183611005565b6001600160a01b039093166000908152600660209081526040808320868452825280832085905593825260079052919091209190915550565b828054612b46906133f0565b90600052602060002090601f016020900481019282612b685760008555612bae565b82601f10612b8157805160ff1916838001178555612bae565b82800160010185558215612bae579182015b82811115612bae578251825591602001919060010190612b93565b50612bba929150612c67565b5090565b828054828255906000526020600020908101928215612bae579160200282015b82811115612bae57825182546001600160a01b0319166001600160a01b03909116178255602090920191600190910190612bde565b60405180604001604052806002906020820280368337509192915050565b508054612c3d906133f0565b6000825580601f10612c4d575050565b601f016020900490600052602060002090810190610c2291905b5b80821115612bba5760008155600101612c68565b600067ffffffffffffffff80841115612c9757612c97613486565b604051601f8501601f19908116603f01168101908282118183101715612cbf57612cbf613486565b81604052809350858152868686011115612cd857600080fd5b858560208301376000602087830101525050509392505050565b80356001600160a01b0381168114612d0957600080fd5b919050565b80358015158114612d0957600080fd5b600082601f830112612d2e578081fd5b6125b283833560208501612c7c565b600060208284031215612d4e578081fd5b6125b282612cf2565b60008060408385031215612d69578081fd5b612d7283612cf2565b9150612d8060208401612cf2565b90509250929050565b600080600060608486031215612d9d578081fd5b612da684612cf2565b9250612db460208501612cf2565b9150604084013590509250925092565b60008060008060808587031215612dd9578081fd5b612de285612cf2565b9350612df060208601612cf2565b925060408501359150606085013567ffffffffffffffff811115612e12578182fd5b8501601f81018713612e22578182fd5b612e3187823560208401612c7c565b91505092959194509250565b60008060408385031215612e4f578182fd5b612e5883612cf2565b9150612d8060208401612d0e565b60008060408385031215612e78578182fd5b612e8183612cf2565b946020939093013593505050565b60008060208385031215612ea1578182fd5b823567ffffffffffffffff80821115612eb8578384fd5b818501915085601f830112612ecb578384fd5b813581811115612ed9578485fd5b8660208260051b8501011115612eed578485fd5b60209290920196919550909350505050565b600060208284031215612f10578081fd5b81356125b28161349c565b600060208284031215612f2c578081fd5b81516125b28161349c565b600080600080600060a08688031215612f4e578081fd5b853567ffffffffffffffff80821115612f65578283fd5b612f7189838a01612d1e565b96506020880135915080821115612f86578283fd5b50612f9388828901612d1e565b945050612fa260408701612d0e565b925060608601359150612fb760808701612d0e565b90509295509295909350565b600060208284031215612fd4578081fd5b5035919050565b60008060408385031215612fed578182fd5b82359150612d8060208401612d0e565b600081518084526130158160208601602086016133ad565b601f01601f19169290920160200192915050565b6000835161303b8184602088016133ad565b83519083019061304f8183602088016133ad565b01949350505050565b6001600160a01b038581168252841660208201526040810183905260806060820181905260009061308b90830184612ffd565b9695505050505050565b6020808252825182820181905260009190848201906040850190845b818110156130d65783516001600160a01b0316835292840192918401916001016130b1565b50909695505050505050565b60408101818360005b600281101561310e57815161ffff168352602092830192909101906001016130eb565b50505092915050565b6020815260006125b26020830184612ffd565b600061014080835261313e8184018e612ffd565b90508281036020840152613152818d612ffd565b9a15156040840152505061ffff978816606082015295909616608086015292151560a085015260c084019190915260e083015215156101008201526001600160a01b039091166101209091015292915050565b60208082526023908201527f536f6369616c47726f75703a205265666572656e64756d20697320657870697260408201526265642160e81b606082015260800190565b60208082526032908201527f4552433732313a207472616e7366657220746f206e6f6e20455243373231526560408201527131b2b4bb32b91034b6b83632b6b2b73a32b960711b606082015260800190565b60208082526024908201527f536f6369616c47726f75703a205265666572656e64756d20697320636f6d706c6040820152636574652160e01b606082015260800190565b60208082526010908201526f14185d5cd8589b194e881c185d5cd95960821b604082015260600190565b6020808252818101527f4f776e61626c653a2063616c6c6572206973206e6f7420746865206f776e6572604082015260600190565b60208082526031908201527f4552433732313a207472616e736665722063616c6c6572206973206e6f74206f6040820152701ddb995c881b9bdc88185c1c1c9bdd9959607a1b606082015260800190565b600061ffff80831681851680830382111561304f5761304f61345a565b6000821982111561335e5761335e61345a565b500190565b60008261337257613372613470565b500490565b60008160001904831182151516156133915761339161345a565b500290565b6000828210156133a8576133a861345a565b500390565b60005b838110156133c85781810151838201526020016133b0565b8381111561157f5750506000910152565b6000816133e8576133e861345a565b506000190190565b600181811c9082168061340457607f821691505b6020821081141561342557634e487b7160e01b600052602260045260246000fd5b50919050565b600060001982141561343f5761343f61345a565b5060010190565b60008261345557613455613470565b500690565b634e487b7160e01b600052601160045260246000fd5b634e487b7160e01b600052601260045260246000fd5b634e487b7160e01b600052604160045260246000fd5b6001600160e01b031981168114610c2257600080fdfea26469706673582212206383109108e6724abc36519fe5dfad10a0a640cd376889cc8c18eb0b2013c05064736f6c63430008040033",
  "immutableReferences": {},
  "source": "// SPDX-License-Identifier: MIT\r\npragma solidity ^0.8.4;\r\n\r\nimport \"@openzeppelin/contracts/token/ERC721/ERC721.sol\";\r\nimport \"@openzeppelin/contracts/token/ERC721/extensions/ERC721Enumerable.sol\";\r\nimport \"@openzeppelin/contracts/token/ERC721/extensions/ERC721URIStorage.sol\";\r\nimport \"@openzeppelin/contracts/security/Pausable.sol\";\r\nimport \"@openzeppelin/contracts/access/Ownable.sol\";\r\nimport \"@openzeppelin/contracts/token/ERC721/extensions/ERC721Burnable.sol\";\r\nimport \"@openzeppelin/contracts/utils/Counters.sol\";\r\nimport \"./interfaces/ISocialToken.sol\";\r\n\r\ncontract SocialGroupNFT is ERC721, ERC721Enumerable, ERC721URIStorage, Pausable, Ownable, ERC721Burnable {\r\n    using Counters for Counters.Counter;\r\n\r\n    Counters.Counter private _tokenIdCounter;\r\n\r\n    //Create Interface\r\n    ISocialToken socialToken;\r\n\r\n    //Whitelist - address and max minting amount\r\n    mapping (address => bool) private _members;\r\n\r\n    //Votes Per User\r\n    mapping (address => uint256) public voteCount;\r\n\r\n    //Track Created Referendums In This Group\r\n    Referendum[] public referendums;\r\n\r\n    uint256 public activeReferendums;\r\n    uint256 public totalReferendums;\r\n\r\n    //Track Voters\r\n    address[] public voters;\r\n    mapping(address => mapping( uint256 => bool)) public referendumsVoteStatus;\r\n\r\n    struct Referendum {\r\n        string title;\r\n        string description;\r\n        bool complete;\r\n        uint16 yesVotes;\r\n        uint16 noVotes;\r\n        bool isAnonymous;\r\n        uint256 startTime;\r\n        uint256 endTime;\r\n        bool isPrivate;\r\n        address[] refVoters;\r\n        address origin;\r\n    }\r\n\r\n    modifier isActive(uint id) {\r\n        require(\r\n            referendums[id].complete == false, \r\n            \"SocialGroup: Referendum is complete!\"\r\n        );\r\n        require(\r\n            referendums[id].endTime + referendums[id].startTime > block.timestamp,\r\n            \"SocialGroup: Referendum is expired!\"\r\n        );\r\n        _;\r\n    }\r\n\r\n    constructor(\r\n        string memory _name,\r\n        string memory _symbol,\r\n        address _socialToken,\r\n        address newOwner\r\n    ) ERC721(_name, _symbol) {\r\n        socialToken = ISocialToken(_socialToken);\r\n        _transferOwnership(newOwner);\r\n    }\r\n\r\n    /* Voting Functions */\r\n\r\n    //Create Referendum\r\n    function createReferendum(\r\n        string memory title,\r\n        string memory description,\r\n        bool isAnonymous,\r\n        uint256 endTime, //days\r\n        bool isPrivate\r\n    ) public {\r\n        require(balanceOf(msg.sender) > 0);\r\n        uint256 lastVote = (block.timestamp + endTime) * 86400;\r\n        Referendum memory newReferendum = Referendum({\r\n            title: title,\r\n            description: description,\r\n            complete: false,\r\n            yesVotes: 0,\r\n            noVotes: 0,\r\n            isAnonymous: isAnonymous,\r\n            startTime: block.timestamp,\r\n            endTime: lastVote,\r\n            isPrivate: isPrivate,\r\n            refVoters: new address[](0),\r\n            origin: address(this)\r\n        });\r\n        \r\n        referendums.push(newReferendum);\r\n        activeReferendums++;\r\n        totalReferendums++;\r\n        \r\n        for(uint256 i = 0; i < voters.length; i++){\r\n            address current = voters[i];\r\n            socialToken.mint(current, 1);\r\n        }\r\n    }\r\n\r\n    function voteOnReferendum(\r\n        uint id,\r\n        bool voteStatus\r\n    ) public isActive(id) whenNotPaused {\r\n        require(_members[msg.sender], \"User is not part of this Social Group\");\r\n        require(referendumsVoteStatus[msg.sender][id] == false);\r\n\r\n        Referendum storage referendum = referendums[id];\r\n        \r\n        if (referendum.isPrivate == true){\r\n            require(isHolder(), \"You Must Mint Before You Can Vote On This Referendum\"); \r\n        }\r\n        \r\n        if (voteStatus == true) {\r\n            referendum.yesVotes+=1;\r\n        }else {\r\n            referendum.noVotes+=1;\r\n        }\r\n\r\n        referendumsVoteStatus[msg.sender][id] = true;\r\n        voters.push(msg.sender);\r\n        referendum.refVoters.push(msg.sender);\r\n        voteCount[msg.sender]+=1;\r\n        socialToken.burn(msg.sender, 1);\r\n    }\r\n\r\n    function endReferendum(uint id) external onlyOwner isActive(id) {\r\n        referendums[id].complete = true;\r\n        activeReferendums--;\r\n    }\r\n\r\n    /*\r\n    * Mint NFT for Access to Private Proposals\r\n    */\r\n\r\n    function mint() external {\r\n        require(balanceOf(msg.sender) < 1);\r\n\r\n        uint256 tokenId = _tokenIdCounter.current();\r\n        _tokenIdCounter.increment();\r\n        _safeMint(msg.sender, tokenId);\r\n        _members[msg.sender] = true;\r\n        socialToken.mint(msg.sender, 1);\r\n    }\r\n    \r\n    /*\r\n    * Whitelist Gives Access To Public Proposals Created\r\n    */\r\n\r\n    function whitelist(address receiver) external onlyOwner {\r\n        _members[receiver] = true;\r\n        socialToken.mint(receiver, 1);\r\n    }\r\n  \r\n    //Batch Address Whitelist\r\n    function whitelistBatch(address[] calldata addresses) external onlyOwner {\r\n        for (uint256 i = 0; i < addresses.length; i++){\r\n            _members[addresses[i]] = true;\r\n        }\r\n    }\r\n\r\n    function resetVoteCount() external onlyOwner {\r\n        address[] memory votersList = getVoters();\r\n        for (uint256 i = 0; i < votersList.length; i++){\r\n            voteCount[votersList[i]] = 0;\r\n        }\r\n\r\n    }\r\n\r\n    /* View / Pure Functions */\r\n\r\n    function getVoters() public view returns (address[] memory){\r\n        return voters;\r\n    }\r\n\r\n    function getRefVoters(uint256 refId) external view returns (address[] memory){\r\n        require(referendums[refId].isAnonymous == false, \"This Referendum Is Anonymous\");\r\n        return referendums[refId].refVoters;\r\n    }\r\n\r\n    function getVoteCount(address user) external view returns(uint256) {\r\n        return voteCount[user];\r\n    }\r\n\r\n    function isHolder() internal view returns (bool) {\r\n        require(balanceOf(msg.sender) > 0, \"SocialGroupNFT: caller is not authorised\");\r\n        return true;\r\n    }\r\n\r\n    function viewVotes(uint id) external view returns (uint16[2] memory) {\r\n        uint16[2] memory votes = [referendums[id].yesVotes, referendums[id].noVotes];  \r\n        return votes;\r\n    } \r\n\r\n    /* State Functions */\r\n    \r\n    function pause() public onlyOwner {\r\n        _pause();\r\n    }\r\n\r\n    function unpause() public onlyOwner {\r\n        _unpause();\r\n    }\r\n\r\n    /* Inherited Functions */\r\n\r\n    function _beforeTokenTransfer(address from, address to, uint256 tokenId)\r\n        internal\r\n        whenNotPaused\r\n        override(ERC721, ERC721Enumerable)\r\n    {\r\n        super._beforeTokenTransfer(from, to, tokenId);\r\n    }\r\n\r\n    function _burn(uint256 tokenId) internal override(ERC721, ERC721URIStorage) {\r\n        super._burn(tokenId);\r\n    }\r\n\r\n    function tokenURI(uint256 tokenId)\r\n        public\r\n        view\r\n        override(ERC721, ERC721URIStorage)\r\n        returns (string memory)\r\n    {\r\n        return super.tokenURI(tokenId);\r\n    }\r\n\r\n    function supportsInterface(bytes4 interfaceId)\r\n        public\r\n        view\r\n        override(ERC721, ERC721Enumerable)\r\n        returns (bool)\r\n    {\r\n        return super.supportsInterface(interfaceId);\r\n    }\r\n}",
  "sourcePath": "C:\\Users\\nogazi\\univote\\contracts\\SocialGroupNFT.sol",
  "compiler": {
    "name": "solc",
    "version": "0.8.4+commit.c7e474f2.Emscripten.clang"
  },
  "schemaVersion": "3.4.7",
  "updatedAt": "2022-09-05T20:24:28.778Z",
  "devdoc": {
    "kind": "dev",
    "methods": {
      "approve(address,uint256)": {
        "details": "See {IERC721-approve}."
      },
      "balanceOf(address)": {
        "details": "See {IERC721-balanceOf}."
      },
      "burn(uint256)": {
        "details": "Burns `tokenId`. See {ERC721-_burn}. Requirements: - The caller must own `tokenId` or be an approved operator."
      },
      "getApproved(uint256)": {
        "details": "See {IERC721-getApproved}."
      },
      "isApprovedForAll(address,address)": {
        "details": "See {IERC721-isApprovedForAll}."
      },
      "name()": {
        "details": "See {IERC721Metadata-name}."
      },
      "owner()": {
        "details": "Returns the address of the current owner."
      },
      "ownerOf(uint256)": {
        "details": "See {IERC721-ownerOf}."
      },
      "paused()": {
        "details": "Returns true if the contract is paused, and false otherwise."
      },
      "renounceOwnership()": {
        "details": "Leaves the contract without owner. It will not be possible to call `onlyOwner` functions anymore. Can only be called by the current owner. NOTE: Renouncing ownership will leave the contract without an owner, thereby removing any functionality that is only available to the owner."
      },
      "safeTransferFrom(address,address,uint256)": {
        "details": "See {IERC721-safeTransferFrom}."
      },
      "safeTransferFrom(address,address,uint256,bytes)": {
        "details": "See {IERC721-safeTransferFrom}."
      },
      "setApprovalForAll(address,bool)": {
        "details": "See {IERC721-setApprovalForAll}."
      },
      "symbol()": {
        "details": "See {IERC721Metadata-symbol}."
      },
      "tokenByIndex(uint256)": {
        "details": "See {IERC721Enumerable-tokenByIndex}."
      },
      "tokenOfOwnerByIndex(address,uint256)": {
        "details": "See {IERC721Enumerable-tokenOfOwnerByIndex}."
      },
      "totalSupply()": {
        "details": "See {IERC721Enumerable-totalSupply}."
      },
      "transferFrom(address,address,uint256)": {
        "details": "See {IERC721-transferFrom}."
      },
      "transferOwnership(address)": {
        "details": "Transfers ownership of the contract to a new account (`newOwner`). Can only be called by the current owner."
      }
    },
    "version": 1
  },
  "userdoc": {
    "kind": "user",
    "methods": {},
    "version": 1
  }
}