{
  "contractName": "SocialToken",
  "abi": [
    {
      "inputs": [],
      "stateMutability": "nonpayable",
      "type": "constructor"
    },
    {
      "anonymous": false,
      "inputs": [
        {
          "indexed": true,
          "internalType": "address",
          "name": "owner",
          "type": "address"
        },
        {
          "indexed": true,
          "internalType": "address",
          "name": "spender",
          "type": "address"
        },
        {
          "indexed": false,
          "internalType": "uint256",
          "name": "value",
          "type": "uint256"
        }
      ],
      "name": "Approval",
      "type": "event"
    },
    {
      "anonymous": false,
      "inputs": [
        {
          "indexed": true,
          "internalType": "address",
          "name": "previousOwner",
          "type": "address"
        },
        {
          "indexed": true,
          "internalType": "address",
          "name": "newOwner",
          "type": "address"
        }
      ],
      "name": "OwnershipTransferred",
      "type": "event"
    },
    {
      "anonymous": false,
      "inputs": [
        {
          "indexed": true,
          "internalType": "address",
          "name": "from",
          "type": "address"
        },
        {
          "indexed": true,
          "internalType": "address",
          "name": "to",
          "type": "address"
        },
        {
          "indexed": false,
          "internalType": "uint256",
          "name": "value",
          "type": "uint256"
        }
      ],
      "name": "Transfer",
      "type": "event"
    },
    {
      "inputs": [
        {
          "internalType": "address",
          "name": "owner",
          "type": "address"
        },
        {
          "internalType": "address",
          "name": "spender",
          "type": "address"
        }
      ],
      "name": "allowance",
      "outputs": [
        {
          "internalType": "uint256",
          "name": "",
          "type": "uint256"
        }
      ],
      "stateMutability": "view",
      "type": "function",
      "constant": true
    },
    {
      "inputs": [
        {
          "internalType": "address",
          "name": "spender",
          "type": "address"
        },
        {
          "internalType": "uint256",
          "name": "amount",
          "type": "uint256"
        }
      ],
      "name": "approve",
      "outputs": [
        {
          "internalType": "bool",
          "name": "",
          "type": "bool"
        }
      ],
      "stateMutability": "nonpayable",
      "type": "function"
    },
    {
      "inputs": [
        {
          "internalType": "address",
          "name": "account",
          "type": "address"
        }
      ],
      "name": "balanceOf",
      "outputs": [
        {
          "internalType": "uint256",
          "name": "",
          "type": "uint256"
        }
      ],
      "stateMutability": "view",
      "type": "function",
      "constant": true
    },
    {
      "inputs": [],
      "name": "decimals",
      "outputs": [
        {
          "internalType": "uint8",
          "name": "",
          "type": "uint8"
        }
      ],
      "stateMutability": "view",
      "type": "function",
      "constant": true
    },
    {
      "inputs": [
        {
          "internalType": "address",
          "name": "spender",
          "type": "address"
        },
        {
          "internalType": "uint256",
          "name": "subtractedValue",
          "type": "uint256"
        }
      ],
      "name": "decreaseAllowance",
      "outputs": [
        {
          "internalType": "bool",
          "name": "",
          "type": "bool"
        }
      ],
      "stateMutability": "nonpayable",
      "type": "function"
    },
    {
      "inputs": [
        {
          "internalType": "address",
          "name": "spender",
          "type": "address"
        },
        {
          "internalType": "uint256",
          "name": "addedValue",
          "type": "uint256"
        }
      ],
      "name": "increaseAllowance",
      "outputs": [
        {
          "internalType": "bool",
          "name": "",
          "type": "bool"
        }
      ],
      "stateMutability": "nonpayable",
      "type": "function"
    },
    {
      "inputs": [],
      "name": "name",
      "outputs": [
        {
          "internalType": "string",
          "name": "",
          "type": "string"
        }
      ],
      "stateMutability": "view",
      "type": "function",
      "constant": true
    },
    {
      "inputs": [],
      "name": "owner",
      "outputs": [
        {
          "internalType": "address",
          "name": "",
          "type": "address"
        }
      ],
      "stateMutability": "view",
      "type": "function",
      "constant": true
    },
    {
      "inputs": [],
      "name": "renounceOwnership",
      "outputs": [],
      "stateMutability": "nonpayable",
      "type": "function"
    },
    {
      "inputs": [],
      "name": "symbol",
      "outputs": [
        {
          "internalType": "string",
          "name": "",
          "type": "string"
        }
      ],
      "stateMutability": "view",
      "type": "function",
      "constant": true
    },
    {
      "inputs": [],
      "name": "totalSupply",
      "outputs": [
        {
          "internalType": "uint256",
          "name": "",
          "type": "uint256"
        }
      ],
      "stateMutability": "view",
      "type": "function",
      "constant": true
    },
    {
      "inputs": [
        {
          "internalType": "address",
          "name": "to",
          "type": "address"
        },
        {
          "internalType": "uint256",
          "name": "amount",
          "type": "uint256"
        }
      ],
      "name": "transfer",
      "outputs": [
        {
          "internalType": "bool",
          "name": "",
          "type": "bool"
        }
      ],
      "stateMutability": "nonpayable",
      "type": "function"
    },
    {
      "inputs": [
        {
          "internalType": "address",
          "name": "from",
          "type": "address"
        },
        {
          "internalType": "address",
          "name": "to",
          "type": "address"
        },
        {
          "internalType": "uint256",
          "name": "amount",
          "type": "uint256"
        }
      ],
      "name": "transferFrom",
      "outputs": [
        {
          "internalType": "bool",
          "name": "",
          "type": "bool"
        }
      ],
      "stateMutability": "nonpayable",
      "type": "function"
    },
    {
      "inputs": [
        {
          "internalType": "address",
          "name": "newOwner",
          "type": "address"
        }
      ],
      "name": "transferOwnership",
      "outputs": [],
      "stateMutability": "nonpayable",
      "type": "function"
    },
    {
      "inputs": [
        {
          "internalType": "address",
          "name": "_socialGroupFactory",
          "type": "address"
        }
      ],
      "name": "setOwner",
      "outputs": [],
      "stateMutability": "nonpayable",
      "type": "function"
    },
    {
      "inputs": [
        {
          "internalType": "address",
          "name": "newContract",
          "type": "address"
        }
      ],
      "name": "setContract",
      "outputs": [],
      "stateMutability": "nonpayable",
      "type": "function"
    },
    {
      "inputs": [
        {
          "internalType": "address",
          "name": "account",
          "type": "address"
        },
        {
          "internalType": "uint256",
          "name": "amount",
          "type": "uint256"
        }
      ],
      "name": "burn",
      "outputs": [],
      "stateMutability": "nonpayable",
      "type": "function"
    },
    {
      "inputs": [
        {
          "internalType": "address[]",
          "name": "account",
          "type": "address[]"
        },
        {
          "internalType": "uint256",
          "name": "amount",
          "type": "uint256"
        }
      ],
      "name": "batchBurn",
      "outputs": [],
      "stateMutability": "nonpayable",
      "type": "function"
    },
    {
      "inputs": [
        {
          "internalType": "address",
          "name": "to",
          "type": "address"
        },
        {
          "internalType": "uint256",
          "name": "amount",
          "type": "uint256"
        }
      ],
      "name": "mint",
      "outputs": [],
      "stateMutability": "nonpayable",
      "type": "function"
    },
    {
      "inputs": [
        {
          "internalType": "address[]",
          "name": "to",
          "type": "address[]"
        },
        {
          "internalType": "uint256",
          "name": "amount",
          "type": "uint256"
        }
      ],
      "name": "batchMint",
      "outputs": [],
      "stateMutability": "nonpayable",
      "type": "function"
    }
  ],
  "bytecode": "0x60806040523480156200001157600080fd5b506040518060400160405280600b81526020016a29b7b1b4b0b62a37b5b2b760a91b8152506040518060400160405280600381526020016253544b60e81b81525081600390805190602001906200006a929190620000f9565b50805162000080906004906020840190620000f9565b5050506200009d62000097620000a360201b60201c565b620000a7565b620001dc565b3390565b600580546001600160a01b038381166001600160a01b0319831681179093556040519116919082907f8be0079c531659141344cd1fd0a4f28419497f9722a3daafe3b4186f6b6457e090600090a35050565b82805462000107906200019f565b90600052602060002090601f0160209004810192826200012b576000855562000176565b82601f106200014657805160ff191683800117855562000176565b8280016001018555821562000176579182015b828111156200017657825182559160200191906001019062000159565b506200018492915062000188565b5090565b5b8082111562000184576000815560010162000189565b600181811c90821680620001b457607f821691505b60208210811415620001d657634e487b7160e01b600052602260045260246000fd5b50919050565b61103280620001ec6000396000f3fe608060405234801561001057600080fd5b506004361061012c5760003560e01c8063715018a6116100ad5780639dc29fac116100715780639dc29fac1461026e578063a457c2d714610281578063a9059cbb14610294578063dd62ed3e146102a7578063f2fde38b146102e057600080fd5b8063715018a61461021d57806375f890ab1461022557806383b74baa146102385780638da5cb5b1461024b57806395d89b411461026657600080fd5b8063313ce567116100f4578063313ce567146101ac57806339509351146101bb57806340c10f19146101ce5780636102e4c1146101e157806370a08231146101f457600080fd5b806306fdde0314610131578063095ea7b31461014f57806313af40351461017257806318160ddd1461018757806323b872dd14610199575b600080fd5b6101396102f3565b6040516101469190610ed9565b60405180910390f35b61016261015d366004610e3a565b610385565b6040519015158152602001610146565b610185610180366004610dac565b61039d565b005b6002545b604051908152602001610146565b6101626101a7366004610dff565b6103dc565b60405160128152602001610146565b6101626101c9366004610e3a565b610400565b6101856101dc366004610e3a565b61043f565b6101856101ef366004610e63565b61047c565b61018b610202366004610dac565b6001600160a01b031660009081526020819052604090205490565b61018561050c565b610185610233366004610dac565b610542565b610185610246366004610e63565b610590565b6005546040516001600160a01b039091168152602001610146565b61013961061a565b61018561027c366004610e3a565b610629565b61016261028f366004610e3a565b610662565b6101626102a2366004610e3a565b6106f4565b61018b6102b5366004610dcd565b6001600160a01b03918216600090815260016020908152604080832093909416825291909152205490565b6101856102ee366004610dac565b610702565b60606003805461030290610f90565b80601f016020809104026020016040519081016040528092919081815260200182805461032e90610f90565b801561037b5780601f106103505761010080835404028352916020019161037b565b820191906000526020600020905b81548152906001019060200180831161035e57829003601f168201915b5050505050905090565b60003361039381858561079a565b5060019392505050565b6005546001600160a01b031633146103d05760405162461bcd60e51b81526004016103c790610f2c565b60405180910390fd5b6103d981610702565b50565b6000336103ea8582856108bf565b6103f585858561094b565b506001949350505050565b3360008181526001602090815260408083206001600160a01b0387168452909152812054909190610393908290869061043a908790610f61565b61079a565b3360009081526006602052604090205460ff1661046e5760405162461bcd60e51b81526004016103c790610f2c565b6104788282610b19565b5050565b3360009081526006602052604090205460ff166104ab5760405162461bcd60e51b81526004016103c790610f2c565b60005b82811015610506576104f48484838181106104d957634e487b7160e01b600052603260045260246000fd5b90506020020160208101906104ee9190610dac565b83610bf8565b806104fe81610fcb565b9150506104ae565b50505050565b6005546001600160a01b031633146105365760405162461bcd60e51b81526004016103c790610f2c565b6105406000610d3e565b565b6005546001600160a01b0316331461056c5760405162461bcd60e51b81526004016103c790610f2c565b6001600160a01b03166000908152600660205260409020805460ff19166001179055565b3360009081526006602052604090205460ff166105bf5760405162461bcd60e51b81526004016103c790610f2c565b60005b82811015610506576106088484838181106105ed57634e487b7160e01b600052603260045260246000fd5b90506020020160208101906106029190610dac565b83610b19565b8061061281610fcb565b9150506105c2565b60606004805461030290610f90565b3360009081526006602052604090205460ff166106585760405162461bcd60e51b81526004016103c790610f2c565b6104788282610bf8565b3360008181526001602090815260408083206001600160a01b0387168452909152812054909190838110156106e75760405162461bcd60e51b815260206004820152602560248201527f45524332303a2064656372656173656420616c6c6f77616e63652062656c6f77604482015264207a65726f60d81b60648201526084016103c7565b6103f5828686840361079a565b60003361039381858561094b565b6005546001600160a01b0316331461072c5760405162461bcd60e51b81526004016103c790610f2c565b6001600160a01b0381166107915760405162461bcd60e51b815260206004820152602660248201527f4f776e61626c653a206e6577206f776e657220697320746865207a65726f206160448201526564647265737360d01b60648201526084016103c7565b6103d981610d3e565b6001600160a01b0383166107fc5760405162461bcd60e51b8152602060048201526024808201527f45524332303a20617070726f76652066726f6d20746865207a65726f206164646044820152637265737360e01b60648201526084016103c7565b6001600160a01b03821661085d5760405162461bcd60e51b815260206004820152602260248201527f45524332303a20617070726f766520746f20746865207a65726f206164647265604482015261737360f01b60648201526084016103c7565b6001600160a01b0383811660008181526001602090815260408083209487168084529482529182902085905590518481527f8c5be1e5ebec7d5bd14f71427d1e84f3dd0314c0f7b2291e5b200ac8c7c3b92591015b60405180910390a3505050565b6001600160a01b038381166000908152600160209081526040808320938616835292905220546000198114610506578181101561093e5760405162461bcd60e51b815260206004820152601d60248201527f45524332303a20696e73756666696369656e7420616c6c6f77616e636500000060448201526064016103c7565b610506848484840361079a565b6001600160a01b0383166109af5760405162461bcd60e51b815260206004820152602560248201527f45524332303a207472616e736665722066726f6d20746865207a65726f206164604482015264647265737360d81b60648201526084016103c7565b6001600160a01b038216610a115760405162461bcd60e51b815260206004820152602360248201527f45524332303a207472616e7366657220746f20746865207a65726f206164647260448201526265737360e81b60648201526084016103c7565b6001600160a01b03831660009081526020819052604090205481811015610a895760405162461bcd60e51b815260206004820152602660248201527f45524332303a207472616e7366657220616d6f756e7420657863656564732062604482015265616c616e636560d01b60648201526084016103c7565b6001600160a01b03808516600090815260208190526040808220858503905591851681529081208054849290610ac0908490610f61565b92505081905550826001600160a01b0316846001600160a01b03167fddf252ad1be2c89b69c2b068fc378daa952ba7f163c4a11628f55a4df523b3ef84604051610b0c91815260200190565b60405180910390a3610506565b6001600160a01b038216610b6f5760405162461bcd60e51b815260206004820152601f60248201527f45524332303a206d696e7420746f20746865207a65726f20616464726573730060448201526064016103c7565b8060026000828254610b819190610f61565b90915550506001600160a01b03821660009081526020819052604081208054839290610bae908490610f61565b90915550506040518181526001600160a01b038316906000907fddf252ad1be2c89b69c2b068fc378daa952ba7f163c4a11628f55a4df523b3ef9060200160405180910390a35050565b6001600160a01b038216610c585760405162461bcd60e51b815260206004820152602160248201527f45524332303a206275726e2066726f6d20746865207a65726f206164647265736044820152607360f81b60648201526084016103c7565b6001600160a01b03821660009081526020819052604090205481811015610ccc5760405162461bcd60e51b815260206004820152602260248201527f45524332303a206275726e20616d6f756e7420657863656564732062616c616e604482015261636560f01b60648201526084016103c7565b6001600160a01b0383166000908152602081905260408120838303905560028054849290610cfb908490610f79565b90915550506040518281526000906001600160a01b038516907fddf252ad1be2c89b69c2b068fc378daa952ba7f163c4a11628f55a4df523b3ef906020016108b2565b600580546001600160a01b038381166001600160a01b0319831681179093556040519116919082907f8be0079c531659141344cd1fd0a4f28419497f9722a3daafe3b4186f6b6457e090600090a35050565b80356001600160a01b0381168114610da757600080fd5b919050565b600060208284031215610dbd578081fd5b610dc682610d90565b9392505050565b60008060408385031215610ddf578081fd5b610de883610d90565b9150610df660208401610d90565b90509250929050565b600080600060608486031215610e13578081fd5b610e1c84610d90565b9250610e2a60208501610d90565b9150604084013590509250925092565b60008060408385031215610e4c578182fd5b610e5583610d90565b946020939093013593505050565b600080600060408486031215610e77578283fd5b833567ffffffffffffffff80821115610e8e578485fd5b818601915086601f830112610ea1578485fd5b813581811115610eaf578586fd5b8760208260051b8501011115610ec3578586fd5b6020928301989097509590910135949350505050565b6000602080835283518082850152825b81811015610f0557858101830151858201604001528201610ee9565b81811115610f165783604083870101525b50601f01601f1916929092016040019392505050565b6020808252818101527f4f776e61626c653a2063616c6c6572206973206e6f7420746865206f776e6572604082015260600190565b60008219821115610f7457610f74610fe6565b500190565b600082821015610f8b57610f8b610fe6565b500390565b600181811c90821680610fa457607f821691505b60208210811415610fc557634e487b7160e01b600052602260045260246000fd5b50919050565b6000600019821415610fdf57610fdf610fe6565b5060010190565b634e487b7160e01b600052601160045260246000fdfea2646970667358221220ef13a02db92d4b76aa0f3ab5d841c0aeb4e49e9be66ba5c76caf96a0b6c0d76c64736f6c63430008040033",
  "immutableReferences": {},
  "source": "// SPDX-License-Identifier: MIT\r\npragma solidity ^0.8.4;\r\n\r\nimport \"@openzeppelin/contracts/token/ERC20/ERC20.sol\";\r\nimport \"@openzeppelin/contracts/access/Ownable.sol\";\r\n\r\ncontract SocialToken is ERC20, Ownable {\r\n    \r\n    //Track Created Contracts for Social Groups\r\n    mapping(address => bool) private _contracts;\r\n\r\n    //Set in factory contract\r\n    modifier onlyContract() {\r\n        require(_contracts[_msgSender()], \"Ownable: caller is not the owner\");\r\n        _;\r\n    }\r\n\r\n    constructor() ERC20(\"SocialToken\", \"STK\") {\r\n    }\r\n\r\n    function setOwner(address _socialGroupFactory) external onlyOwner {\r\n        transferOwnership(_socialGroupFactory);\r\n    }\r\n\r\n    function setContract(address newContract) \r\n        onlyOwner\r\n        external\r\n    {\r\n        _contracts[newContract] = true;\r\n    }\r\n\r\n    function _mint(address to, uint256 amount)\r\n        internal\r\n        override(ERC20)\r\n    {\r\n        super._mint(to, amount);\r\n    }\r\n\r\n    function _burn(address account, uint256 amount)\r\n        internal\r\n        override(ERC20)\r\n    {\r\n        super._burn(account, amount);\r\n    }\r\n\r\n    function burn(address account, uint256 amount)\r\n        external\r\n        onlyContract\r\n    {\r\n        super._burn(account, amount);\r\n    }\r\n\r\n    function batchBurn(address[] calldata account, uint256 amount)\r\n        external\r\n        onlyContract\r\n    {\r\n        for (uint256 i = 0; i < account.length; i++){\r\n          super._burn(account[i], amount);\r\n        }\r\n    } \r\n\r\n    function mint(address to, uint256 amount)\r\n        external\r\n        onlyContract\r\n    {\r\n        super._mint(to, amount);\r\n    }\r\n\r\n    function batchMint(address[] calldata to, uint256 amount)\r\n        external\r\n        onlyContract\r\n    {\r\n        for (uint256 i = 0; i < to.length; i++){\r\n          super._mint(to[i], amount);\r\n        } \r\n    }\r\n}",
  "sourcePath": "C:\\Users\\nogazi\\univote\\contracts\\SocialToken.sol",
  "compiler": {
    "name": "solc",
    "version": "0.8.4+commit.c7e474f2.Emscripten.clang"
  },
  "schemaVersion": "3.4.7",
  "updatedAt": "2022-09-05T20:27:33.934Z",
  "networkType": "ethereum",
  "devdoc": {
    "kind": "dev",
    "methods": {
      "allowance(address,address)": {
        "details": "See {IERC20-allowance}."
      },
      "approve(address,uint256)": {
        "details": "See {IERC20-approve}. NOTE: If `amount` is the maximum `uint256`, the allowance is not updated on `transferFrom`. This is semantically equivalent to an infinite approval. Requirements: - `spender` cannot be the zero address."
      },
      "balanceOf(address)": {
        "details": "See {IERC20-balanceOf}."
      },
      "decimals()": {
        "details": "Returns the number of decimals used to get its user representation. For example, if `decimals` equals `2`, a balance of `505` tokens should be displayed to a user as `5.05` (`505 / 10 ** 2`). Tokens usually opt for a value of 18, imitating the relationship between Ether and Wei. This is the value {ERC20} uses, unless this function is overridden; NOTE: This information is only used for _display_ purposes: it in no way affects any of the arithmetic of the contract, including {IERC20-balanceOf} and {IERC20-transfer}."
      },
      "decreaseAllowance(address,uint256)": {
        "details": "Atomically decreases the allowance granted to `spender` by the caller. This is an alternative to {approve} that can be used as a mitigation for problems described in {IERC20-approve}. Emits an {Approval} event indicating the updated allowance. Requirements: - `spender` cannot be the zero address. - `spender` must have allowance for the caller of at least `subtractedValue`."
      },
      "increaseAllowance(address,uint256)": {
        "details": "Atomically increases the allowance granted to `spender` by the caller. This is an alternative to {approve} that can be used as a mitigation for problems described in {IERC20-approve}. Emits an {Approval} event indicating the updated allowance. Requirements: - `spender` cannot be the zero address."
      },
      "name()": {
        "details": "Returns the name of the token."
      },
      "owner()": {
        "details": "Returns the address of the current owner."
      },
      "renounceOwnership()": {
        "details": "Leaves the contract without owner. It will not be possible to call `onlyOwner` functions anymore. Can only be called by the current owner. NOTE: Renouncing ownership will leave the contract without an owner, thereby removing any functionality that is only available to the owner."
      },
      "symbol()": {
        "details": "Returns the symbol of the token, usually a shorter version of the name."
      },
      "totalSupply()": {
        "details": "See {IERC20-totalSupply}."
      },
      "transfer(address,uint256)": {
        "details": "See {IERC20-transfer}. Requirements: - `to` cannot be the zero address. - the caller must have a balance of at least `amount`."
      },
      "transferFrom(address,address,uint256)": {
        "details": "See {IERC20-transferFrom}. Emits an {Approval} event indicating the updated allowance. This is not required by the EIP. See the note at the beginning of {ERC20}. NOTE: Does not update the allowance if the current allowance is the maximum `uint256`. Requirements: - `from` and `to` cannot be the zero address. - `from` must have a balance of at least `amount`. - the caller must have allowance for ``from``'s tokens of at least `amount`."
      },
      "transferOwnership(address)": {
        "details": "Transfers ownership of the contract to a new account (`newOwner`). Can only be called by the current owner."
      }
    },
    "version": 1
  },
  "userdoc": {
    "kind": "user",
    "methods": {},
    "version": 1
  }
}