{
  "contractName": "Tickets",
  "abi": [
    {
      "inputs": [
        {
          "internalType": "address",
          "name": "creator",
          "type": "address"
        },
        {
          "internalType": "uint256",
          "name": "studentId",
          "type": "uint256"
        },
        {
          "internalType": "string",
          "name": "desc",
          "type": "string"
        },
        {
          "internalType": "uint256",
          "name": "goal",
          "type": "uint256"
        }
      ],
      "stateMutability": "nonpayable",
      "type": "constructor"
    },
    {
      "inputs": [],
      "name": "description",
      "outputs": [
        {
          "internalType": "string",
          "name": "",
          "type": "string"
        }
      ],
      "stateMutability": "view",
      "type": "function"
    },
    {
      "inputs": [],
      "name": "manager",
      "outputs": [
        {
          "internalType": "address",
          "name": "",
          "type": "address"
        }
      ],
      "stateMutability": "view",
      "type": "function"
    },
    {
      "inputs": [],
      "name": "studentID",
      "outputs": [
        {
          "internalType": "uint256",
          "name": "",
          "type": "uint256"
        }
      ],
      "stateMutability": "view",
      "type": "function"
    },
    {
      "inputs": [],
      "name": "voteGoal",
      "outputs": [
        {
          "internalType": "uint256",
          "name": "",
          "type": "uint256"
        }
      ],
      "stateMutability": "view",
      "type": "function"
    },
    {
      "inputs": [],
      "name": "voterCount",
      "outputs": [
        {
          "internalType": "uint256",
          "name": "",
          "type": "uint256"
        }
      ],
      "stateMutability": "view",
      "type": "function"
    },
    {
      "inputs": [
        {
          "internalType": "address",
          "name": "",
          "type": "address"
        }
      ],
      "name": "voters",
      "outputs": [
        {
          "internalType": "bool",
          "name": "",
          "type": "bool"
        }
      ],
      "stateMutability": "view",
      "type": "function"
    },
    {
      "inputs": [],
      "name": "vote",
      "outputs": [],
      "stateMutability": "payable",
      "type": "function"
    },
    {
      "inputs": [],
      "name": "getSummary",
      "outputs": [
        {
          "internalType": "uint256",
          "name": "",
          "type": "uint256"
        },
        {
          "internalType": "uint256",
          "name": "",
          "type": "uint256"
        },
        {
          "internalType": "address",
          "name": "",
          "type": "address"
        },
        {
          "internalType": "string",
          "name": "",
          "type": "string"
        },
        {
          "internalType": "uint256",
          "name": "",
          "type": "uint256"
        }
      ],
      "stateMutability": "view",
      "type": "function"
    },
    {
      "inputs": [],
      "name": "isVoting",
      "outputs": [
        {
          "internalType": "bool",
          "name": "",
          "type": "bool"
        }
      ],
      "stateMutability": "view",
      "type": "function"
    }
  ],
  "bytecode": "0x608060405234801561001057600080fd5b5060405161074638038061074683398101604081905261002f91610108565b600080546001600160a01b0319166001600160a01b0386161790556001839055815161006290600290602085019061006f565b5060035550610253915050565b82805461007b90610202565b90600052602060002090601f01602090048101928261009d57600085556100e3565b82601f106100b657805160ff19168380011785556100e3565b828001600101855582156100e3579182015b828111156100e35782518255916020019190600101906100c8565b506100ef9291506100f3565b5090565b5b808211156100ef57600081556001016100f4565b6000806000806080858703121561011d578384fd5b84516001600160a01b0381168114610133578485fd5b60208681015160408801519296509450906001600160401b0380821115610158578485fd5b818801915088601f83011261016b578485fd5b81518181111561017d5761017d61023d565b604051601f8201601f19908116603f011681019083821181831017156101a5576101a561023d565b816040528281528b868487010111156101bc578788fd5b8793505b828410156101dd57848401860151818501870152928501926101c0565b828411156101ed57878684830101525b60609a909a0151989b979a5050505050505050565b600181811c9082168061021657607f821691505b6020821081141561023757634e487b7160e01b600052602260045260246000fd5b50919050565b634e487b7160e01b600052604160045260246000fd5b6104e4806102626000396000f3fe6080604052600436106100865760003560e01c8063481c6a7511610059578063481c6a7514610115578063632a9a521461014d5780637284e41614610157578063a3ec138d14610179578063b7e00013146101a957600080fd5b80631bbef3991461008b578063299ac1d9146100b55780634051ddac146100d957806342169e48146100ff575b600080fd5b34801561009757600080fd5b506100a06101bf565b60405190151581526020015b60405180910390f35b3480156100c157600080fd5b506100cb60035481565b6040519081526020016100ac565b3480156100e557600080fd5b506100ee6101e2565b6040516100ac95949392919061040d565b34801561010b57600080fd5b506100cb60045481565b34801561012157600080fd5b50600054610135906001600160a01b031681565b6040516001600160a01b0390911681526020016100ac565b6101556102a7565b005b34801561016357600080fd5b5061016c6102f3565b6040516100ac91906103fa565b34801561018557600080fd5b506100a0610194366004610381565b60056020526000908152604090205460ff1681565b3480156101b557600080fd5b506100cb60015481565b3360009081526005602052604081205460ff166101dc5750600090565b50600090565b60008060006060600060015460045460008054906101000a90046001600160a01b031660026003548180546102169061044c565b80601f01602080910402602001604051908101604052809291908181526020018280546102429061044c565b801561028f5780601f106102645761010080835404028352916020019161028f565b820191906000526020600020905b81548152906001019060200180831161027257829003601f168201915b50505050509150945094509450945094509091929394565b3360009081526005602052604090205460ff16156102c457600080fd5b336000908152600560205260408120805460ff1916600117905560048054916102ec83610487565b9190505550565b600280546103009061044c565b80601f016020809104026020016040519081016040528092919081815260200182805461032c9061044c565b80156103795780601f1061034e57610100808354040283529160200191610379565b820191906000526020600020905b81548152906001019060200180831161035c57829003601f168201915b505050505081565b600060208284031215610392578081fd5b81356001600160a01b03811681146103a8578182fd5b9392505050565b60008151808452815b818110156103d4576020818501810151868301820152016103b8565b818111156103e55782602083870101525b50601f01601f19169290920160200192915050565b6020815260006103a860208301846103af565b85815284602082015260018060a01b038416604082015260a06060820152600061043a60a08301856103af565b90508260808301529695505050505050565b600181811c9082168061046057607f821691505b6020821081141561048157634e487b7160e01b600052602260045260246000fd5b50919050565b60006000198214156104a757634e487b7160e01b81526011600452602481fd5b506001019056fea2646970667358221220be3bd81aa885a8d1a8e51f9715a065378c7de5a68fc582babfc976d7163a865064736f6c63430008040033",
  "immutableReferences": {},
  "source": "// SPDX-License-Identifier: MIT\npragma solidity ^0.8.0;\n\ncontract Tickets {\n  \n  constructor(address creator, uint studentId, string memory desc, uint goal) {\n    manager = creator;\n    studentID = studentId;\n    description = desc;\n    voteGoal = goal;\n  }\n  \n  //Structure for each ticket\n  //add name / student number\n  struct Ticket {\n    string title;\n    string name;\n    string studentId;\n    string description;\n    bool complete;\n    uint minVotes;\n    mapping(address => bool) votes;\n  }\n\n  //Summary Values\n  address public manager;\n  uint public studentID;\n  string public description;\n  uint public voteGoal;\n  uint public voterCount;\n\n  mapping(address => bool) public voters;\n  \n  //Track created Tickets\n  // uint numTickets;\n  // mapping(uint => Ticket) tickets;\n\n  modifier restricted() {\n    require(msg.sender == manager);\n    _;\n  }\n\n  //Vote on the Ticket\n  function vote() public payable {\n    require(voters[msg.sender] == false);\n    voters[msg.sender] = true;\n    voterCount++;\n  }\n\n  //Create Ticket\n  // function createTicket(string memory title, string memory name, string memory description, uint minVotes) public restricted {\n  //   Ticket storage newTicket = tickets[numTickets++];\n  //   newTicket.title = title;\n  //   newTicket.name = name;\n  //   newTicket.description = description;\n  //   newTicket.complete = false;\n  //   newTicket.minVotes = minVotes;\n  // }\n\n  //trending feature track which ticket has most votes\n  //add function for users to add comments\n\n  // function finaliseTicket(uint index) public restricted {\n  //   Ticket storage ticket = tickets[index];\n\n  //   require(ticket.minVotes < (voterCount));\n  //   require(!ticket.complete);\n\n  //   ticket.complete = true;\n  // }\n\n  //View Ticket Stats\n  function getSummary() public view returns (uint,uint,address,string memory,uint){\n    return (\n      studentID,\n      voterCount,\n      manager,\n      description,\n      voteGoal\n    );\n  }\n\n  function isVoting() external view returns (bool){\n    if (!voters[msg.sender]) {\n      return false;\n    }\n    return false;\n  }\n\n  // function getTickets() public view returns (uint){\n  //   return numTickets;\n  // }\n\n  // function getId() public view returns (uint){\n  //   return studentID;\n  // }\n\n}",
  "sourcePath": "C:\\Users\\nogazi\\univote\\contracts\\Tickets.sol",
  "compiler": {
    "name": "solc",
    "version": "0.8.4+commit.c7e474f2.Emscripten.clang"
  },
  "schemaVersion": "3.4.7",
  "updatedAt": "2022-08-08T15:06:18.415Z",
  "devdoc": {
    "kind": "dev",
    "methods": {},
    "version": 1
  },
  "userdoc": {
    "kind": "user",
    "methods": {},
    "version": 1
  }
}